:100000000C942D010C9455010C9455010C94550140
:100010000C9455010C9455010C9455010C94550108
:100020000C9455010C9455010C9455010C943F12FD
:100030000C9455010C9437150C9469150C945501CA
:100040000C9455010C9455010C9455010C941A1103
:100050000C94550107634236B79BD8A71A396856E6
:1000600018AEBAAB558C1D3CB7CC5763BD6DEDFDDA
:10007000753EF6177231BF000000803F0800000097
:10008000BE922449123EABAAAA2ABECDCCCC4C3E8D
:1000900000000080BEABAAAAAA3E00000000BF007C
:1000A0000000803F0000000000084178D3BB438778
:1000B000D1133D190E3CC3BD4282AD2B3E68EC828C
:1000C00076BED98FE1A93E4C80EFFFBE01C4FF7F11
:1000D0003F0000000000005EBCE2613FDD83C29C87
:1000E0007E20A3FD1F419DC3217FFCA2401E5F0116
:1000F000E3BD3E6082DC237D9FC1421CFEA0E1BFC8
:100100005D0380DE3C62BEE0025CDF81633D7C22F9
:10011000C09E1D43A1FF4618FAA427799BC584DA27
:100120003866E5BB5907DB856739BAE406581947D5
:10013000A5FB7826C49A653BD987045AB8E6A7F987
:100140001B45C6987A24F8A6441A99C7257B3A64B9
:1001500086D85B05E7B98CD2306EEDB3510F4E10E7
:10016000F2AC2F7193CD114FADF3702ECC92D38D95
:100170006F31B2EC0E50AFF1134DCE90722C6D3347
:10018000D18F0C52B0EE326C8ED0530DEFB1F0AE79
:100190004C1291CF2D73CA947628ABF517490856A7
:1001A000B4EA6937D58B5709EBB536688AD495CB55
:1001B0002977F4AA4816E9B7550B88D6346A2B7507
:1001C00097C94A14F6A8742AC896154BA9F7B6E839
:1001D0000A54D7896B3500000002000000000000BF
:1001E00000000504000700000000000000000000FF
:1001F00000000000000001020408102040800102FD
:1002000004081020408001020408102040800102F0
:1002100004081020408002020202020202020404CA
:10022000040404040404030303030303030301019C
:1002300001010101010100003900360033003000E6
:1002400000003B0038003500320000003A00370063
:100250003400310077074110991511241FBECFE5F6
:10026000D8E0DEBFCDBF11E0A0E6B0E0E6E8F6E3FF
:1002700002C005900D92A633B107D9F722E0A6E39C
:10028000B1E001C01D92AB3DB207E1F712E0CAE553
:10029000D2E004C02297FE010E94231BC435D1077F
:1002A000C9F70E9438170C94411B0C9400008FE48E
:1002B00091E00E947E0B86E391E00E94830D26E090
:1002C00040E855E260E070E08EE392E00E94D314D3
:1002D00061E770E08EE392E00E94251661E080E025
:1002E0000E94581361E081E00E94581361E082E0AF
:1002F0000E94581361E083E10E94581361E084E09A
:100300000E94581361E085E00E94581361E086E086
:100310000E94581361E087E00E94581360E082E178
:100320000E94581361E08BE00E94581361E084E161
:100330000E94581361E085E10E94581361E08EE04D
:100340000E94581361E086E10E94581361E08AE040
:100350000E94581362E08FE00E94581362E08DE023
:100360000E94581362E08CE00E94581362E083E020
:100370000E9458138FE00E94C71321E0892B09F4D3
:1003800020E0209370018DE00E94C713892B91F427
:100390008AE090E090936F0080936E0080ED97E08C
:1003A000A0E0B0E080936A0090936B00A0936C0093
:1003B000B0936D008CE00E94C713892B91F48BE001
:1003C00090E090936F0080936E0088EB9BE0A0E03C
:1003D000B0E080936A0090936B00A0936C00B093A0
:1003E0006D0083E00E94C713892B91F48CE090E0AC
:1003F00090936F0080936E0080EA9FE0A0E0B0E0F1
:1004000080936A0090936B00A0936C00B0936D0092
:100410000895CF93DF93C7E4D1E06881607887E0E7
:100420000E9491136881607486E00E949113688134
:10043000607285E00E9491136881607184E00E947F
:1004400091136881687083E10E94911368816470E0
:1004500082E00E9491136881627081E00E94911392
:100460006881617080E0DF91CF910C949113CF93FC
:10047000DF93C5E4D1E0688161708BE00E94911345
:100480006881627084E10E9491136881647085E1E3
:100490000E949113688168708EE00E9491136881B8
:1004A000607186E1DF91CF910C94911361E08AE055
:1004B0000E94911384E690E00E94F31260E08AE0CB
:1004C0000C9491136DE770E08EE392E00E94181691
:1004D00060914501709146014AE050E08EE392E060
:1004E0000E94D01662E870E08EE392E00E94181637
:1004F000609145017091460142E050E08EE392E048
:100500000E94D01666E870E08EE392E00E94181612
:1005100060914701709148014AE050E08EE392E01B
:100520000E94D8166CE271E080E090E00C94B91261
:10053000CF92EF920F931F93CF93DF93CDB7DEB798
:100540002C970FB6F894DEBF0FBECDBF82E10E949C
:10055000C713019709F06CC16EE870E08EE392E07A
:100560000E94251660E080E00E94581360E081E060
:100570000E94581360E082E00E94581360E083E11B
:100580000E94581360E084E00E94581360E085E008
:100590000E94581360E086E00E94581360E087E0F4
:1005A0000E94581360E08BE00E94581360E084E1E1
:1005B0000E94581360E085E10E94581360E08EE0CD
:1005C0000E94581360E086E10E9458138BE00E945D
:1005D000C7138C0184E10E94C713880F991F080F6D
:1005E000191F85E10E94C713880F991F880F991F53
:1005F000080F191F8EE00E94C71343E0880F991F50
:100600004A95E1F7080F191F86E10E94C71354E0CD
:10061000880F991F5A95E1F7800F911F909346011B
:100620008093450180E00E94C7138C0181E00E9405
:10063000C713880F991F080F191F82E00E94C71364
:10064000880F991F880F991F080F191F83E10E94B7
:10065000C713E3E0880F991FEA95E1F7080F191F08
:1006600084E00E94C713F4E0880F991FFA95E1F720
:10067000080F191F85E00E94C713A5E0880F991F76
:10068000AA95E1F7080F191F86E00E94C713B6E08C
:10069000880F991FBA95E1F7080F191F87E00E948C
:1006A000C7139695982F882797958795800F911F48
:1006B00090934801809347010E946202CE01079601
:1006C0000E94960D8F8190E08053984F90933E0149
:1006D00080933D01888590E090933C0180933B019D
:1006E000898590E090933A01809339018A8590E062
:1006F00090934401809343018B8590E09093420155
:10070000809341018C8590E09093400180933F015C
:1007100080914501909146018230910509F442C0D3
:10072000A4F4009739F1019709F010CF67EA70E05F
:100730008EE392E00E94251660913D0170913E018A
:10074000C0903F01E090470164C08430910509F4F6
:1007500049C0ACF1059709F0F9CE6FED70E08EE37A
:1007600092E00E9425166091470170914801C09067
:100770003F014DC08091470190914801892B09F4B8
:10078000E5CE6AE970E08EE392E00E942516609162
:100790003D0170913E01C0903F01E0904101009108
:1007A000470139C066EB70E08EE392E00E942516A7
:1007B00060913D0170913E01C090470128C065ECF9
:1007C00070E08EE392E00E94251660913D017091E9
:1007D0003E01C0903F01E090410100914301209112
:1007E00047011BC061ED70E08EE392E00E94251688
:1007F00060913D0170913E01C0903F01E090410148
:1008000000914301209139014091470108C0E090D7
:100810004101009143012091390140913B01CE01FA
:1008200001960E946F0DCE0101960E948F0E8ECE12
:100830006CEE70E08EE392E00E94251661E080E0AD
:100840000E94581361E081E00E94581361E082E049
:100850000E94581361E083E10E94581361E084E034
:100860000E94581361E085E00E94581361E086E021
:100870000E94581361E087E00E94581361E08BE00A
:100880000E94581361E084E10E94581361E085E101
:100890000E94581361E08EE00E94581361E086E1E7
:1008A0000E9458136CE271E080E090E00E94B9125F
:1008B0002C960FB6F894DEBF0FBECDBFDF91CF915F
:1008C0001F910F91EF90CF9008958F929F92AF92CA
:1008D000BF92CF92DF92EF92FF920F931F93CF932D
:1008E000DF9300D000D000D0CDB7DEB70E948912D0
:1008F0006B017C0182E10E94C713019711F40E94F1
:100900009802CE0101960E94960D898190E0805355
:10091000984F90933E0180933D018A8190E090939F
:100920003C0180933B018B8190E090933A0180934E
:1009300039018C8190E090934401809343018D8133
:1009400090E090934201809341018E8190E09093DA
:10095000400180933F010E94210E0E94191870935C
:100960003801609337018091700181118FC08091AF
:10097000710190917201A0917301B0917401B7015E
:10098000A601481B590B6A0B7B0B80916A00909162
:100990006B00A0916C00B0916D00481759076A0771
:1009A0007B0708F473C0C0927101D0927201E0928B
:1009B0007301F092740160916E008FE491E00E94E7
:1009C0000C0B8FE491E00E94500C60E08FE491E00A
:1009D0000E94440D6B017C0120E030E0A9010E94DF
:1009E000AD1787FD09C0C0924B01D0924C01E09237
:1009F0004D01F0924E0110C0A701960160E070E039
:100A000080E093E40E94481760934B0170934C017F
:100A100080934D0190934E01C0904B01D0904C01BA
:100A2000E0904D01F0904E0160916E0070916F006A
:100A300068507109882777FD8095982F0E944C187F
:100A40009B01AC0160E070E080E291E40E945F19DC
:100A50004B015C01C701B6010E941918882777FD78
:100A60008095982F0E944C189B01AC01C701B601DC
:100A70000E9448179B01AC01C501B4010E94FC18FB
:100A80000E94191870934A016093490180914301B3
:100A90009091440190934801809347011092460140
:100AA000109245010E9409020E9437020E945602DC
:100AB00080914101909142019093480180934701B8
:100AC00081E090E090934601809345010E940902E5
:100AD0000E9437020E94560280913F01909140018E
:100AE000909348018093470182E090E09093460103
:100AF000809345010E9409020E9437020E9456021B
:100B00008091390190913A01909348018093470177
:100B100083E090E090934601809345010E94090292
:100B20000E9437020E94560280913B0190913C0145
:100B3000909348018093470184E090E090934601B0
:100B4000809345010E9409020E9437020E945602CA
:100B500080913D0190913E01805D974090934801C6
:100B60008093470185E090E0909346018093450192
:100B70000E9409020E9437020E94560280913701AA
:100B800090913801909348018093470186E090E06E
:100B900090934601809345010E9409020E9437020A
:100BA0000E94560260914B0170914C0180914D0161
:100BB00090914E010E94191870934801609347016B
:100BC00087E090E090934601809345010E940902DE
:100BD0000E9437020E9456028091490190914A0179
:100BE000909348018093470188E090E090934601FC
:100BF000809345010E9409020E9437020E9456021A
:100C000088E10E942413BC01882777FD8095982FE6
:100C10001F921F921F9299249A949F92A12CB12CFB
:100C20006501EE24EA9413E0F12E00E010E020E0EC
:100C300030E0A9010E94F0167093480160934701CB
:100C40008AE090E090934601809345010E9409025A
:100C50000E9437020E94560289E10E942413BC01BF
:100C6000882777FD8095982F1F921F921F929F9241
:100C700020E030E0A9010E94F016709348016093D3
:100C800047018BE090E090934601809345010E94DC
:100C900009020E9437020E9456028AE10E94241330
:100CA000BC01882777FD8095982F1F921F921F9275
:100CB0009F9220E030E0A9010E94F0167093480155
:100CC000609347018CE090E090934601809345014A
:100CD0000E9409020E9437020E9456028BE10E9484
:100CE0002413BC01882777FD8095982F1F921F92AF
:100CF0001F929F9220E030E0A9010E94F0167093AD
:100D00004801609347018DE090E090934601809305
:100D100045010E9409020E9437020E9456028CE19E
:100D20000E942413BC01882777FD8095982F1F927D
:100D30001F921F929F9220E030E0A9010E94F016BE
:100D400070934801609347018EE090E090934601D4
:100D5000809345010E9409020E9437020E945602B8
:100D60008DE10E942413BC01882777FD8095982F80
:100D70001F921F921F929F9220E030E0A9010E94D3
:100D8000F01670934801609347018FE090E09093D4
:100D90004601809345010E9409020E9437020E9489
:100DA00056028EE10E942413BC01882777FD8095AE
:100DB000982F1F921F921F929F9220E030E0A9016E
:100DC0000E94F016709348016093470180E190E023
:100DD00090934601809345010E9409020E943702C8
:100DE0000E9456028FE10E942413BC01882777FDE0
:100DF0008095982F1F921F921F929F9220E030E0C3
:100E0000A9010E94F016709348016093470181E1A7
:100E100090E090934601809345010FB6F894DEBFB1
:100E20000FBECDBF0E9409020E9437020E945602E7
:100E30008FE00E94C713909348018093470184E19B
:100E400090E090934601809345010E9409020E9420
:100E500037020E9456028DE00E94C713909348010A
:100E60008093470185E190E090934601809345018E
:100E70000E9409020E9437020E9456028CE00E94E2
:100E8000C713909348018093470186E190E09093C7
:100E90004601809345010E9409020E9437020E9488
:100EA000560283E00E94C713909348018093470144
:100EB00087E190E090934601809345010E940902EA
:100EC0000E9437020E94560226960FB6F894DEBFA3
:100ED0000FBECDBFDF91CF911F910F91FF90EF908B
:100EE000DF90CF90BF90AF909F908F90089567E173
:100EF00082E691E00E94BB0862E671E08FE491E037
:100F00000C948309FF920F931F93CF93DF93FC01FF
:100F10000081C181D281F8948981F02EF0948F21D3
:100F2000898378941DE7115029F182E090E00E94B6
:100F3000F31288818023B9F3F8948A818F218A8300
:100F40008981802B8983789480EE91E00E94F3124E
:100F5000F89489818F21898386E490E00E94F312BE
:100F60008881802311E009F010E078948AE991E00B
:100F70000E94F312812FDF91CF911F910F91FF906B
:100F800008951F93CF93DF93FC011081C181D2811B
:100F9000912F909560FF12C0F8948A8189238A83EB
:100FA0008981812B89838AE090E00E94F3128A81F3
:100FB000812B8A83789487E390E011C0F8948A812A
:100FC00089238A838981812B898381E490E00E942F
:100FD000F3128A81812B8A83789485E090E0DF91F7
:100FE000CF911F910C94F3120F931F93CF93DF9324
:100FF000FC011081C181D281F8948981812B898380
:101000008A81012F009580238A8383E090E00E94EB
:10101000F3128981802389838AE090E00E94F31291
:10102000C881789485E390E00E94F3121C2381E04C
:1010300009F480E0DF91CF911F910F910895CF9235
:10104000DF92EF92FF920F931F93CF93DF931F9244
:10105000CDB7DEB76C01E62E08E010E0FF24F39474
:1010600061E09F2D9E2109F460E0C60149830E9442
:10107000C107FF0C0150110949810115110581F7C4
:10108000411115C0F894D6011196ED91FC9112977B
:1010900091818C918095892381831196ED91FC91AA
:1010A000129792818C9180958923828378940F90F6
:1010B000DF91CF911F910F91FF90EF90DF90CF9034
:1010C0000895EF92FF920F931F93CF93DF938C01BC
:1010D000C8E0D0E0F12CEE24E394C8010E94F407AC
:1010E0008111FE28EE0C2197C1F78F2DDF91CF9152
:1010F0001F910F91FF90EF900895CF92DF92FF9292
:101100000F931F93CF93DF931F92CDB7DEB78C0160
:10111000F62E40E065E579830E941F08CF2C798187
:10112000D72E88E0F82EF60161916F0140E0C801EA
:101130000E941F08FA94B9F70F90DF91CF911F9189
:101140000F91FF90DF90CF90089540E06CEC0C94ED
:101150001F08FC0113861586148627E030E0DF01A6
:10116000A20FB31F13961C922115310519F02150BF
:101170003109F5CF08951F93CF93DF93EC01162F1C
:1011800060E0812F0E945813612F70E0FB01EA504C
:10119000FE4FE491E883FB01EA5EFD4FE491F0E04D
:1011A000EE0FFF1FEA5CFD4F859194919A8389832E
:1011B000CE01DF91CF911F910C94A908AF92BF92FD
:1011C000CF92DF92EF92FF920F931F93CF93DF9313
:1011D0001F92CDB7DEB75C01E62ED72EFC018585C8
:1011E00081115DC0C5010E948207811105C0F50112
:1011F0001386158614866EC040E060EFC5010E941C
:101200001F0801E0F12CC12C11E0C5010E94F40778
:10121000682FC50169830E94F4076981613019F460
:101220008130B9F433C02F2D30E068131BC0F501B5
:101230008385181730F4E20FF31F8381802349F46C
:1012400002C0181731F060E0193058F4F501148726
:1012500008C0F501EF0DF11D8381802B838361E0D0
:1012600009C0C12EF501E20FF31F8381902F9095E5
:1012700089238383C5010E94C1071F5F000F11F4FA
:10128000F39401E0F7E0FF1508F0BFCF113438F018
:10129000F501C386C11018C081E0858715C0F5012E
:1012A00013861586148680E0EE2DFD2D20E030E0BB
:1012B000D501A20FB31F13969C9191932F5F3F4FBF
:1012C00028303105A9F706C0F5018381882339F359
:1012D00081E0EACF0F90DF91CF911F910F91FF90A6
:1012E000EF90DF90CF90BF90AF900895DC0180E049
:1012F000615038F0ED91E827F0E0EA52FF4F849119
:10130000F7CF08950895FC0182E899E0928B818BD4
:10131000768365831482108289E0818381E08283F1
:1013200083830895CF93DF93EB0167E0CE010E94A2
:10133000760991E02F81821390E0892FDF91CF9180
:101340000895EF92FF920F931F93CF93DF93EC01D9
:101350008B01E42E8D819E810E94A908F12CB80199
:101360008D819E810E94DE08882359F0FE1006C000
:10137000B801CE010E949209811104C0F394EF14C8
:1013800070F780E0DF91CF911F910F91FF90EF9068
:101390000895EF92FF920F931F93CF93DF9300D0A6
:1013A000CDB7DEB77C018A01FC0185819681698316
:1013B0007A830E94820769817A81F701858196810B
:1013C0000E947D0840E06EEBF701858196810E94C6
:1013D0001F08F701858196810E946108F8018083CA
:1013E000F701858196810E946108F8018183F701E8
:1013F000858196810E946108F8018283F7018581C9
:1014000096810E946108F8018383F70185819681A6
:101410000E946108F8018483F701858196810E940A
:101420006108F8018583F701858196810E94610832
:10143000F8018683F701858196810E946108F80191
:101440008783F701858196810E946108F801808772
:10145000F701858196810F900F90DF91CF911F91B9
:101460000F91FF90EF900C948207CF93DF93EA01E6
:101470000E94C90968E0CE010E94760991E02885A2
:10148000821390E0892FDF91CF910895EF92FF9220
:101490000F931F93CF93DF93EC017B018A018D8122
:1014A0009E810E948207B7018D819E810E947D08E6
:1014B00040E06EE48D819E810E941F0840E0F801AB
:1014C00062818D819E810E941F0840E0F801638146
:1014D0008D819E810E941F08F7018081803139F043
:1014E00040E0F80164818D819E810E941F088D81FA
:1014F0009E810E948207488168E48D819E810E94BE
:101500001F088881882331F06AE070E080E090E075
:101510000E94B9128D819E81DF91CF911F910F9111
:10152000FF90EF900C948207EF92FF921F93CF935E
:10153000DF9300D0CDB7DEB77C01FC0185819681B9
:1015400069837A830E94820769817A81F7018581A4
:1015500096810E947D0840E064EBF70185819681C9
:101560000E941F08F701858196810E94F407182FB9
:10157000F701858196810E94820781E0111180E048
:101580000F900F90DF91CF911F91FF90EF900895F2
:10159000EF92FF920F931F93CF93DF93CDB7DEB7F8
:1015A0002A970FB6F894DEBF0FBECDBF7C018B012A
:1015B000242FAE014F5F5F4F2A870E94350A2A858C
:1015C0008823D1F0F80180818031C1F02B3041F0C7
:1015D0002C3021F02A3031F48FE305C08FE703C0AF
:1015E0008FE501C08FE18D83AE014F5F5F4FB80182
:1015F000C7010E94460A02C080E001C081E02A962D
:101600000FB6F894DEBF0FBECDBFDF91CF911F9113
:101610000F91FF90EF900895EF92FF920F931F9319
:10162000CF93DF93CDB7DEB728970FB6F894DEBF20
:101630000FBECDBF8C01693020F06D3018F06CE02A
:1016400001C069E0F8016183E12CF12CF80184818B
:1016500090E0E816F9069CF44E2DBE016F5F7F4FB7
:10166000C8010E94A109F8014181BE016F5F7F4F4F
:10167000C8010E94C80AFFEFEF1AFF0AE7CF2896B9
:101680000FB6F894DEBF0FBECDBFDF91CF911F9193
:101690000F91FF90EF900895CF93DF93CDB7DEB712
:1016A00029970FB6F894DEBF0FBECDBFFB01208196
:1016B0002031D1F0AE014F5F5F4F0E94350A882381
:1016C00079F08D818F3351F018F48F3169F008C0B3
:1016D0008F3541F08F3721F48CE007C08AE005C0D8
:1016E00080E003C08BE001C089E029960FB6F89432
:1016F000DEBF0FBECDBFDF91CF910895EF92FF9275
:101700000F931F93CF93DF93CDB7DEB761970FB6DB
:10171000F894DEBF0FBECDBF8C01FC0185819681A0
:101720000E94A908F8011482FF24F394BE01665FA9
:101730007F4FF801858196810E94DE088823C9F1D8
:10174000BE01665F7F4FC8010E949209882371F332
:10175000F8018081811108C0BE01665F7F4FC8011A
:101760000E94940A811122C0AE014F5F5F4FBE01FB
:10177000665F7F4FC8010E94C909F801E180BE0180
:10178000665F7F4FC8010E944C0B8E1518F4F8015C
:10179000818106C0BE01665F7F4FC8010E944C0B6D
:1017A000F801818384818F5F8483C0CFF801F08248
:1017B000DBCF61960FB6F894DEBF0FBECDBFDF91D1
:1017C000CF911F910F91FF90EF900895CF93DF93EA
:1017D000CDB7DEB729970FB6F894DEBF0FBECDBFE9
:1017E000AE014F5F5F4F0E94C90981E0998191115D
:1017F00001C080E029960FB6F894DEBF0FBECDBFC2
:10180000DF91CF910895CF92DF92EF92FF920F93E5
:101810001F93CF93DF93EC018B01452BE1F08B817C
:101820008823C9F08881811116C00E9489126B013A
:101830007C0160E070E0CE010E94E60B81110BC0DC
:101840000E9489126C197D098E099F096E3E7240B3
:101850008105910570F3F80180818A3049F08B3061
:1018600061F0893079F46EE570E080E090E00EC0C0
:101870006CEB70E080E090E009C067E771E080E029
:1018800090E004C06EEE72E080E090E0DF91CF91D6
:101890001F910F91FF90EF90DF90CF900C94B912B1
:1018A000CF93DF93EC018D819E810E9482078D8111
:1018B0009E810E94A508488164E48D819E810E94DA
:1018C0001F088A81882351F0BE016F5F7F4F40E07F
:1018D00050E0CE01DF91CF910C94030CDF91CF91BA
:1018E00008958F929F92AF92BF92CF92DF92EF9224
:1018F000FF921F93CF93DF93FB01EA01698170E0B0
:10190000762F66278881682B80818232B1F18832F8
:10191000A1F1803109F078C01F81759567958827FE
:1019200077FD8095982F0E944C1820E030E040E829
:101930005EE30E9448176B017C01612F70E08E818D
:10194000681B7109882777FD8095982F0E944C1895
:101950004B015C01612F70E080E090E00E944A182A
:101960009B01AC01C501B4010E94B1179B01AC0100
:10197000C701B6010E94491743C08C818F3381F1A2
:1019800098F48F3109F040C093E0759567959A956A
:10199000E1F7882777FD8095982F0E944C1820E06A
:1019A00030E040E05FE32AC08F3569F08F3761F5A2
:1019B000882777FD8095982F0E944C1820E030E012
:1019C00040E85DE31BC075956795882777FD809596
:1019D000982F0E944C1820E030E040E05EE30EC0FB
:1019E0007595679575956795882777FD8095982FEC
:1019F0000E944C1820E030E040E85EE30E94FC18B2
:101A0000562F472F382F292F652F742F832F922F72
:101A1000DF91CF911F91FF90EF90DF90CF90BF901B
:101A2000AF909F908F900895EF92FF920F931F9326
:101A3000CF93DF93CDB7DEB729970FB6F894DEBF0B
:101A40000FBECDBF8C017B01AE014F5F5F4F0E9487
:101A5000350A882341F0AE014F5F5F4FB701C801DF
:101A60000E94710C04C060E070E08EEF92EC299649
:101A70000FB6F894DEBF0FBECDBFDF91CF911F919F
:101A80000F91FF90EF9008950F931F93CF93DF93E3
:101A9000CDB7DEB728970FB6F894DEBF0FBECDBF27
:101AA0008C01462FBE016F5F7F4F0E94A109BE01CE
:101AB0006F5F7F4FC8010E94140D28960FB6F894EF
:101AC000DEBF0FBECDBFDF91CF911F910F91089563
:101AD000DC01ED91FC910190F081E02D0994CF9211
:101AE000EF920F93FC01603D87E0780710F0605D96
:101AF00077406083418322830383E482C5820F9110
:101B0000EF90CF90089585E791E00E94AE0F68E6D0
:101B100070E085E791E00E94C20F85E791E00E94A6
:101B20003E1091E0811190E0892F0895CF92DF92CD
:101B3000EF92FF920F931F93CF93DF93EC0168E630
:101B400070E085E791E00E94C20F60E085E791E0D8
:101B50000E946F0F85E791E00E943E1047E050E041
:101B600068E670E085E791E00E943B1085E791E030
:101B70000E941F0F8F77982F92959F701AEF082F52
:101B8000919F000D112485E791E00E941F0F9C0199
:101B9000332764E0359527956A95E1F7F82E129F73
:101BA000F00C112485E791E00E941F0F9C01332760
:101BB00074E0359527957A95E1F7E82E129FE00CB1
:101BC000112485E791E00E941F0F85E791E00E94B4
:101BD0001F0F9C013327E4E035952795EA95E1F73F
:101BE000D82E129FD00C112485E791E00E941F0F80
:101BF0009C013327F4E035952795FA95E1F7C82E37
:101C0000129FC00C112485E791E00E941F0F9C01D8
:101C10003327A4E035952795AA95E1F7129F800D0B
:101C200011248883C982DA82EB82FC820D83CE0183
:101C3000DF91CF911F910F91FF90EF90DF90CF90A8
:101C40000895CF92DF92EF92FF921F93CF93DF938D
:101C500068E670E085E791E00E94C20F61E170E004
:101C600085E791E00E94680D85E791E00E943E10B3
:101C700042E050E068E670E085E791E00E943B10AA
:101C800085E791E00E941F0F182F85E791E00E94E1
:101C90001F0FEC01612F70E080E090E00E944A1875
:101CA0006B017C01BE017727B6E075956795BA9503
:101CB000E1F7882777FD8095982F0E944C1820E047
:101CC00030E040E85EE30E94FC189B01AC01C701D4
:101CD000B6010E944917DF91CF911F91FF90EF90BD
:101CE000DF90CF900895CF93C82F68E685E791E005
:101CF0000E94B80F6C2F85E791E00E946F0F85E777
:101D000091E00E943E1041E068E685E791E00E9484
:101D1000381085E791E00E941F0FCF9108951F931F
:101D2000CF93DF93EC0168E670E085E791E00E94D5
:101D3000C20F60E085E791E00E946F0F2D811AE0ED
:101D4000822F612F0E94D41A682F660F680F660FCA
:101D5000620F85E791E00E946F0F2C81822F612F27
:101D60000E94D41A682F660F680F660F620F85E70E
:101D700091E00E946F0F2B81822F612F0E94D41A55
:101D8000682F660F680F660F620F85E791E00E946B
:101D90006F0F60E085E791E00E946F0F2A81822F2C
:101DA000612F0E94D41A682F660F680F660F620FAA
:101DB00085E791E00E946F0F2981822F612F0E9499
:101DC000D41A682F660F680F660F620F85E791E0DF
:101DD0000E946F0F2881822F612F0E94D41A682FD2
:101DE000660F680F660F620F85E791E00E946F0F24
:101DF00085E791E00E943E108FE00E94730EC82F8D
:101E000068E685E791E00E94B80F6FE085E791E012
:101E10000E946F0F6C2F6F7785E791E00E946F0F24
:101E200085E791E0DF91CF911F910C943E10809156
:101E3000A50190E02091A601821B910908952091AF
:101E4000A6018091A501281750F4E22FF0E0E95592
:101E5000FE4F808190E02F5F2093A60108958FEFC1
:101E60009FEF0895E091A6018091A501E81730F455
:101E7000F0E0E955FE4F808190E008958FEF9FEFED
:101E800008950895CF92DF92EF92FF920F931F93E0
:101E9000CF93DF937C01CB018A0120918101222322
:101EA00089F0EB016B01C40ED51ECC15DD0569F080
:101EB0006991D701ED91FC910190F081E02DC7016E
:101EC0000995F3CF642F0E94F410C801DF91CF91E0
:101ED0001F910F91FF90EF90DF90CF900895CF93D7
:101EE000DF931F92CDB7DEB7698320918101222352
:101EF000D1F020918201203240F021E030E0FC015D
:101F00003383228380E090E015C080918301E82F25
:101F1000F0E0EC57FE4F998190838F5F80938301AF
:101F20008093820105C061E0CE0101960E94F41009
:101F300081E090E00F90DF91CF910895FC01138232
:101F4000128248EE53E060E070E04483558366837C
:101F500077838BE091E09183808308951092A601AE
:101F60001092A50110928301109282010C944510E9
:101F700081E0809381016093A4011092830110920B
:101F8000820108950C94B80F0F93062F21E0409121
:101F9000820164E871E08091A4010E94A010109277
:101FA000830110928201109281010F9108958F9206
:101FB0009F92AF92BF92CF92DF92EF92FF920F93D8
:101FC0001F93CF93DF93EC01F62ED42E48015901D5
:101FD000EE2019F10E94B80F1E2D143008F013E006
:101FE0001150B8F0E881F98128E0129FB001112466
:101FF000A501940104C056954795379527956A9594
:10200000D2F7CA01B9010190F081E02DCE01099506
:10201000E7CF60E0CE010E94C40F4D2D413208F0A1
:1020200040E22C2D67EA71E08F2D0E945B10109228
:10203000A6018093A501DF91CF911F910F91FF9091
:10204000EF90DF90CF90BF90AF909F908F900895CA
:10205000CF92EF920F931F93C22EE12C00E010E07D
:1020600098010E94D70F1F910F91EF90CF90089584
:1020700021E00C94281021E00C94281061E00C94CD
:10208000C40F85E791E00C949E0F1092340281E01A
:10209000809332021092310261E081E10E9491133B
:1020A00061E080E10E9491130898099888E480B962
:1020B00085E486BF0895413208F040C09091340213
:1020C0009111FCCF91E090933402209332022FEFD4
:1020D0002093C70110920C02240F20930B029093BF
:1020E000330290913302880F892B809333028091C1
:1020F0003102813051F4109231028091330283B960
:1021000006B603FCFACF85EC01C085EE86BF809150
:1021100034028130E1F380910C02841710F4409175
:102120000C022DE032E0FB01D9018A2F821B8417BB
:1021300018F48D918193F9CF842F089580E008954C
:102140000F93413208F047C0909134029111FCCFB7
:1021500092E090933402009332029FEF9093C70174
:1021600010920C0240930B02FB016DE072E0DB0168
:102170009A2F961B941718F491919D93F9CF109272
:10218000330290913302880F892B80933302809120
:102190003102813051F4109231028091330283B9BF
:1021A00006B603FCFACF85EC01C085EE86BF22237C
:1021B00021F0809134028230E1F38091C7018F3F9A
:1021C00061F08091C701803251F08091C701803366
:1021D00041F483E007C081E005C080E003C082E0F5
:1021E00001C084E00F910895613298F42091340287
:1021F000243089F46093E901FC018BEE91E0DC016D
:102200002A2F281B261718F421912D93F9CF80E04F
:10221000089581E0089582E0089585ED86BF06B6B1
:1022200004FCFDCF10923402089585EC86BF109215
:10223000340208951F920F920FB60F9211242F931C
:102240003F934F935F936F937F938F939F93AF933E
:10225000BF93EF93FF9381B1887F803609F49BC0D1
:1022600078F5883209F45DC090F4803109F456C0E5
:1022700038F4882309F4EEC0883009F44FC0EEC06A
:10228000883109F44EC0803209F45EC0E7C0803462
:1022900009F468C058F4803309F456C0883309F053
:1022A000DDC08093C7010E941511D8C0803509F4A4
:1022B0004EC0883509F45BC0883409F0CFC0CCC06B
:1022C000883909F4BFC0A8F4883709F464C038F429
:1022D000883609F460C0803709F45DC0BFC0883813
:1022E00009F4B0C0803909F45CC0803809F0B6C088
:1022F00058C0803B09F47FC038F4803A09F462C0CA
:10230000883A09F478C0AAC0803C09F49EC0883C91
:1023100009F49BC0883B09F483C0A0C080913302BC
:1023200010C090910C0280910B02981758F5E09123
:102330000C0281E08E0F80930C02F0E0E35FFD4F12
:10234000808183B985EC7FC08093C70185C0E0910F
:102350000C0281E08E0F80930C0283B1F0E0E35F0A
:10236000FD4F808390910C0280910B0268C0E09138
:102370000C0281E08E0F80930C0283B1F0E0E35FEA
:10238000FD4F808380913202811166C081E080938D
:10239000310284EA5BC083E0809334021092C8016A
:1023A000D1CF8091C801803208F04CC0E091C801C3
:1023B00081E08E0F8093C80183B1F0E0E753FE4FB8
:1023C0008083C0CF0E9415118091C801803230F403
:1023D000E091C801F0E0E753FE4F10826091C80120
:1023E00070E0E0912D02F0912E0289EC91E00995C8
:1023F0001092C80133C084E0809334021092EA0145
:102400001092E901E0912F02F0913002099580913C
:10241000E901811105C081E08093E9011092EB018F
:10242000E091EA0181E08E0F8093EA01F0E0E5514E
:10243000FE4F808183B99091EA018091E90198175C
:1024400008F480CF85E886BF09C085EC86BF10926E
:10245000340204C01092C7010E940D11FF91EF9148
:10246000BF91AF919F918F917F916F915F914F91AC
:102470003F912F910F900FBE0F901F9018951F92B4
:102480000F920FB60F9211242F933F938F939F9328
:10249000AF93BF938091360290913702A09138029A
:1024A000B09139023091350223E0230F2D3720F40B
:1024B0000196A11DB11D05C026E8230F0296A11D9E
:1024C000B11D209335028093360290933702A0937A
:1024D0003802B093390280913A0290913B02A09168
:1024E0003C02B0913D020196A11DB11D80933A02BC
:1024F00090933B02A0933C02B0933D02BF91AF91F9
:102500009F918F913F912F910F900FBE0F901F9031
:1025100018952FB7F8946091360270913702809128
:102520003802909139022FBF08953FB7F8948091F7
:102530003A0290913B02A0913C02B0913D0222B739
:1025400008B600FE05C02F3F19F00196A11DB11D70
:102550003FBF6627782F892F9A2F620F711D811D2B
:10256000911D42E0660F771F881F991F4A95D1F78A
:1025700008958F929F92AF92BF92CF92DF92EF9287
:10258000FF926B017C010E9495124B015C01C1140A
:10259000D104E104F104F1F00E9447170E94951262
:1025A000681979098A099B09683E7340810591057C
:1025B00070F321E0C21AD108E108F10888EE880E14
:1025C00083E0981EA11CB11CC114D104E104F104E4
:1025D00029F7DDCFFF90EF90DF90CF90BF90AF90C5
:1025E0009F908F9008958230910538F0880F991F41
:1025F000880F991F05970197F1F70895789483B78D
:10260000826083BF83B7816083BF83B7806483BFE9
:1026100083B7886083BF89B7816089BF1EBC8EB5D0
:1026200082608EBD8EB581608EBD8FB581608FBD9D
:1026300085B5846085BD85B5806485BD329A319A43
:10264000309A379A1AB80895883028F0883110F0F7
:10265000885101C08FEF87702091700090E4299F0E
:1026600090011124822B87B9369A3699FECF84B116
:1026700025B190E0922B0895843059F028F48130F0
:1026800099F0823089F00895853031F0873041F03B
:1026900008958FB58F7702C08FB58F7D8FBD089558
:1026A00085B58F7D85BD089583B78F7D83BF0895E0
:1026B000CF93DF9390E0FC01EA50FE4F2491FC01A0
:1026C000EA5EFD4F8491882349F190E0880F991FBD
:1026D000FC01E65BFD4FA591B491805C9D4FFC0130
:1026E000C591D4919FB7611108C0F8948C91209541
:1026F00082238C93888182230AC0623051F4F8943B
:102700008C91322F309583238C938881822B888300
:1027100004C0F8948C91822B8C939FBFDF91CF9152
:1027200008950F931F93CF93DF931F92CDB7DEB71A
:10273000282F30E0F901EA52FE4F8491F901EA5066
:10274000FE4F1491F901EA5EFD4F04910023C9F098
:10275000882321F069830E943C136981E02FF0E017
:10276000EE0FFF1FE05CFD4FA591B4919FB7F89469
:102770008C91611103C01095812301C0812B8C9332
:102780009FBF0F90DF91CF911F910F910895CF932D
:10279000DF93282F30E0F901EA52FE4F8491F901CE
:1027A000EA50FE4FD491F901EA5EFD4FC491CC236B
:1027B00091F081110E943C13EC2FF0E0EE0FFF1F0F
:1027C000EA5CFD4FA591B4912C912D2381E090E01E
:1027D00021F480E002C080E090E0DF91CF91089585
:1027E000FC01818D228D90E0805C9F4F821B9109BE
:1027F0008F7399270895FC01918D828D981731F080
:10280000828DE80FF11D858D90E008958FEF9FEF89
:102810000895FC01918D828D981761F0828DDF0102
:10282000A80FB11D5D968C91928D9F5F9F73928FC3
:1028300090E008958FEF9FEF08958FE895E1892B41
:1028400049F080E090E0892B29F00E948F158111DA
:102850000C9400000895FC01848DDF01A80FB11DC8
:10286000A35ABF4F2C91848D90E001968F739927C6
:10287000848FA689B7892C93A089B1898C918064B3
:102880008C93938D848D981306C00288F389E02D74
:1028900080818F7D80830895CF93DF93EC01888DB5
:1028A0008823C9F0EA89FB89808185FD05C0A88954
:1028B000B9898C9186FD0FC00FB607FCF5CF8081DA
:1028C00085FFF2CFA889B9898C9185FFEDCFCE0124
:1028D0000E942B14E7CFDF91CF910895CF92DF9222
:1028E000FF920F931F93CF93DF931F92CDB7DEB765
:1028F0006C0181E0D60158968C9358975B969C9119
:102900005B975C968C915C97981307C05096ED91FD
:10291000FC915197808185FD2EC0F601038D10E05A
:102920000F5F1F4F0F731127F02EF601848DF812E1
:1029300011C00FB607FCF9CFD6015096ED91FC916E
:102940005197808185FFF1CFC60169830E942B14C6
:102950006981EBCF838DE80FF11DE35AFF4F608350
:10296000D6015B960C935B975296ED91FC91539731
:10297000808180620CC0D6015696ED91FC915797EC
:1029800060835096ED91FC915197808180648083A3
:1029900081E090E00F90DF91CF911F910F91FF9018
:1029A000DF90CF900895BF92CF92DF92EF92FF9287
:1029B000CF93DF93EC016A017B01B22EE889F9899C
:1029C00082E08083411581EE580761057105A1F011
:1029D00060E079E08DE390E0A70196010E94E01AA3
:1029E0002150310941095109569547953795279549
:1029F000211580E1380798F0E889F989108260E8AC
:102A000074E88EE190E0A70196010E94E01A21503F
:102A10003109410951095695479537952795EC8518
:102A2000FD853083EE85FF852083188E8B2D806891
:102A3000EC89FD898083EA89FB89808180618083BC
:102A4000EA89FB89808188608083EA89FB898081AB
:102A500080688083EA89FB8980818F7D8083DF9114
:102A6000CF91FF90EF90DF90CF90BF9008951F928D
:102A70000F920FB60F9211242F938F939F93EF9382
:102A8000FF93E0914E02F0914F028081E091540259
:102A9000F091550282FD12C09081809157028F5FA4
:102AA0008F7320915802821751F0E0915702F0E0A5
:102AB000E25CFD4F958F8093570201C08081FF91AA
:102AC000EF919F918F912F910F900FBE0F901F90BC
:102AD00018951F920F920FB60F9211242F933F93C8
:102AE0004F935F936F937F938F939F93AF93BF9316
:102AF000EF93FF938EE392E00E942B14FF91EF91EE
:102B0000BF91AF919F918F917F916F915F914F9105
:102B10003F912F910F900FBE0F901F9018958EE34D
:102B200092E00E94F01321E0892B09F420E0822F2B
:102B30000895109241021092400288EE93E0A0E0C6
:102B4000B0E08093420290934302A0934402B0937A
:102B500045028BE191E090933F0280933E0280E436
:102B600090E090934B0280934A0229E230E0309348
:102B70004D0220934C022BE230E030934F02209321
:102B80004E022AE230E0309351022093500290939B
:102B90005302809352028CE290E09093550280930E
:102BA0005402109257021092580210925902109239
:102BB0005A020895CF92DF92EF92FF920F931F93E4
:102BC000CF93DF937C016A01EB0100E010E00C156C
:102BD0001D0571F06991D701ED91FC910190F08193
:102BE000E02DC7010995892B19F00F5F1F4FEFCF1B
:102BF000C801DF91CF911F910F91FF90EF90DF906F
:102C0000CF9008956115710581F0DB010D900020D2
:102C1000E9F7AD0141505109461B570BDC01ED911D
:102C2000FC910280F381E02D099480E090E008950A
:102C30000C940216DC01ED91FC910190F081E02DE5
:102C4000099467E271E00C9402160F931F93CF93DF
:102C5000DF93EC010E9402168C01CE010E94211626
:102C6000800F911FDF91CF911F910F9108958F9247
:102C70009F92AF92BF92DF92EF92FF920F931F93BA
:102C8000CF93DF93CDB7DEB7A1970FB6F894DEBF31
:102C90000FBECDBF7C01F42FD52ECB0119A222305F
:102CA00008F42AE08E010F5D1F4F822E912CA12C7B
:102CB000B12C6F2F7D2DA50194010E94E01AF22FF7
:102CC000D32ECA01015011096A3014F4E0E301C0A7
:102CD000E7E3E60FD801EC93232B242B252B49F7B0
:102CE000B801C7010E940216A1960FB6F894DEBF84
:102CF0000FBECDBFDF91CF911F910F91FF90EF904D
:102D0000DF90BF90AF909F908F900895CF92DF9209
:102D1000EF92FF920F931F93CF93DF93EC016A0121
:102D20007B012115310579F4E881F9810190F08169
:102D3000E02D642FDF91CF911F910F91FF90EF90C5
:102D4000DF90CF9009942A303105E9F477FF1AC05B
:102D50006DE20E941A168C0144275527BA014C19BE
:102D60005D096E097F092AE0CE010E943716800FA7
:102D7000911FDF91CF911F910F91FF90EF90DF9006
:102D8000CF9008952AE0B701A601CE01DF91CF913F
:102D90001F910F91FF90EF90DF90CF900C9437161A
:102DA0009A01AB01662757FD6095762F0C94861625
:102DB0000F931F93CF93DF93EC019A01AB0166272A
:102DC00057FD6095762F0E9486168C01CE010E94D9
:102DD0002116800F911FDF91CF911F910F910895C0
:102DE0004F925F926F927F92AF92BF92CF92DF929B
:102DF000EF92FF920F931F93CF93DF93CDB7DEB780
:102E000029013A01621B730B840B950B29893A89BE
:102E10004B895C892A193B094C095D09298B3A8B3E
:102E20004B8B5C8B9B01AC0169897A898B899C896E
:102E30000E94C41AE418F50806091709A8019701A9
:102E40000E94021B2A0D3B1D4C1D5D1DCA01B901CC
:102E5000DF91CF911F910F91FF90EF90DF90CF9076
:102E6000BF90AF907F906F905F904F9008950895BE
:102E70000E94FE120E9437170E945701CDE1D4E153
:102E80000E9465042097E1F30E941D14F9CF089574
:102E90005058BB27AA270ED075C166D130F06BD130
:102EA00020F031F49F3F11F41EF45BC10EF4E09565
:102EB000E7FB51C1E92F77D180F3BA176207730797
:102EC0008407950718F071F49EF58FC10EF4E09514
:102ED0000B2EBA2FA02D0B01B90190010C01CA01D4
:102EE000A0011124FF27591B99F0593F50F4503E7F
:102EF00068F11A16F040A22F232F342F4427585F71
:102F0000F3CF469537952795A795F0405395C9F788
:102F10007EF41F16BA0B620B730B840BBAF0915040
:102F2000A1F0FF0FBB1F661F771F881FC2F70EC0DF
:102F3000BA0F621F731F841F48F4879577956795B2
:102F4000B795F7959E3F08F0B3CF9395880F08F09B
:102F50009927EE0F979587950895D9D008F481E0C9
:102F600008950CD00FC107D140F0FED030F021F40D
:102F70005F3F19F0F0C0511139C1F3C014D198F37B
:102F80009923C9F35523B1F3951B550BBB27AA27EA
:102F900062177307840738F09F5F5F4F220F331F5C
:102FA000441FAA1FA9F333D00E2E3AF0E0E830D028
:102FB00091505040E695001CCAF729D0FE2F27D02B
:102FC000660F771F881FBB1F261737074807AB07F9
:102FD000B0E809F0BB0B802DBF01FF2793585F4F6E
:102FE0002AF09E3F510568F0B6C000C15F3FECF388
:102FF000983EDCF3869577956795B795F7959F5F33
:10300000C9F7880F911D9695879597F90895E1E086
:10301000660F771F881FBB1F621773078407BA07E5
:1030200020F0621B730B840BBA0BEE1F88F7E09540
:10303000089504D06894B111D9C00895BCD088F027
:103040009F5790F0B92F9927B751A0F0D1F0660F94
:10305000771F881F991F1AF0BA95C9F712C0B130AF
:1030600081F0C3D0B1E00895C0C0672F782F8827C2
:10307000B85F39F0B93FCCF3869577956795B395EE
:10308000D9F73EF490958095709561957F4F8F4F5D
:103090009F4F0895E89409C097FB3EF49095809562
:1030A000709561957F4F8F4F9F4F9923A9F0F92F0E
:1030B00096E9BB279395F695879577956795B7958C
:1030C000F111F8CFFAF4BB0F11F460FF1BC06F5F72
:1030D0007F4F8F4F9F4F16C0882311F096E911C084
:1030E000772321F09EE8872F762F05C0662371F0A5
:1030F00096E8862F70E060E02AF09A95660F771FB9
:10310000881FDAF7880F9695879597F90895990F94
:103110000008550FAA0BE0E8FEEF16161706E807A1
:10312000F907C0F012161306E407F50798F0621BC2
:10313000730B840B950B39F40A2661F0232B242B97
:10314000252B21F408950A2609F4A140A6958FEFB6
:10315000811D811D089597F99F6780E870E060E008
:1031600008959FEF80EC089500240A941616170620
:1031700018060906089500240A9412161306140668
:1031800005060895092E0394000C11F4882352F0CB
:10319000BB0F40F4BF2B11F460FF04C06F5F7F4F83
:1031A0008F4F9F4F089557FD9058440F551F59F06A
:1031B0005F3F71F04795880F97FB991F61F09F3F24
:1031C00079F087950895121613061406551FF2CF4D
:1031D0004695F1DF08C0161617061806991FF1CF9D
:1031E00086957105610508940895E894BB276627C4
:1031F0007727CB0197F908950BD0C4CFB5DF28F01E
:10320000BADF18F0952309F0A6CFABCF1124EECF8B
:10321000CADFA0F3959FD1F3950F50E0551F629F31
:10322000F001729FBB27F00DB11D639FAA27F00D1F
:10323000B11DAA1F649F6627B00DA11D661F829F46
:103240002227B00DA11D621F739FB00DA11D621F2B
:10325000839FA00D611D221F749F3327A00D611D48
:10326000231F849F600D211D822F762F6A2F11242A
:103270009F5750408AF0E1F088234AF0EE0FFF1F7D
:10328000BB1F661F771F881F91505040A9F79E3FB4
:10329000510570F060CFAACF5F3FECF3983EDCF3AE
:1032A000869577956795B795F795E7959F5FC1F7F1
:1032B000FE2B880F911D9695879597F90895FA0131
:1032C000EE0FFF1F30962105310599F1611571054B
:1032D00061F48038BFE39B0749F168949038810519
:1032E00061F08038BFEF9B0741F0992342F5FF3F23
:1032F000E1053105210511F1E8940894E795D9011C
:10330000AA2329F4AB2FBE2FF85FD0F310C0FF5FC4
:1033100070F4A695E0F7F73950F019F0FF3A38F459
:103320009F779F930CD00F9007FC905808953EF024
:1033300018CF60E070E080E89FE308954FE79F7743
:103340005F934F933F932F939ED02F913F914F9137
:103350005F9152DF05C019F40EF0FDCE46CF01CFCC
:103360002ADFC8F39638C0F707F80F92E8942BE3EA
:103370003AEA48EB5FE74EDF0F920F920F924DB79C
:103380005EB70F92C0D0E4E5F0E016D04F915F91A8
:10339000EF91FF91E595EE1FFF1F49F0FE57E068A2
:1033A0004427EE0F441FFA95E1F74195550B32D0B3
:1033B0000F9007FE26C00895DF93CF931F930F93BE
:1033C000FF92EF92DF927B018C01689405C0DA2EA8
:1033D000EF011EDFFE01E894A591259135914591FD
:1033E0005591AEF3EF0166DDFE019701A801DA9475
:1033F00079F7DF90EF90FF900F911F91CF91DF91C0
:1034000008959B01AC0160E070E080E89FE3A9CDE6
:10341000A2CEACC0D0DEE8F39923D9F3940F511DAE
:10342000BBF39150504094F059F0882332F0660F6E
:10343000771F881F91505040C1F79E3F510544F7B8
:10344000880F911D9695879597F908955F3FACF089
:10345000983E9CF0BB27869577956795B79508F4BD
:10346000B1609395C1F7BB0F58F711F460FFE8CF37
:103470006F5F7F4F8F4F9F4FE3CFB8CE0EF076C078
:1034800070CE689468CE97DEC8F39923D1F3C6F363
:10349000DF93CF931F930F93FF92C92FDD278823CC
:1034A0002AF02197660F771F881FDAF720E030E0B7
:1034B00040E85FEB9FE3883920F0803E30F02196B2
:1034C0008F77E7DCECE7F0E003C0E3DCE9EAF0E06B
:1034D00073DF8B01BE01EC01FB2E6F5771097595EF
:1034E000771F880B990BD8DD28E132E741E35FE3D2
:1034F0008FDEAF2D9801AE01FF900F911F91CF91FC
:10350000DF91D8DC3FCEFA01DC01AA0FBB1F9B0183
:10351000AC01BF5728F422273327442750781FC017
:10352000B75188F4AB2F0024469537952795011C99
:10353000A395D2F3002069F0220F331F441FB395E7
:10354000DAF30DD0A5CC61307105A0E88A07B94641
:1035500030F49B01AC016627772788279078309656
:1035600021F0208331834283538308959F3F31F0BC
:10357000915020F4879577956795B795880F911DA1
:103580009695879597F90895DB018F939F930E94F5
:10359000361BBF91AF91A29F800D911DA39F900DEF
:1035A000B29F900D11240895991B79E004C0991FD2
:1035B000961708F0961B881F7A95C9F7809508958D
:1035C000A1E21A2EAA1BBB1BFD010DC0AA1FBB1F27
:1035D000EE1FFF1FA217B307E407F50720F0A21B99
:1035E000B30BE40BF50B661F771F881F991F1A9406
:1035F00069F760957095809590959B01AC01BD0130
:10360000CF010895052E97FB1EF400940E94191B0C
:1036100057FD07D00E94E01A07FC03D04EF40C942B
:10362000191B50954095309521953F4F4F4F5F4F57
:10363000089590958095709561957F4F8F4F9F4F1E
:103640000895EE0FFF1F0590F491E02D0994A29FBD
:10365000B001B39FC001A39F700D811D1124911D66
:10366000B29F700D811D1124911D08950E94271B8A
:10367000A59F900DB49F900DA49F800D911D1124C6
:063680000895F894FFCF4D
:103686000000DB02800001000000F40100000900D8
:10369600015374617274696E672E2E2E005245476F
:1036A6003D00202D2000202D2056414C3D00525734
:1036B6002044657465637465640053657474696E4B
:1036C6006720484F55520053657474696E67204DE4
:1036D600494E5554450053657474696E67205345C9
:1036E600434F4E440053657474696E6720444159D4
:1036F6000053657474696E67204D4F4E54480053ED
:10370600657474696E672059454152005265737538
:103716006D696E67206E6F726D616C206F70657279
:103726006174696F6E7300000000006F0F420F171F
:103736000F1F0F320F410F000000006E14DA15F054
:10374600130914FB134C140D0A006E616E00696EAA
:0637560066006F766600BC
:00000001FF
