:1000000002C100000C94AF0A0C94840A0C94590AA3
:100010000C942E0A0C94030A0C94D8090C94AD0984
:100020000C94820921C100001FC100001DC1000005
:100030001BC1000019C1000017C1000015C100005C
:1000400013C1000011C100000FC100000DC100006C
:100050000BC1000009C1000007C100000C94380961
:1000600003C100000C9402090C94D908FDC00000E3
:10007000FBC00000F9C00000F7C00000F5C00000A0
:10008000F3C00000F1C00000EFC00000EDC00000B0
:10009000EBC00000E9C00000E7C00000E5C00000C0
:1000A000E3C00000E1C00000DFC00000DDC00000D0
:1000B000DBC00000D9C00000D7C00000D5C00000E0
:1000C000D3C00000D1C00000CFC00000CDC00000F0
:1000D000CBC00000C9C00000C7C00000C5C0000000
:1000E000C3C0000000002100240027002A002D00CA
:1000F0003000330001010000040107010A01000083
:100100002200250028002B002E00310034000201BF
:100110000000050108010B0100002000230026005B
:1001200029002C002F00320000010000030106010D
:10013000090105050505070508080808020202026D
:100140000A0A080804040404010101010101010173
:100150000303030303030303040707070C0C0C0C3E
:100160000C0C0C0C02020202060606060606060627
:100170000B0B0B0B0B0B0B0B0102102020080810B4
:100180002040102040800201020108040201010207
:1001900004081020408080402010080402018004E0
:1001A000020180402010080402010804020101023B
:1001B0000408102040800102040810204080000044
:1001C0000A0B02090C0D0E080703040100000000D1
:1001D000000000000000000000000000000000001F
:1001E00000000000000000000000121110000000DC
:1001F00000000000000000000000000000000000FF
:1002000000000000DA0A11241FBECFEFD1E2DEBFEA
:10021000CDBF00E00CBF10E1A0E0B2E0E8E0F4E206
:1002200000E00BBF02C007900D92A635B107D9F7C9
:1002300021E1A6E5B0E101C01D92A332B207E1F7CA
:1002400011E0C3E0D1E000E006C021970109802F52
:10025000FE010E94320FC230D10780E00807A9F7E3
:100260000E94230B0C940212CBCEAF92BF92CF927E
:10027000DF92EF92FF920F931F93CF93DF936C0166
:100280007B018B01040F151FEB015E01AE18BF0847
:10029000C017D10759F06991D601ED91FC910190F9
:1002A000F081E02DC6011995892B79F7C501DF9101
:1002B000CF911F910F91FF90EF90DF90CF90BF9063
:1002C000AF900895FC01538D448D252F30E0842F8D
:1002D00090E0821B930B541710F0CF96089501976E
:1002E0000895FC01918D828D981761F0A28DAE0F5B
:1002F000BF2FB11D5D968C91928D9F5F9F73928FE2
:1003000090E008958FEF9FEF0895FC01918D828D0D
:10031000981731F0828DE80FF11D858D90E00895DA
:100320008FEF9FEF0895FC01918D228D892F90E032
:10033000805C9F4F821B91098F73992708958EE6E9
:1003400090E1F1DF21E0892B09F420E0822F08956C
:10035000FC01A48DA80FB92FB11DA35ABF4F2C913A
:10036000848D90E001968F739927848FA689B78931
:100370002C93A089B1898C91837080648C93938D28
:10038000848D981306C00288F389E02D80818F7DCB
:1003900080830895EF92FF920F931F93CF93DF9383
:1003A000EC0181E0888F9B8D8C8D98131AC0E889B1
:1003B000F989808185FF15C09FB7F894EE89FF8980
:1003C0006083E889F98980818370806480839FBF1E
:1003D00081E090E0DF91CF911F910F91FF90EF901E
:1003E0000895F62E0B8D10E00F5F1F4F0F7311272E
:1003F000E02E8C8D8E110BC00FB607FCFACFE8896A
:10040000F989808185FFF5CFCE01A2DFF2CFEB8D98
:10041000EC0FFD2FF11DE35AFF4FF0829FB7F894C8
:100420000B8FEA89FB8980818062D0CFCF93DF93E5
:10043000EC01888D8823B1F0AA89BB89E889F98904
:100440008C9185FD03C0808186FD0CC00FB607FC32
:10045000F7CF8C9185FFF2CF808185FFEDCFCE0164
:1004600077DFEACFDF91CF91089580E090E0892B8C
:1004700021F065DF81110E94000080E090E0892B6F
:1004800049F080E090E0892B29F00E940000811162
:100490000E94000080E090E0892B49F080E090E02D
:1004A000892B29F00E94000081110E94000080E049
:1004B00090E0892B49F080E090E0892B29F00E94A0
:1004C000000081110C94000008958150823108F0E1
:1004D0005AC0E82FF0E08827EF58FD4F8F4F0C945B
:1004E000320F91029502830289028D02C3029802A3
:1004F0009E02A202A802AC02B002B602BA02C30275
:10050000BE02C402C802809180008F778093800071
:100510000895809180008F7DF9CF80918000877F42
:10052000F5CF84B58F7784BD089584B58F7DFBCFDB
:100530008091B0008F778093B00008958091B000D3
:100540008F7DF9CF809190008F77809390000895F0
:10055000809190008F7DF9CF80919000877FF5CFBB
:100560008091A0008F778093A00008958091A000D3
:100570008F7DF9CF8091A000877FF5CF80912001FA
:100580008F77809320010895809120018F7DF9CF8E
:1005900080912001877FF5CFCF93DF93282F30E024
:1005A000F901E254FE4F8491F901E858FE4FD491CD
:1005B000F901EE5CFE4FC491CC2399F0811185DFE7
:1005C000EC2FF0E0EE0FFF1FE85EFE4FA591B49117
:1005D000EC91ED2381E090E009F480E0DF91CF9190
:1005E000089580E090E0FACF1F93CF93DF93282FF8
:1005F00030E0F901E254FE4F8491F901E858FE4FD2
:10060000D491F901EE5CFE4FC491CC23A1F0162FDA
:1006100081115BDFEC2FF0E0EE0FFF1FE250FF4F88
:10062000A591B4918FB7F894EC91111108C0D095B1
:10063000DE23DC938FBFDF91CF911F910895DE2BD6
:10064000F8CFCF93DF9390E0FC01E858FE4F249160
:100650008E5C9E4FFC0184918823D1F090E0880F3E
:10066000991FFC01EC51FF4FA591B491FC01E250A0
:10067000FF4FC591D49161110EC09FB7F8948C9132
:10068000E22FE0958E238C932881E223E8839FBF9D
:10069000DF91CF9108958FB7F894EC91E22BEC9312
:1006A0008FBFF6CF3FB7F8948091571090915810B4
:1006B000A0915910B0915A1026B5A89B05C02F3FA4
:1006C00019F00196A11DB11D3FBFBA2FA92F982F78
:1006D0008827BC01CD01620F711D811D911D42E073
:1006E000660F771F881F991F4A95D1F708958F923B
:1006F0009F92AF92BF92CF92DF92EF92FF926B01E7
:100700007C01D0DF4B015C01C114D104E104F10490
:10071000B1F0C8DF681979098A099B09683E7340FE
:100720008105910588F321E0C21AD108E108F1089A
:1007300088EE880E83E0981EA11CB11CE5CFFF90C7
:10074000EF90DF90CF90BF90AF909F908F900895E3
:100750000895089590E080E0089561E085E471DFF8
:1007600061E085E441DF6EE170E080E090E0BFDFB2
:1007700060E085E466DF10926310109262100895C5
:1007800060E08BE131DF61E089E12ECF60E089E15B
:100790002BDF61E08BE128CF80917B00877F809306
:1007A0007B0080E480937C0080917A008064809359
:1007B0007A0080917A0086FDFCCF9091780080913C
:1007C00079008927982789278E3191058CF0843B01
:1007D00091058CF0883621E0920784F0873122E081
:1007E00092077CF0883F92407CF08FEF9FEF089556
:1007F00090E080E0089581E090E0089582E090E04C
:10080000089583E090E0089584E090E0089587E102
:10081000C3DE019739F4BADF64E670E080E090E06F
:1008200066DFAECF0895CF93DF93EC0160E08E8159
:10083000DBDE61E08E81D8DE60E08E81D5DE8BE884
:1008400091E00197F1F7DF91CF910895CF92DF9278
:10085000EF92FF920F931F93CF93DF936C017C0174
:1008600087E0E80EF11CD0E0C0E0062F10E0B801F0
:100870000C2E02C0759567950A94E2F76170F70136
:1008800081917F01B1DE2196C430D10581F7C60187
:10089000DF91CF911F910F91FF90EF90DF90CF905C
:1008A000C2CFCF92DF92EF92FF920F931F93CF931D
:1008B000DF93EC01F62E642F8C8196DE8D818F3FC5
:1008C00011F060E091DE0F2D10E08F8584FF23C0D2
:1008D0006E0187E0C80ED11CF12CE12CB8010E2C62
:1008E00002C0759567950A94E2F76170F6018191EF
:1008F0006F017ADEFFEFEF1AFF0A88E0E816F104D5
:1009000069F7CE01DF91CF911F910F91FF90EF908A
:10091000DF90CF9088CFB80184E0759567958A9570
:10092000E1F7CE0193DF6F2DCE01DF91CF911F91C3
:100930000F91FF90EF90DF90CF9088CF40E0682F2D
:100940008BE091E1AECF90911E11691710F06FEF1F
:10095000690FE62FF0E0E55FFE4E9489890F80680D
:10096000EDCFCF93DF93823029F490911A119860E4
:1009700090931A1180931E1110921F1180E480939E
:10098000201180E18093211180E58093221161E0A4
:1009900080910F1156DE809110118F3F11F061E0B0
:1009A00050DE61E0809111114CDECBE0D1E19E017F
:1009B0002B50314180911A1184FD0AC084E090E0EF
:1009C0002196281739073CF461E08E813ADEEFCF9B
:1009D00088E090E0F5CF8BE39DE00197F1F760E0D0
:1009E00080910F1101DE60E080911111FDDD809199
:1009F00010118F3F11F060E0F7DD80911A1184FD36
:100A000031C063E08BE091E121DFCBE4D6E4CE019D
:100A10000197F1F763E08BE091E118DF2197F1F79F
:100A200063E08BE091E112DF83E592E00197F1F75B
:100A300062E08BE091E10ADF80911A1180627EDF33
:100A400084E080931B118CE079DF81E077DF8BE31A
:100A50009FE10197F1F782E080931C1186E0DF911E
:100A6000CF916CCF80626ADF8BE496E40197F1F757
:100A700080911A11806262DF83E592E00197F1F7BD
:100A800080911A1180625ADFD7CF41E00ADF81E0FE
:100A900090E00895FB0101900020E9F73197AF0144
:100AA000461B570BDC01ED91FC910280F381E02D98
:100AB00019946DE17CE08EE690E1ECCFCF93DF936B
:100AC000BC018EE690E1E6DFEC01F3DF8C0F9D1FA9
:100AD000DF91CF91089580E29CE0F0DF86E39CE017
:100AE000EDDF80E29CE0EADFE4DF8CE49CE0E6DF1F
:100AF00086E69CE0E3DFDDDF8AE89CE0DFDFD9DF2C
:100B000088EA9CE0DBDF8BEC9CE0D8DF85E09DE0B1
:100B1000D5DF8AE39DE0D2DF80E69DE0CFDFC9DF4D
:100B20008BE89DE0CBDFC5CF4F925F926F927F92B3
:100B3000AF92BF92CF92DF92EF92FF920F931F93EB
:100B4000CF93DF93CDB7DEB7A1970FB6F894DEBF92
:100B50000FBECDBF5C016A017B01F7FE46C0DC0120
:100B6000ED91FC910190F081E02D6DE219958C01E1
:100B700022273327A9012C193D094E095F0919A223
:100B8000FE01B1967F019AE0492E512C612C712C07
:100B9000CA01B901A30192010E94F40E605DD70160
:100BA0006E937D01211531054105510589F790E0CE
:100BB00080E0109719F0BD01C5016CDF800F911F17
:100BC000A1960FB6F894DEBF0FBECDBFDF91CF91D7
:100BD0001F910F91FF90EF90DF90CF90BF90AF905B
:100BE0007F906F905F904F900895AB01960119A28E
:100BF0008E010F5D1F4F8AE0C82ED12CE12CF12C05
:100C0000CA01B901A70196010E94F40E605DF801C6
:100C100062938F01211531054105510589F790E057
:100C200080E0309769F2BF01C50134DFC9CF32CF10
:100C30002F923F924F925F926F927F928F929F92EC
:100C4000AF92BF92CF92DF92EF92FF920F931F93DA
:100C5000CF93DF93CDB7DEB72F970FB6F894DEBFF3
:100C60000FBECDBF83E098DC5C0183E295DC3C01E4
:100C70008DE192DC1C018FE18FDC2C010FEE1BE07B
:100C8000F12CE12CF80181918F0186DC6C01AC0123
:100C9000990F660B770B8EE690E146DFEE0CFF1C9A
:100CA000EC0CFD1CFBE00F3F1F0761F762E67EE0E6
:100CB0008EE690E1BCDF97EEC92E9BE0D92E10E0C6
:100CC00000E0F60181916F0167DC4C01AC01990FE6
:100CD000660B770B8EE690E127DF000F111F080DE2
:100CE000191D8FEE9BE08C159D0559F762E67EE09D
:100CF0008EE690E19CDFFE0131966F016A946728D1
:100D000009F047C025E0209FC001219F900D1124CC
:100D10008155994F27E5AB2809F022E75F924F9262
:100D20003F922F929F938F931F922F931F930F9316
:100D3000FF92EF928FEB9DE09F938F93DF92CF9284
:100D40000E943A0F0FB6F894DEBF0FBECDBFC601AA
:100D5000B5DE60E080E0F7DDB6018BE091E167DFB2
:100D60002F960FB6F894DEBF0FBECDBFDF91CF91A7
:100D70001F910F91FF90EF90DF90CF90BF90AF90B9
:100D80009F908F907F906F905F904F903F902F90AB
:100D9000089587E5AB2809F082E75F924F923F9272
:100DA0002F921F930F931F928F931F930F93FF9276
:100DB000EF9289ED9DE0C0CF7CDE67EF7DE08EE6AF
:100DC00090E135DF61E08BE33CDC60E08BE30CDC41
:100DD00064EF71E080E090E08ADC60E08BE331DC7E
:100DE00087E19EE06BCECF93DF93C0916210D091EC
:100DF00063106C2F8EE690E1CDDA2A9731F48DE006
:100E000090E09093631080936210809162109091B3
:100E100063100D9709F44DDE80916210909163107C
:100E20004B9709F49ADC80916210909163104A9775
:100E300009F4C2DFC09162106C2F61708EE3D4DBC5
:100E40006C2F62708FE3D0DB6C2F647080E4CCDB9E
:100E50006C2F687081E4C8DB6C2F607182E4C4DBA6
:100E60006C2F607283E4C0DB6C2F607484E4BCDBA5
:100E700061E070E080E090E03ADC61E08AE3B4DBBE
:100E800065E070E080E090E032DC60E08AE3DF91D2
:100E9000CF91AACB6F927F928F929F92AF92BF9287
:100EA000CF92DF92EF92FF920F931F93CF93DF9336
:100EB000CDB7DEB7C459D4400FB6F894DEBF0FBE2D
:100EC000CDBF4091621050916310052E000C660B4F
:100ED000770B8EE690E128DE8EE19EE0EFDD84E97F
:100EE00094E0EBE1F2E0DE01119601900D920197A2
:100EF000E1F7809162109091631001972AE432E04B
:100F0000829F3001839F700C929F700C112410E01F
:100F100000E09CEFE92EFF24FA942DE0C22ED12CA4
:100F20003AE3A32EB12C40E2842E912CF801E60D79
:100F3000F71D81E090E08C0F9D1FE80FF91F808165
:100F4000082E000C990B9093631080936210892BEC
:100F500009F433C048DF9FEFE91AF90AF701339724
:100F6000EF30F105F0F48827E854F84F8F4F7AC737
:100F7000C707D107C707D107C707D107C707D107D9
:100F8000C707D107C707D107C707D107070890923E
:100F900063108092621064E170E080E090E0A7DB73
:100FA00022DF64E170E080E090E0A1DB0F5F1F4F83
:100FB0000A3482E0180709F0B9CF8DE090E09093F1
:100FC00063108093621064E170E080E090E08FDB5A
:100FD0000ADF10926110109260106BDD81E39EE0D9
:100FE0006DDDCC56DB4F0FB6F894DEBF0FBECDBF24
:100FF000DF91CF911F910F91FF90EF90DF90CF90F5
:10100000BF90AF909F908F907F906F9052CDD09275
:101010006310C0926210E7DE6CE870E080E090E060
:1010200066DBB0926310A0926210DDDE64E170E0D6
:1010300080E090E05CDBEE24E394F12CB2CFCF9221
:10104000DF92EF92FF92E0910102F0910202EE0F27
:10105000FF1FE155F44FC080D1800D2C000CEE082D
:10106000FF08C0926510D0926610E0926710F0926F
:10107000681062E087E067DCB701A6018BE091E1D0
:1010800053DD6CE57EE08BE091E1FF90EF90DF9027
:10109000CF90CDCD87E180DA019789F4809101026C
:1010A00090910202019797FD05C0909302028093F0
:1010B0000102C5CF1092020210920102FACF0895E8
:1010C00087E16ADA019781F480910102909102022E
:1010D00001968C3191052CF49093020280930102C9
:1010E000AECF8BE190E0F8CF089562E080E02BDC9A
:1010F00080910002882359F061E085E275DA65E6A7
:101100007EE08BE091E193DD86E79EE0D7CC60E066
:1011100085E26ADA61E97EE08BE091E188DD81EACF
:101120009EE0F4CFCF9387E137DA0197D9F4C091ED
:101130006D1081E0C827C0936D1062E080E003DC91
:10114000C11106C062EC7EE08BE091E170DD18DB3E
:1011500080916D10882371F06AEC7EE08BE091E164
:10116000CF9165CD8091000291E0892780930002A4
:10117000CF91BBCFCF91089562DF62E080E0E3DBE7
:1011800087E10ADA019739F4B0DF81ED9EE096DC61
:1011900060E087E129CA62EC7EE08BE091E147DD07
:1011A00088EE9EE08BDC61E087E11EDA10926D1024
:1011B00008951F920F920FB60F9211240BB60F9243
:1011C0002F933F934F935F936F937F938F939F934F
:1011D000AF93BF93EF93FF938EE690E1B9D8FF9161
:1011E000EF91BF91AF919F918F917F916F915F919F
:1011F0004F913F912F910F900BBE0F900FBE0F900C
:101200001F9018951F920F920FB60F9211240BB6D4
:101210000F922F938F939F93EF93FF93E0917E1004
:10122000F0917F108081E0918410F091851082FD13
:101230001DC09081809187108F5F8F7320918810DF
:10124000821741F0E0918710F0E0E259FF4E958F50
:1012500080938710FF91EF919F918F912F910F9025
:101260000BBE0F900FBE0F901F9018958081F2CF8C
:101270001F920F920FB60F9211242F933F938F93CB
:101280009F93AF93BF9380915C1090915D10A0915C
:101290005E10B0915F103091561023E0230F2D3770
:1012A00058F50196A11DB11D2093561080935C1036
:1012B00090935D10A0935E10B0935F1080915710D3
:1012C00090915810A0915910B0915A100196A11DFB
:1012D000B11D8093571090935810A0935910B0935C
:1012E0005A10BF91AF919F918F913F912F910F9085
:1012F0000FBE0F901F90189526E8230F0296A11D90
:10130000B11DD2CF1F920F920FB60F9211240BB6C0
:101310000F922F933F934F935F936F937F938F938E
:101320009F93AF93BF93EF93FF93E0911102F091DE
:1013300012021995FF91EF91BF91AF919F918F91FB
:101340007F916F915F914F913F912F910F900BBEC5
:101350000F900FBE0F901F9018951F920F920FB60F
:101360000F9211240BB60F922F933F934F935F93DD
:101370006F937F938F939F93AF93BF93EF93FF935D
:10138000E0910F02F09110021995FF91EF91BF913A
:10139000AF919F918F917F916F915F914F913F910D
:1013A0002F910F900BBE0F900FBE0F901F901895AE
:1013B0001F920F920FB60F9211240BB60F922F931C
:1013C0003F934F935F936F937F938F939F93AF93CD
:1013D000BF93EF93FF93E0910502F09106021995F8
:1013E000FF91EF91BF91AF919F918F917F916F91FD
:1013F0005F914F913F912F910F900BBE0F900FBEB9
:101400000F901F9018951F920F920FB60F921124F4
:101410000BB60F922F933F934F935F936F937F93EE
:101420008F939F93AF93BF93EF93FF93E09103024A
:10143000F09104021995FF91EF91BF91AF919F91A7
:101440008F917F916F915F914F913F912F910F906D
:101450000BBE0F900FBE0F901F9018951F920F920A
:101460000FB60F9211240BB60F922F933F934F9309
:101470005F936F937F938F939F93AF93BF93EF93FC
:10148000FF93E0910D02F0910E021995FF91EF91FB
:10149000BF91AF919F918F917F916F915F914F918C
:1014A0003F912F910F900BBE0F900FBE0F901F908A
:1014B00018951F920F920FB60F9211240BB60F9230
:1014C0002F933F934F935F936F937F938F939F934C
:1014D000AF93BF93EF93FF93E0910B02F0910C0257
:1014E0001995FF91EF91BF91AF919F918F917F914E
:1014F0006F915F914F913F912F910F900BBE0F9085
:101500000FBE0F901F9018951F920F920FB60F925B
:1015100011240BB60F922F933F934F935F936F93CA
:101520007F938F939F93AF93BF93EF93FF93E0913C
:101530000902F0910A021995FF91EF91BF91AF91C5
:101540009F918F917F916F915F914F913F912F91DB
:101550000F900BBE0F900FBE0F901F9018951F920B
:101560000F920FB60F9211240BB60F922F933F9349
:101570004F935F936F937F938F939F93AF93BF939B
:10158000EF93FF93E0910702F09108021995FF9104
:10159000EF91BF91AF919F918F917F916F915F91EB
:1015A0004F913F912F910F900BBE0F900FBE0F9058
:1015B0001F901895EEE6F0E11382128288EE93E018
:1015C000A0E0B0E084839583A683B78383E09CE0AA
:1015D0009183808385EC90E09587848784EC90E00C
:1015E0009787868780EC90E0918B808B81EC90E0F0
:1015F000938B828B82EC90E0958B848B86EC90E0D1
:10160000978B868B118E128E138E148EEBE0F1E188
:101610001382128285E19CE09183808388E0848339
:101620008FEF858389E0868384E0878385E08087E8
:1016300086E0818787E08287138614861586168662
:10164000178681E08EC9789484B5826084BD84B5A4
:10165000816084BD85B5826085BD85B5816085BDAD
:1016600080916E00816080936E0010928100809165
:1016700081008260809381008091810081608093ED
:101680008100809180008160809380008091B10012
:1016900084608093B1008091B00081608093B0003D
:1016A000809191008260809391008091910081608F
:1016B0008093910080919000816080939000809150
:1016C000A10082608093A1008091A100816080933D
:1016D000A1008091A00081608093A00080912101F1
:1016E000826080932101809121018160809321019A
:1016F0008091200181608093200180917A00846034
:1017000080937A0080917A00826080937A00809141
:101710007A00816080937A0080917A00806880935B
:101720007A001092C100CFEEDBE00FEF1BE060E02B
:1017300089910E9421030C171D07C9F7C7EEDBE052
:101740000FEE1BE060E089910E9421030C171D073A
:10175000C9F760E082E00E94210360E08DE10E9411
:10176000210360E08FE10E94210360E083E00E949A
:10177000210360E083E20E94210361E085E20E9490
:10178000210360E085E20E94F40260E08BE30E94A6
:10179000210361E08AE00E94210361E087E10E9469
:1017A000210360E087E10E94F40261E089E10E9488
:1017B000210361E08BE10E9421030E94C00361E0EC
:1017C0008EE30E94210361E08FE30E94210361E028
:1017D00080E40E94210361E081E40E94210361E032
:1017E00082E40E94210361E083E40E94210361E01E
:1017F00084E40E94210360E085E40E94210361E00B
:101800008AE30E94210360E08AE30E94F402D4DAB2
:10181000E0917E10F0917F1082E08083E0917A1059
:10182000F0917B101082E0917C10F0917D1080E1AE
:10183000808310928610E0918210F091831086E0F0
:101840008083E0918010F09181108081806180839D
:10185000E0918010F0918110808188608083E09118
:101860008010F0918110808180688083E0918010E9
:10187000F091811080818F7D80832DD982E071D895
:1018800061E08AE00E942103E8ECF1E0E491E1509C
:10189000E23108F05AC2F0E08827EF5AF34F8F4F39
:1018A000E1C2630CF80DFE0D0A0E160EA50E220EF7
:1018B0002B0E340E400E4C0E580E690E750EA50EF2
:1018C000810E8D0E990E84B5806884BD8FEF87BD23
:1018D00060E080E038D862E07FE08BE091E1A7D95A
:1018E00062E080E030D860E17FE08BE091E19FD959
:1018F00088E196E0909304028093030280916A004D
:10190000836080936A00EC9AF0DB8FE19FE0D6D889
:1019100011E084EFC82EDD24D394E12CF12CC4E037
:10192000D0E00E94CC039093160280931502A09001
:101930001302B09014028A159B0509F40BC26AE0E9
:1019400070E080E090E00E9477030E94CC039093C7
:10195000160280931502A816B90641F0909314025E
:1019600080931302019641F110935B108091150250
:10197000909116028F3F9807F9F020915B10222377
:10198000D9F0049709F4F8DB8091150290911602C2
:10199000019709F495DB8091150290911602029748
:1019A00009F478DB8091150290911602833091053D
:1019B00009F0D3C10E94070480916D10882309F4B7
:1019C0003EC087E10E94CC020197C9F58FB7F89419
:1019D00080905C1090905D10A0905E10B0905F10B1
:1019E0008FBF8091691090916A10A0916B10B09197
:1019F0006C1024013501481A590A6A0A7B0A2091A1
:101A00006510309166104091671050916810C701C1
:101A1000B6010CD2421653066406750680F0809219
:101A2000691090926A10A0926B10B0926C10809125
:101A30006410811197C1109364100E94C6038EE652
:101A400090E10E949301181619060CF0C6C0A090F0
:101A50001902B0901A028EE690E10E9471019093F3
:101A6000631080936210099789F587E10E94CC0288
:101A7000892BD9F5882799278A199B0990931A02EF
:101A800080931902AB20A09469F480911702909181
:101A90001802019639F481E49FE010D81092631087
:101AA000109262108091190290911A02019671F4BD
:101AB0008091170290911802019741F48BE69FE004
:101AC0000E945E0510926310109262108091621065
:101AD000909163109C01215631092A31310528F477
:101AE0008097909363108093621080911902909177
:101AF0001A020197A1F480916010909161108330D7
:101B000091056CF420916210309163102E373105ED
:101B100009F02DC10196909361108093601080911F
:101B2000601090916110039751F50E94590585E866
:101B30009FE00E945E050E94590585E99FE00E9492
:101B40005E050E94590588EA9FE00E945E058DECC3
:101B50009FE00E945E050E9459058FED9FE00E9464
:101B60005E0588EF9FE00E945E058AE290E10E9498
:101B70005E050E945905D0936110C093601080915A
:101B800060109091611004977CF0809162109091A8
:101B900063109C012053310930936310209362102D
:101BA000C197029708F476D98091190290911A0290
:101BB000019699F480916210909163108B32910597
:101BC00009F408C10CF0E1C08B31910509F409C199
:101BD0000CF0D3C04A9709F4D6C0809119029091B5
:101BE0001A0290931802809317020E94350299CE30
:101BF00084B5806284BD8FEF88BD6ACE80918000FD
:101C00008068809380008FEF93E0909389008093A9
:101C100088005ECE809180008062809380008FEF8C
:101C200093E090938B0080938A0052CE8091800045
:101C30008860809380008FEF93E090938D00809375
:101C40008C0046CE8091B00080688093B0008FEF0A
:101C50008093B3003DCE8091B00080628093B0004D
:101C60008FEF8093B40034CE809190008068809391
:101C700090008FEF93E0909399008093980028CE86
:101C8000809190008062809390008FEF93E090931A
:101C90009B0080939A001CCE809190008860809376
:101CA00090008FEF93E090939D0080939C0010CE66
:101CB0008091A00080688093A0008091A0008F7B1D
:101CC0008093A0008FEF93E09093A9008093A800E9
:101CD000FFCD8091A00080628093A0008FEF93E001
:101CE0009093AB008093AA00F3CD8091A000886010
:101CF0008093A0008FEF93E09093AD008093AC00B1
:101D0000E7CD809120018068809320018FEF93E0E0
:101D10009093290180932801DBCD8091200180627E
:101D2000809320018FEF93E090932B0180932A0101
:101D3000CFCD809120018860809320018FEF93E0C8
:101D400090932D0180932C01C3CD61E08AE00E9425
:101D5000F402BECD10925B1009CE892B09F02CCE77
:101D6000E1D92ACE109264100E94C00368CE10926E
:101D700061101092601037D8D2CE8032910571F187
:101D8000819709F02ACF18D828CF81349105D9F04E
:101D90004CF48D32910501F1CF9709F01ECF0E94CE
:101DA0006B051BCF8934910531F08335910509F01E
:101DB00014CFE2D912CF87E10E94CC02892B09F01F
:101DC0000CCFB0D90ACF87E10E94CC02019709F06D
:101DD00004CFF7CF75D901CF5DD9FFCE0E9407049C
:101DE000FCCE0E94AD03F9CEA1E21A2EAA1BBB1BAA
:101DF000FD010DC0AA1FBB1FEE1FFF1FA217B307D7
:101E0000E407F50720F0A21BB30BE40BF50B661FEC
:101E1000771F881F991F1A9469F7609570958095B0
:101E200090959B01AC01BD01CF010895052E97FB54
:101E300016F400940FD057FD05D0D6DF07FC02D072
:101E400046F408C050954095309521953F4F4F4F2F
:101E50005F4F089590958095709561957F4F8F4F56
:101E60009F4F0895EE0FFF1F881F8BBF0790F691BD
:101E7000E02D19940F931F93CF93DF93CDB7DEB767
:101E80002E970FB6F894DEBF0FBECDBF0E891F8907
:101E900086E08C831A8309838FEF9FE79E838D836F
:101EA000AE01465E5F4F688D798DCE01019611D0EF
:101EB0002F813885020F131FF80110822E960FB65E
:101EC000F894DEBF0FBECDBFDF91CF911F910F9170
:101ED00008952F923F924F925F926F927F928F92CE
:101EE0009F92AF92BF92CF92DF92EF92FF920F93A9
:101EF0001F93CF93DF9300D000D000D01F921F928A
:101F0000CDB7DEB77C013B018A01FC011782168246
:101F1000838181FFD0C1CE0101965C01F7019381DD
:101F2000F30193FD859193FF81913F01882309F48B
:101F300049C1853239F493FD859193FF81913F0129
:101F4000853221F4B70190E0CFD1E8CF912C212C3C
:101F5000312CFFE1F31538F08B3211F190F480321F
:101F600009F1833229F137FC3CC020ED280F2A30DB
:101F700050F536FE20C08AE0989E200D1124922E46
:101F800006C08D3291F0803371F7689430F8F30118
:101F900093FD859193FF81913F018111DACF21C09B
:101FA000689431F8689432F8F2CF689433F8EFCF40
:101FB000689434F8ECCFEAE02E9E200D1124222EF6
:101FC000689435F8E4CF8E3229F436FCFBC068946F
:101FD00036F8DDCF8C3619F4689437F8D8CF8836C8
:101FE000B1F2982F9F7D95549330D8F0833691F1BC
:101FF0008337B1F1833509F05EC02801F2E04F0E5E
:10200000511CF801C080D180692D70E036FC02C0FF
:102010006FEF7FEFC60152D14C01689437F882010F
:102020000AC00C5F1F4FFFE3F98388248394912C2F
:102030006501E89437F833FE2AC0522C81149104CC
:1020400059F5552009F46ACFB70180E290E04CD1F0
:102050005A94F7CFF801808189830E5F1F4FE5CF37
:102060002801F2E04F0E511CF801C080D180692D8B
:1020700070E036FC02C06FEF7FEFC6012AD14C0141
:102080008201D7CFB70180E290E02ED12A942814A4
:10209000190409F0B8F7D1CFF60137FC859137FE66
:1020A00081916F01B70190E01FD151105A94F1E076
:1020B0008F1A9108C3CF843619F0893609F073C09E
:1020C000F80137FE67C060817181828193810C5F66
:1020D0001F4FF32DFF763F2E97FF09C090958095F7
:1020E000709561957F4F8F4F9F4F689437F82AE026
:1020F00030E0A50129D1C82ECA188C2C432C36FEFD
:102100000CC0E89440F8C91440F434FE05C032FC19
:1021100003C0F32DFE7E4F2E892C44FEA6C0FE0187
:10212000EC0DF11D8081803309F098C0242D297EAB
:10213000422E842D8870582E43FCA5C040FE9FC0BF
:102140009C2C821418F42C0C922C981844FEA1C0DC
:10215000B70180E390E0C8D042FE08C088E790E075
:1021600041FE02C088E590E0B701BED0C91408F472
:102170009CC0CA94D12C9FEFC91AD90ACA0CDB1C87
:10218000F60182916F01B70190E0AED0AC14BD04AE
:10219000B9F757CF60817181072E000C880B990B1E
:1021A0000E5F1F4F96CFD32CE894D4F82AE030E08E
:1021B0008537E1F1232D297FD22E8F36A9F1F0F456
:1021C000883551F1F701868197812B960FB6F894E7
:1021D000DEBF0FBECDBFDF91CF911F910F91FF905A
:1021E000EF90DF90CF90BF90AF909F908F907F90B7
:1021F0006F905F904F903F902F900895803749F0F7
:10220000883701F7D4FE02C06894D2F820E130E0AC
:102210000DC06894D4F8F6CF34FE03C0822F8660D8
:10222000D82E20E132E002C028E030E0F801D7FEED
:102230000EC060817181828193810C5F1F4FA50167
:1022400083D0C82ECA183D2CE89437F856CF608149
:10225000718190E080E00E5F1F4FF1CF42FC02C021
:10226000839467CF8394839464CF842D867809F414
:1022700060CFF6CFB70180E290E036D0839482142D
:10228000C8F3512C63CF522C5818821408F45ECF37
:10229000F8CF842D867809F469CF8BE241FE80E285
:1022A00047FC8DE2B70190E060CFB70180E390E09A
:1022B0001BD09A945BCF8FEF9FEF87CFFC010590E7
:1022C000615070400110D8F7809590958E0F9F1F38
:1022D0000895FC016150704001900110D8F780957D
:1022E00090958E0F9F1F08950F931F93CF93DF93A9
:1022F000182F092FEB018B8181FD09C01FEF0FEF14
:10230000812F902FDF91CF911F910F91089582FF20
:1023100014C02E813F818C819D81281739073CF4A0
:10232000E881F981CF0101969983888310838E819A
:102330009F8101969F838E83E3CFE885F985812F66
:102340001995892BA1F3DACFFA01AA27283051F188
:10235000203181F1E8946F936E7F6E5F7F4F8F4FD6
:102360009F4FAF4FB1E03ED0B4E03CD0670F781F35
:10237000891F9A1FA11D680F791F8A1F911DA11D1A
:102380006A0F711D811D911DA11D20D009F4689453
:102390003F912AE0269F11243019305D3193DEF6FB
:1023A000CF010895462F4770405D4193B3E00FD0B1
:1023B000C9F7F6CF462F4F70405D4A3318F0495D9C
:1023C00031FD4052419302D0A9F7EACFB4E0A6957F
:1023D0009795879577956795BA95C9F700976105A1
:1023E000710508959B01AC010A2E069457954795F7
:1023F00037952795BA95C9F7620F731F841F951FEC
:08240000A01D0895F894FFCF20
:10240800010100A803A803A803A803A803A803A818
:1024180003A803FFFFFFFFFFFFFFFF303030303A14
:1024280041393030414132304546464645383841D9
:10243800344330323030200000000000000000003B
:102448000000000000000000000000000000000084
:102458000000000000000000000000000000000074
:102468000000000000000000000000000000000064
:102478000000000000000000000000000000000054
:102668000000000000303238303A41393030383517
:1026780030374139303041384141383530364135CD
:1026880030303835303441353031383530354330F5
:1026980030344430303441353034383530364330D6
:1026A80030354430303441353035383530364135C1
:1026B80030363831303441313034433530364430B7
:1026C8003245453630344430303245363035413580
:1026D800303243353034443030344135303343358B
:1026E8003035443044344135303038353034413574
:1026F800303138353035433030344430303441357A
:102708003034383530364330303544303034413564
:102718003035383530364131303443353036443051
:102728003639453630344430303245363035413527
:10273800303243353034443030344135303343352A
:102748003035443044384330303044303038413903
:1027580046463835303643383443384130324330D2
:1027680030314430303441393031443046324330EE
:1027780030324430303830363036393045444139DB
:1027880046454430453643303033443030383338AA
:102798003236303642304530433844304444433092
:1027A80030344630463941393530323036433033AB
:1027B80041393431323036433033413935333230B0
:1027C80036433033413935333230364330333230A3
:1027D800394330334536303741353037323037308A
:1027E8003033323039313033454145414541344346
:1027F8003834303234383938323037303033323098
:102808003943303341353035323037303033413564
:102818003034323037303033323039433033413569
:10282800303632303730303332303943303336385F
:10283800323037303033323039313033344330305E
:1028480046463230454646463630343834413441BF
:1028580034413441323930463039333043393341E9
:102868003930303236393036323036433033363814
:1028780032393046303933304339334139303032E8
:1028880036393036323036433033363041393044D9
:1028980032303643303341393041323036433033C9
:1028A80036304139323032303643303336302042D8
:1028B800524B00004F524100000000000000000091
:1028C80000000054534200004F5241000041534C55
:1028D8000000524D42300050485000004F52410015
:1028E8000041534C00000000000000545342000017
:1028F8004F5241000041534C0000424252300042C6
:10290800504C00004F524100004F5241000000005F
:1029180000000054524200004F5241000041534C05
:102928000000524D423100434C4300004F524100D9
:1029380000494E43000000000000005452420000CD
:102948004F5241000041534C000042425231004A6C
:1029580053520000414E44000000000000000000F7
:102968000000004249540000414E440000524F4CC0
:102978000000524D423200504C500000414E44007D
:1029880000524F4C00000000000000424954000073
:10299800414E440000524F4C000042425232004225
:1029A8004D490000414E440000414E4400000000E3
:1029B8000000004249540000414E440000524F4C70
:1029C8000000524D4233005345430000414E44003D
:1029D8000044454300000000000000424954000044
:1029E800414E440000524F4C0000424252330052C4
:1029F80054490000454F520000000000000000004C
:102A08000000000000000000454F5200004C5352E7
:102A18000000524D4234005048410000454F5200DA
:102A2800004C5352000000000000004A4D500000C6
:102A3800454F5200004C535200004242523400426B
:102A480056430000454F520000454F520000000019
:102A58000000000000000000454F5200004C535297
:102A68000000524D423500434C490000454F52008A
:102A7800005048590000000000000000000000005D
:102A8800454F5200004C535200004242523500520A
:102A980054530000414443000000000000000000BF
:102AA80000000053545A00004144430000524F5262
:102AB8000000524D423600504C4100004144430052
:102AC80000524F52000000000000004A4D50000024
:102AD8004144430000524F520000424252360042E5
:102AE80056530000414443000041444300000000A5
:102AF80000000053545A00004144430000524F5212
:102B08000000524D423700534549000041444300FC
:102B180000504C59000000000000004A4D500000D1
:102B28004144430000524F52000042425237004293
:102B38005241000053544100000000000000000012
:102B48000000005354590000535441000053545896
:102B58000000534D4230004445590000424954009A
:102B68000054584100000000000000535459000070
:102B7800535441000053545800004242533000421D
:102B880043430000535441000053544100000000E7
:102B98000000005354590000535441000053545846
:102BA8000000534D42310054594100005354410034
:102BB800005458530000000000000053545A00000D
:102BC800535441000053545A000042425331004CC0
:102BD800445900004C444100004C44580000000097
:102BE8000000004C445900004C444100004C44583B
:102BF8000000534D42320054415900004C444100FA
:102C080000544158000000000000004C44590000E6
:102C18004C444100004C44580000424253320042A8
:102C2800435300004C444100004C44410000000064
:102C38000000004C445900004C444100004C4458EA
:102C48000000534D423300434C5600004C444100B1
:102C580000545358000000000000004C4459000084
:102C68004C444100004C4458000042425333004356
:102C780050590000434D50000000000000000000C3
:102C88000000004350590000434D500000444543A4
:102C98000000534D423400494E590000434D500046
:102CA800004445580000574149000043505900006E
:102CB800434D500000444543000042425334004213
:102CC8004E450000434D500000434D5000000000A9
:102CD8000000000000000000434D50000044454340
:102CE8000000534D423500434C440000434D500012
:102CF80000504858000053545000000000000000E5
:102D0800434D5000004445430000424253350043C0
:102D1800505800005342430000000000000000002B
:102D280000000043505800005342430000494E43FE
:102D38000000534D423600494E58000053424300AC
:102D4800004E4F50000000000000004350580000A3
:102D58005342430000494E4300004242533600426A
:102D68004551000053424300005342430000000015
:102D780000000000000000005342430000494E4399
:102D88000000534D4237005345440000534243006E
:102D980000504C5800000000000000000000000037
:102DA8005342430000494E4300004242533700015A
:102DB80000020003000400050006000700080009DF
:102DC800000A0014001E00280032003C0046005093
:102DD800005A006400C8002C019001F4015802BC9C
:102DE8000220038403E8033533312F2D2B292734A0
:102DF80032302E2C2A28262422201E1C1A181600AF
:102E0800000000CA013501620116029301710185B3
:102E1800010000000045053501AA03A9030D0A00B9
:102E28002D2D2D2D2D2D2D2D2D2D2D2D2D2D2D2DCA
:102E38002D2D2D2D2D00502D4C4142204150504C10
:102E4800452D312D5354455050455200504155534E
:102E5800452F425245414B2020202052657365740E
:102E6800203635303200455343415045202020203C
:102E78002020202020436C656172204170706C65B1
:102E88002D312073637265656E003F20746F207268
:102E98006563616C6C2074686973206D656E75205C
:102EA800616E7974696D6500532053696E676C654E
:102EB8002053746570206D6F6465202F20467265FD
:102EC800652052756E206D6F646500492053696EE8
:102ED800676C65204359434C45202F20494E535475
:102EE80052554354494F4E206D6F64652028696ED2
:102EF80020467265652052756E206D6F6465206F7F
:102F08006E6C79290041204D414E55414C2F415559
:102F1800544F2053696E676C652053746570202880
:102F2800696E2053696E676C652053746570206DF7
:102F38006F6465206F6E6C7929002B2F2D206D6FC3
:102F480064696679204155544F2073706565642023
:102F58007768656E206170706C696361626C65008A
:102F680053504143452073656E642053696E676C06
:102F780065204359434C452F494E535452554354A9
:102F8800494F4E207369676E616C00544142204975
:102F98006E746572616374697665206D6F6465200F
:102FA8004F4E2F4F46462028696E20467265652091
:102FB80052756E206D6F6465206F6E6C79290024E0
:102FC80025302E3458202425302E325820256320D1
:102FD8002534732025642564002425302E34582098
:102FE8002425302E325820256320202025302E32EB
:102FF8005820256425640053656E64696E67205205
:1030080045534554207369676E616C20746F203690
:103018003530322E2E2E0020646F6E652100207709
:10302800696C6C206265206C6F616465642E2E2E5D
:10303800004C6F6164696E6720636F6D706C6574B6
:10304800652C20496E746572616374697665204DDC
:103058006F646520726573756D65640020532F7306
:10306800202020200052554E202D3E20312D43593E
:10307800434C4520200053696E676C6520435943D3
:103088004C45206D6F64652073656C656374656479
:103098000052554E202D3E20312D494E535452207A
:1030A8000053696E676C6520494E5354525543541A
:1030B800494F4E206D6F64652073656C6563746558
:1030C800640053494E474C4520004155544F202039
:1030D80000465245452052554E204D4F44452053F9
:1030E800454C45435445440053494E474C452053AD
:1030F800544550204D4F44452053454C4543544575
:103108004400502D4C4142204150504C452D310037
:103118003635303220312D53746570706572004633
:103128005245452052554E204D4F44452053454C5D
:10313800454354454420415420535441525455501A
:10314800004E4F573A20496E746572616374697610
:1031580065204D6F6465202020207E7E7E20666F6E
:10316800722070726F6772616D73004E4F573A200C
:103178005374657070657220436F6D6D616E642065
:103188004D6F64650050524F4752414D204C4F419E
:1031980044494E4700506C656173652063686F6FE2
:1031A8007365206F6E653A0031202020532E20571A
:1031B8006F7A6E69616B20415343494920436861C6
:1031C80072616374657273207465737400202020C3
:1031D800202D2072756E2077697468203052003275
:1031E8002020204D2E2057696C6C6567616C205239
:1031F800414D207465737400202020202D207365B4
:1032080074206C696D69747320696E207A65726FB9
:1032180020706167652028692E652E20303A20309D
:1032280020453020302046302900202020202D2025
:1032380072756E2077697468203238305220616E5A
:1032480064207761697420666F7220504153532F50
:063258006572726F720046
:020000023000CC
:10E000000D9489F10D94B2F10D94B2F10D94B2F129
:10E010000D94B2F10D94B2F10D94B2F10D94B2F1F0
:10E020000D94B2F10D94B2F10D94B2F10D94B2F1E0
:10E030000D94B2F10D94B2F10D94B2F10D94B2F1D0
:10E040000D94B2F10D94B2F10D94B2F10D94B2F1C0
:10E050000D94B2F10D94B2F10D94B2F10D94B2F1B0
:10E060000D94B2F10D94B2F10D94B2F10D94B2F1A0
:10E070000D94B2F10D94B2F10D94B2F10D94B2F190
:10E080000D94B2F10D94B2F10D94B2F10D94B2F180
:10E090000D94B2F10D94B2F10D94B2F10D94B2F170
:10E0A0000D94B2F10D94B2F10D94B2F10D94B2F160
:10E0B0000D94B2F10D94B2F10D94B2F10D94B2F150
:10E0C0000D94B2F10D94B2F10D94B2F10D94B2F140
:10E0D0000D94B2F10D94B2F10D94B2F10D94B2F130
:10E0E0000D94B2F141546D656761323536300041AF
:10E0F000726475696E6F206578706C6F72657220DE
:10E1000073746B3530305632206279204D4C530099
:10E11000426F6F746C6F616465723E004875683F52
:10E1200000436F6D70696C6564206F6E203D200048
:10E130004350552054797065202020203D20005FF9
:10E140005F4156525F415243485F5F3D2000415658
:10E1500052204C696243205665723D20004743437C
:10E160002056657273696F6E203D20004350552024
:10E1700049442020202020203D20004C6F7720663D
:10E18000757365202020203D20004869676820665F
:10E190007573652020203D200045787420667573D6
:10E1A00065202020203D20004C6F636B2066757336
:10E1B000652020203D20004D617220203720323024
:10E1C000313300312E362E3800342E332E350056A2
:10E1D00023202020414444522020206F7020636F70
:10E1E00064652020202020696E73747275637469E1
:10E1F0006F6E2061646472202020496E74657272B3
:10E20000757074006E6F20766563746F7200726A49
:10E210006D702020006A6D70200057686174207056
:10E220006F72743A00506F7274206E6F7420737541
:10E2300070706F72746564004D7573742062652030
:10E2400061206C6574746572002000577269747483
:10E25000696E672045450052656164696E672045B7
:10E26000450045452065727220636E743D00504F35
:10E27000525400303D5A65726F2061646472003FF1
:10E280003D43505520737461747300403D454550C3
:10E29000524F4D207465737400423D426C696E6B41
:10E2A000204C454400453D44756D70204545505215
:10E2B0004F4D00463D44756D7020464C415348001B
:10E2C000483D48656C70004C3D4C69737420492F83
:10E2D0004F20506F72747300513D51756974005234
:10E2E0003D44756D702052414D00563D73686F7707
:10E2F00020696E7465727275707420566563746FF0
:10E30000727300593D506F727420626C696E6B00BD
:10E310002A0011241FBECFEFD1E2DEBFCDBF01E046
:10E320000CBF12E0A0E0B2E0EEE1FDEF03E00BBFB6
:10E3300002C007900D92A030B107D9F712E0A0E01B
:10E34000B2E001C01D92AE30B107E1F70F9460F367
:10E350000D948DFE01E20EBF0FEF0DBF11241FBE05
:10E360000D9460F30D9400F020E030E040ED57E0B4
:10E3700005C0FA013197F1F72F5F3F4F2817390792
:10E38000C0F308959C01260F311DC901A0E0B0E043
:10E390002F5F3F4FABBFFC018791882361F08093D3
:10E3A000C6008091C00086FFFCCF8091C0008064D1
:10E3B0008093C000EACF08958DE08093C6008091DD
:10E3C000C00086FFFCCF8091C00080648093C000B5
:10E3D0008AE08093C6008091C00086FFFCCF8091C8
:10E3E000C00080648093C00008950F94C2F10F9420
:10E3F000DCF10895FC019081992359F09093C600B7
:10E400008091C00086FFFCCF8091C0008064809323
:10E41000C0003196992379F70895282F982F929567
:10E420009F70892F805D8A3308F0895F8093C600D2
:10E430008091C00086FFFCCF8091C00080648093F3
:10E44000C000822F8F70982F905D9A3308F0995FEB
:10E450009093C6008091C00086FFFCCF8091C000E1
:10E4600080648093C00008959C01FB01853691056E
:10E470001CF46330710594F0C90164E670E00F94F8
:10E480002EFE605D7F4F6093C6008091C00086FFC6
:10E49000FCCF8091C00080648093C0002B30310598
:10E4A00014F43297B4F0C90164E670E00F942EFEC4
:10E4B0006AE070E00F942EFE605D7F4F6093C600AF
:10E4C0008091C00086FFFCCF8091C0008064809363
:10E4D000C000C9016AE070E00F942EFEC0968093E0
:10E4E000C6008091C00086FFFCCF8091C000806490
:10E4F0008093C00008951F93182F8EE692EE60E07F
:10E500000F94C2F11093C6008091C00086FFFCCF2B
:10E510008091C00080648093C0000F94DCF11F9153
:10E5200008952F923F924F925F926F927F928F92B7
:10E530009F92AF92BF92CF92DF92EF92FF920F9392
:10E540001F93DF93CF93CDB7DEB762970FB6F894E2
:10E55000DEBF0FBECDBF382E622ECA01DB015C01CB
:10E560006D01772420E2222E2E010894411C511CBB
:10E570008BC081E0A81680E0B80681E0C80680E084
:10E58000D80628F0C601AA27BB270F940DF2BB2797
:10E59000AD2D9C2D8B2D0F940DF28A2D0F940DF225
:10E5A0002092C6008091C00086FFFCCF8091C00001
:10E5B00080648093C0009DE29093C6008091C0006B
:10E5C00086FFFCCF8091C00080648093C0002092C1
:10E5D000C6008091C00086FFFCCF8091C00080649F
:10E5E0008093C00019828601750188249924A1E0D6
:10E5F0003A1651F03A1620F0B2E03B1661F409C029
:10E600000BBFF701779007C0C7010F9477FE782EF4
:10E6100002C0F7017080872D0F940DF22092C60082
:10E620008091C00086FFFCCF8091C0008064809301
:10E63000C000872D8052F401EF70F0708F3520F408
:10E64000E40DF51D708204C0E40DF51D8EE280839B
:10E650000894E11CF11C011D111D0894811C911CE2
:10E6600090E18916910409F0C2CF80E190E0A0E02A
:10E67000B0E0A80EB91ECA1EDB1E198AC2010F9493
:10E68000FAF10F94DCF16A94662009F072CF629679
:10E690000FB6F894DEBF0FBECDBFCF91DF911F91B3
:10E6A0000F91FF90EF90DF90CF90BF90AF909F9031
:10E6B0008F907F906F905F904F903F902F90089534
:10E6C0002F923F924F925F926F927F928F929F9282
:10E6D000AF92BF92CF92DF92EF92FF920F931F9370
:10E6E000DF93CF93CDB7DEB7CD53D1400FB6F894BB
:10E6F000DEBF0FBECDBF01E20EBF0FEF0DBF94B75F
:10E70000F894A89514BE80916000886180936000A1
:10E7100010926000789493FF05C0E0910002F091A0
:10E7200001021995279A2F9A8091C00082608093E8
:10E73000C00080E18093C40088E18093C1000000A4
:10E74000EE24FF24870144E0A42EB12CCC24DD2448
:10E7500024C0C5010197F1F70894E11CF11C011DCB
:10E76000111D21E2E2162EE4F20620E0020720E06D
:10E77000120718F031E0C32ED12CC801B70127ECE5
:10E780003BE140E050E00F9441FE611571058105C9
:10E79000910519F485B1805885B98091C00087FD35
:10E7A00003C0C114D104A9F2A6014F5F5F4FC25E3E
:10E7B000DE4F59834883CE51D140C25EDE4F8881FF
:10E7C0009981CE51D140019711F00D9410FEC05D9A
:10E7D000DE4F19821882C053D14060E0C15DDE4F28
:10E7E0001882CF52D14088249924C35DDE4F19820C
:10E7F0001882CD52D140C05EDE4F188219821A8233
:10E800001B82C052D140CE5CDE4F188219821A8220
:10E810001B82C253D140EE24FF2487010BBFF701B6
:10E8200007911691C45CDE4F19830883CC53D14005
:10E830000D940BFEC25EDE4F28813981CE51D1404E
:10E840002130310509F52091C600C25EDE4F1982E4
:10E850001882CE51D14022C02F5F3F4F4F4F5F4FA4
:10E86000213082E138078AE7480780E0580780F0C6
:10E87000C45CDE4FE881F981CC53D140EF5FFF4F9C
:10E8800019F0EE27FF27099420E030E040E050E047
:10E890008091C00087FFE0CF2091C600C35DDE4FAE
:10E8A00048815981CD52D1404F5F5F4FC35DDE4FEC
:10E8B00059834883CD52D140213209F063C64A3092
:10E8C000510508F05FC60894811C911C53E0851621
:10E8D000910409F059C600E010E018C081E280936D
:10E8E000C6008091C00086FFFCCF8091C00080648C
:10E8F0008093C0002F5F3F4F2931310579F70F9486
:10E90000DCF10F5F1F4F0530110519F020E030E0FA
:10E91000E5CF10920A0210920B0210920C02109294
:10E920000D02109206021092070210920802109235
:10E930000902109202021092030210920402109235
:10E9400005028FEE90EE60E00F94F5F180E191EE1C
:10E9500060E00F94C2F18091C00087FFFCCF9091DE
:10E96000C600903608F09F759032B8F09093C600BC
:10E970008091C00086FFFCCF8091C00080648093AE
:10E98000C000A0E2A093C6008091C00086FFFCCF2B
:10E990008091C00080648093C000983409F4D7C18E
:10E9A0009934B8F4923409F459C1933458F490333B
:10E9B00019F1903308F4E3C59F33A1F1903409F0C5
:10E9C000DEC5BDC0953409F470C1963409F0D7C5D1
:10E9D00098C1923509F42BC2933538F49C3409F46C
:10E9E000F5C1913509F0CBC518C2963509F445C279
:10E9F000993509F0C4C567C483E792EE62E00F94CD
:10EA0000F5F110920602109207021092080210927D
:10EA1000090210920A0210920B0210920C0210923C
:10EA20000D0213C18FE792EE62E00F94F5F18FEEC5
:10EA300090EE60E00F94F5F181E291EE60E00F94CA
:10EA4000C2F187EB91EE60E00F94F5F180E391EE77
:10EA500060E00F94C2F184EE90EE60E00F94F5F167
:10EA60008FE391EE60E00F94C2F186E090E061E008
:10EA700070E00F9434F20F94DCF18DE591EE60E0DC
:10EA80000F94C2F189EC91EE60E00F94F5F18EE401
:10EA900091EE60E00F94C2F183EC91EE60E00F9490
:10EAA000F5F18CE691EE60E00F94C2F18EE10F94E7
:10EAB0000DF288E90F940DF281E00F940DF20F949E
:10EAC000DCF18BE791EE60E00F94C2F119E0E0E039
:10EAD000F0E010935700E4918E2F0F940DF20F94F5
:10EAE000DCF18AE891EE60E00F94C2F1E3E0F0E03F
:10EAF00010935700E4918E2F0F940DF20F94DCF1D8
:10EB000089E991EE60E00F94C2F1E2E0F0E0109349
:10EB10005700E4918E2F0F940DF20F94DCF188EAE8
:10EB200091EE60E00F94C2F1E1E0F0E01093570045
:10EB30001491812F0F940DF20F94DCF107CF8BE825
:10EB400092EE62E00F94F5F18BE492EE60E00F94A8
:10EB5000F5F10F94DCF100E010E019C0C8016F2D51
:10EB60000F947FFEFF2031F489E492EE60E00F9471
:10EB7000C2F10BC0F092C6008091C00086FFFCCFAE
:10EB80008091C00080648093C0000F5F1F4FC80158
:10EB900081519F41A0E0B0E0ABBFFC01F790BAE229
:10EBA000FB1621F0E2E000301E07C1F60F94DCF105
:10EBB0000F94DCF187E592EE60E00F94F5F10F948D
:10EBC000DCF1CC24DD2400E010E01EC0C8010F946D
:10EBD00077FEF82E882331F489E492EE60E00F94FA
:10EBE000C2F10BC08093C6008091C00086FFFCCFAD
:10EBF0008091C00080648093C000FE1419F00894D6
:10EC0000C11CD11C0F5F1F4FC80181519F41A0E063
:10EC1000B0E0ABBFFC01E790FAE2EF1621F022E092
:10EC20000030120799F60F94DCF10F94DCF182E6C4
:10EC300092EE60E00F94C2F1C60161E070E00F94C3
:10EC400034F20F94DCF10F94DCF110920202109276
:10EC50000302109204021092050278CE89E992EE26
:10EC600062E00F94F5F1279A2F9A16C02F9880E052
:10EC700090E0E0EDF7E03197F1F7019684369105E9
:10EC8000C1F72F9A80E090E0E0EDF7E03197F1F7DF
:10EC9000019684369105C1F78091C00087FFE6CFC9
:10ECA0008091C00087FFFCCF64C485EA92EE62E0E9
:10ECB0000F94F5F140910202509103026091040219
:10ECC0007091050281E020E10F9491F2809102029F
:10ECD00090910302A0910402B091050280509F4FD1
:10ECE000AF4FBF4F8093020290930302A0930402A0
:10ECF000B093050280509041A040B04008F426CE69
:10ED0000A4CF83EB92EE62E00F94F5F140910602FE
:10ED100050910702609108027091090280E020E1A1
:10ED20000F9491F28091060290910702A09108023F
:10ED3000B091090280509F4FAF4FBF4F80930602A2
:10ED400090930702A0930802B0930902FFCD80ECD4
:10ED500092EE62E00F94F5F183E792EE60E00F949B
:10ED6000F5F18FE792EE60E00F94F5F18BE892EE0B
:10ED700060E00F94F5F189E992EE60E00F94F5F10F
:10ED800085EA92EE60E00F94F5F183EB92EE60E09D
:10ED90000F94F5F180EC92EE60E00F94F5F187ECC2
:10EDA00092EE60E00F94F5F188ED92EE60E00F9442
:10EDB000F5F18FED92EE60E00F94F5F18AEE92EEB0
:10EDC00060E00F94F5F183E093EEBDCD87EC92EE19
:10EDD00062E00F94F5F181E40F947BF282E40F94EA
:10EDE0007BF283E40F947BF284E40F947BF285E45E
:10EDF0000F947BF286E40F947BF287E40F947BF20E
:10EE000088E40F947BF28AE40F947BF28BE40F94F6
:10EE10007BF28CE40F947BF299CD88ED92EE62E068
:10EE20000F94F5F1772473948824992409C48FED05
:10EE300092EE62E00F94F5F140910A0250910B02BC
:10EE400060910C0270910D0282E020E10F9491F22A
:10EE500080910A0290910B02A0910C02B0910D02D8
:10EE600080509F4FAF4FBF4F80930A0290930B0289
:10EE7000A0930C02B0930D0269CD8AEE92EE62E08F
:10EE80000F94F5F184EE90EE60E00F94F5F18FECC5
:10EE900091EE60E00F94F5F1662477244301CC5D98
:10EEA000DE4F19821882C452D140D401C301B695F5
:10EEB000A79597958795CA5DDE4F88839983AA8326
:10EEC000BB83C652D140CC5DDE4FA881B981C4520C
:10EED000D1401196CC5DDE4FB983A883C452D14096
:10EEE000CD0162E070E00F9434F2B0E2B093C6005E
:10EEF0008091C00086FFFCCF8091C0008064809329
:10EF0000C000EDE2E093C6008091C00086FFFCCF18
:10EF10008091C00080648093C000F0E2F093C6004E
:10EF20008091C00086FFFCCF8091C00080648093F8
:10EF3000C000CA5DDE4FE880F9800A811B81C6529D
:10EF4000D140BB27A12F902F8F2D0F940DF2CA5DBA
:10EF5000DE4F8881C652D1400F940DF2B0E2FB2EF5
:10EF6000F092C6008091C00086FFFCCF8091C00067
:10EF700080648093C0000DE30093C6008091C000C0
:10EF800086FFFCCF8091C00080648093C00010E2B7
:10EF90001093C6008091C00086FFFCCF8091C00016
:10EFA00080648093C0008BBEF3012791C65DDE4F65
:10EFB0002883CA52D140A22EBB24CC24DD2408943D
:10EFC000611C711C811C911C8BBEF3018791282E42
:10EFD0003324442455240894611C711C811C911C09
:10EFE0008BBEF3013791C55DDE4F3883CB52D140E4
:10EFF0000894611C711C811C911C8BBEF30147910C
:10F00000C45DDE4F4883CC52D140ADEFEA2EAFEF66
:10F01000FA2EAFEF0A2FAFEF1A2F6E0C7F1C801E57
:10F02000911E142D032DF22CEE24EA0CFB1C0C1D5A
:10F030001D1D0F940DF220E22093C6008091C000A8
:10F0400086FFFCCF8091C00080648093C000C65DC5
:10F05000DE4F8881CA52D1400F940DF230E23093D6
:10F06000C6008091C00086FFFCCF8091C000806404
:10F070008093C000C45DDE4F8881CC52D1400F9494
:10F080000DF240E24093C6008091C00086FFFCCFA5
:10F090008091C00080648093C000C55DDE4F888190
:10F0A000CB52D1400F940DF250E25093C6008091A4
:10F0B000C00086FFFCCF8091C00080648093C000B8
:10F0C0008FEFE8168FEFF80680E0080780E018075A
:10F0D00031F484E092EE60E00F94C2F1DFC0D80119
:10F0E000C7018070907CA070B0708050904CA040A0
:10F0F000B040D1F52FEF3FE340E050E0E222F322B1
:10F1000004231523CA5DDE4FA880B980CA80DB8046
:10F11000C652D140AE0CBF1CC01ED11EAA0CBB1CD7
:10F12000CC1CDD1C8EE092EE60E00F94C2F1BB2798
:10F13000A12F902F8F2D0F940DF28E2D0F940DF285
:10F1400030E23093C6008091C00086FFFCCF8091F2
:10F15000C00080648093C0004EE34093C60080915D
:10F16000C00086FFFCCF87C08EE09EEFA0E0B0E03D
:10F17000E822F9220A231B239CE0E91694E9F90608
:10F1800090E0090790E0190709F088C0C45DDE4FE0
:10F19000A881CC52D140EA2EFF2400E010E0102FCD
:10F1A0000F2DFE2CEE24C55DDE4FB881CB52D14031
:10F1B000EB0EF11C011D111DD601C501817090706F
:10F1C000A070B070DC0199278827E80EF91E0A1F8D
:10F1D0001B1F20EF30E040E050E0A222B322C42207
:10F1E000D52241E1AA0CBB1CCC1CDD1C4A95D1F7F1
:10F1F000EA0CFB1C0C1D1D1D81E090E0A0E0B0E0BE
:10F20000282239224A225B2235E1220C331C441C7D
:10F21000551C3A95D1F7E20CF31C041D151D57013E
:10F220006801AA0CBB1CCC1CDD1C85E192EE60E0E1
:10F230000F94C2F1C801AA27BB270F940DF2BB2778
:10F24000A12F902F8F2D0F940DF28E2D0F940DF274
:10F2500090E29093C6008091C00086FFFCCF809121
:10F26000C00080648093C000AEE3A093C60080918C
:10F27000C00086FFFCCF8091C00080648093C000F6
:10F28000C601AA27BB270F940DF2BB27AD2D9C2DDD
:10F290008B2D0F940DF28A2D0F940DF20F94DCF14B
:10F2A000CC5DDE4FE881F981C452D140F99709F471
:10F2B0004DCBF4E0EF2EF12C012D112D6E0C7F1CA7
:10F2C000801E911EF2CD83E093EE62E00F94F5F183
:10F2D0008AE192EE60E00F94C2F18091C00087FF56
:10F2E000FCCF1091C6001F751093C6008091C0001E
:10F2F00086FFFCCF8091C00080648093C0000F9493
:10F30000DCF1812F81548A3108F036C1163409F4BA
:10F3100095C0173490F4133409F44EC0143430F40B
:10F320001134F1F0123409F01DC130C0143409F465
:10F3300059C0153409F016C16BC01A3409F4C4C0A1
:10F340001B3438F4173409F48FC0183409F00AC19B
:10F35000A1C01B3409F4D2C01C3409F003C1E8C0B9
:10F360008FEF81B90DC082B1809582B980E090E0C5
:10F37000E0EDF7E03197F1F70196883C9105C1F790
:10F380008091C00087FFEFCF12B8EFC08FEF84B934
:10F390000DC085B1809585B980E090E0E0EDF7E0A3
:10F3A0003197F1F70196883C9105C1F78091C00033
:10F3B00087FFEFCF15B8D9C08FEF87B90DC088B1DF
:10F3C000809588B980E090E0E0EDF7E03197F1F7C3
:10F3D0000196883C9105C1F78091C00087FFEFCF6F
:10F3E00018B8C3C08FEF8AB90DC08BB180958BB9A7
:10F3F00080E090E0E0EDF7E03197F1F70196883C8E
:10F400009105C1F78091C00087FFEFCF1BB8ADC059
:10F410008FEF8DB90DC08EB180958EB980E090E0F0
:10F42000E0EDF7E03197F1F70196883C9105C1F7DF
:10F430008091C00087FFEFCF1EB897C08FEF80BBD1
:10F440000DC081B3809581BB80E090E0E0EDF7E0F6
:10F450003197F1F70196883C9105C1F78091C00082
:10F4600087FFEFCF11BA81C08FEF83BB0DC084B38C
:10F47000809584BB80E090E0E0EDF7E03197F1F714
:10F480000196883C9105C1F78091C00087FFEFCFBE
:10F4900014BA6BC08FEF809301010FC080910201FD
:10F4A00080958093020180E090E0E0EDF7E03197F5
:10F4B000F1F70196883C9105C1F78091C00087FF64
:10F4C000EDCF1092020151C08FEF809304010FC065
:10F4D0008091050180958093050180E090E0E0ED4A
:10F4E000F7E03197F1F70196883C9105C1F78091DB
:10F4F000C00087FFEDCF1092050137C08FEF8093DA
:10F5000007010FC08091080180958093080180E079
:10F5100090E0E0EDF7E03197F1F70196883C910536
:10F52000C1F78091C00087FFEDCF109208011DC088
:10F530008FEF80930A010FC080910B01809580931B
:10F540000B0180E090E0E0EDF7E03197F1F70196F4
:10F55000883C9105C1F78091C00087FFEDCF1092E4
:10F560000B0103C085E292EEEEC98091C00087FFD7
:10F57000FCCF8091C600EAC988E392EEE4C98CE131
:10F5800091EEE1C988249924933011F1943028F444
:10F59000913089F09230B8F408C0953061F195301F
:10F5A000F0F0963009F048C043C02B3109F042C951
:10F5B00091E06BE13FC96227C15DDE4F2883CF52E6
:10F5C000D14092E037C9B22FA0E0622793E032C960
:10F5D000822F90E0A82BB92B622794E02BC92E3004
:10F5E00009F039C3622795E0C05DDE4F19821882A9
:10F5F000C053D1401FC9E1E0F0E0EC0FFD1FC05D3A
:10F60000DE4F08811981C053D140E00FF11F2083E4
:10F610000F5F1F4FC05DDE4F19830883C053D14079
:10F6200062270A171B0709F005C9D80196E002C92D
:10F63000261709F010C303C0973009F0FBC87724E0
:10F640009981933109F412C19431C8F4963009F4C8
:10F65000D8C0973050F4923009F406C1933009F4C1
:10F660006DC0913009F059C253C0913109F477C08F
:10F67000923108F0BBC0903109F04FC2F5C098310B
:10F6800009F487C0993150F4953109F4EFC09531F0
:10F6900008F4C6C1963109F040C2C2C19A3109F4DA
:10F6A0006CC09A3108F491C09B3109F45BC09D3164
:10F6B00009F033C29D81903359F48F81882311F46E
:10F6C0009EE11CC0813011F091E018C098E916C08D
:10F6D000892F807591F0903539F4E0E0F0E089E011
:10F6E0008093570094910AC0983539F4E3E0F0E034
:10F6F00089E080935700949101C090E01A821B82A8
:10F700008D818C831D829E831F8227E030E009C299
:10F710001A8288E08B8381E48C8386E58D8382E581
:10F720008E8389E48F8383E5888780E589878FE5E9
:10F730008A8782E38B872BE030E0F3C18A818139AD
:10F7400041F0823941F0803911F48FE005C080E04A
:10F7500003C082E001C08AE01A828B8344C0772410
:10F76000739482C08D81882311F48EE12CC0813086
:10F7700011F081E028C088E926C01A82E1E0F0E0BB
:10F7800089E08093570084918B831C8224E030E0D1
:10F79000C8C18B81803589F48C81883039F4E2E0EE
:10F7A000F0E089E08093570084910DC0E0E0F0E044
:10F7B00089E080935700849106C0E3E0F0E089E09F
:10F7C0008093570084911A82DFCF8D81836C99E0FA
:10F7D000E1E0F0E0082E90935700E89507B600FCB2
:10F7E000FDCF1A821B8223E030E09BC180EC8A832C
:10F7F000CE5CDE4F188219821A821B82C253D1401E
:10F800008EC18A8190E0A0E0B0E0582F44273327D2
:10F8100022278B8190E0A0E0B0E0DC0199278827C7
:10F82000282B392B4A2B5B2B8D8190E0A0E0B0E098
:10F83000282B392B4A2B5B2B8C8190E0A0E0B0E089
:10F84000BA2FA92F982F8827282B392B4A2B5B2BCF
:10F85000220F331F441F551FC05EDE4F288339839C
:10F860004A835B83C052D1401A8259C13A81C95C34
:10F87000DE4F3883C753D140CA5CDE4F1882C6536F
:10F88000D1408B81C82EDD24CA5CDE4F488159816E
:10F89000C653D140C42AD52A933109F082C0CE5C28
:10F8A000DE4F88819981AA81BB81C253D1408050AB
:10F8B000904CA340B04030F583E0CE5CDE4FE88052
:10F8C000F9800A811B81C253D140F70100935B008C
:10F8D00080935700E89507B600FCFDCFCE5CDE4F65
:10F8E000088119812A813B81C253D14000501F4FAA
:10F8F0002F4F3F4FCE5CDE4F088319832A833B8313
:10F90000C253D140C05EDE4F488159816A817B81FC
:10F91000C052D140DE011B9631E08C9111962C91A2
:10F9200011971296C75CDE4F2883C953D140C85C3B
:10F93000DE4F1882C853D14090E0C85CDE4FE881AA
:10F94000F981C853D1408E2B9F2B0C01FA01609393
:10F950005B0030935700E89511244E5F5F4F6F4F67
:10F960007F4F0EEFE02E0FEFF02ECE0CDF1CC114F8
:10F97000D10499F685E0C05EDE4F088119812A81A5
:10F980003B81C052D140F80120935B008093570027
:10F99000E89507B600FCFDCF81E180935700E8951C
:10F9A00035C0C05EDE4F88819981AA81BB81C0527B
:10F9B000D140B695A795979587957C018601ABE0D8
:10F9C000AA2EB12CAC0EBD1E0BC0D5016D915D01F0
:10F9D000C7010F947FFE0894E11CF11C01501040F8
:10F9E0000115110591F7A60160E070E0440F551F65
:10F9F000661F771FC05EDE4FE880F9800A811B8199
:10FA0000C052D1404E0D5F1D601F711F1A82C05E33
:10FA1000DE4F488359836A837B83C052D1407FC0C5
:10FA2000FA80C55CDE4FF882CB53D140C65CDE4F16
:10FA30001882CA53D1408B81C82EDD24C65CDE4FAC
:10FA400008811981CA53D140C02AD12A1A828981DA
:10FA5000BE016D5F7F4F843121F59601C05EDE4FA0
:10FA6000E880F9800A811B81C052D1400BBFF701A9
:10FA700087919691DB018C9311969C936E5F7F4FDB
:10FA8000D801C7010296A11DB11DC05EDE4F88835B
:10FA90009983AA83BB83C052D14022503040F1F6F3
:10FAA00036C0C05EDE4F288139814A815B81C052F9
:10FAB000D1400894C108D108760100E010E0089414
:10FAC000C11CD11C0894E11CF11C011D111DE20E8A
:10FAD000F31E041F151F21BDBB27A52F942F832FB5
:10FAE00082BD2F5F3F4F4F4F5F4FF89A80B5DB01CC
:10FAF0008D93BD012E153F054007510761F7C05E8C
:10FB0000DE4F288339834A835B83C052D1409601FC
:10FB10002D5F3F4FFB01108204C080EC8A8322E0FE
:10FB200030E08BE18093C6008091C00086FFFCCF5F
:10FB30008091C00080648093C000C15DDE4FF88179
:10FB4000CF52D140F093C6008091C00086FFFCCF19
:10FB50008091C00080648093C000432F3093C60022
:10FB60008091C00086FFFCCF8091C00080648093AC
:10FB7000C000922F2093C6008091C00086FFFCCF6A
:10FB80008091C00080648093C0008EE08093C600A6
:10FB90008091C00086FFFCCF8091C000806480937C
:10FBA000C00065E1C15DDE4FE880CF52D1406E25D7
:10FBB00069276427FE01319610C090819093C6009A
:10FBC0008091C00086FFFCCF31968091C000806498
:10FBD0008093C0006927215030402115310569F715
:10FBE0006093C6008091C00086FFFCCF8091C0006A
:10FBF00080648093C00085B1805885B9772081F4F6
:10FC0000C15DDE4F0881CF52D1400F5FC15DDE4F35
:10FC10000883CF52D14090E0A0E0B0E00D941AF4F8
:10FC200027982F9880E090E020ED37E0F901319798
:10FC3000F1F7019684369105C9F700008091C00064
:10FC40008D7F8093C00081E180935700E895EE2777
:10FC5000FF270994FFCF90E00D941AF497FB092E2B
:10FC600007260AD077FD04D02ED006D000201AF443
:10FC7000709561957F4F0895F6F7909581959F4F08
:10FC80000895A1E21A2EAA1BBB1BFD010DC0AA1FDD
:10FC9000BB1FEE1FFF1FA217B307E407F50720F0F5
:10FCA000A21BB30BE40BF50B661F771F881F991F70
:10FCB0001A9469F760957095809590959B01AC01B9
:10FCC000BD01CF010895AA1BBB1B51E107C0AA1FAC
:10FCD000BB1FA617B70710F0A61BB70B881F991FED
:10FCE0005A95A9F780959095BC01CD010895F99991
:10FCF000FECF92BD81BDF89A992780B50895262F31
:10FD0000F999FECF1FBA92BD81BD20BD0FB6F89400
:0EFD1000FA9AF99A0FBE01960895F894FFCF63
:040000033000E000E9
:00000001FF
