:100000000C94C0030C94E8030C94E8030C94E803EC
:100010000C94E8030C94E8030C94E8030C94E803B4
:100020000C94E8030C94E8030C94E8030C94E803A4
:100030000C94E8030C94E8030C94E8030C94E80394
:100040000C94B41D0C94E8030C94821D0C945C1D5C
:100050000C94E8030C94E8030C94E8030C94E80374
:100060000C94E8030C94E803534420636172642009
:10007000696E697469616C697A6174696F6E206612
:1000800061696C6564005344206361726420696E29
:10009000697469616C697A65640064697220746569
:1000A000726D696E617465640064697220696E7452
:1000B0006572727570746564206279207468652059
:1000C000757365720074696D656F75742077686902
:1000D0006C6520726563656976696E6720276E6559
:1000E0007874206C696E6527206279746500646994
:1000F00072206E6F7420666F756E64006469722082
:10010000746F20726561643A2000636F6D6D616E7B
:10011000642044495220726563656976656420668F
:10012000726F6D204350550000000000240027002E
:100130002A0000000000250028002B00000000001D
:100140002300260029000404040404040404020219
:100150000202020203030303030301020408102046
:100160004080010204081020010204081020000051
:100170000008000201000003040700000000000066
:100180000000534443415244206C696272617279A9
:100190003A2053444661742E680066696C6520728B
:1001A000656164206F6B0074696D656F75742C20D8
:1001B00062797465732073656E743A200066696CA9
:1001C000652073697A652073656E7420746F2043AF
:1001D0005055006F6B20726573706F6E736520737E
:1001E000656E7420746F204350550066696C6520FD
:1001F0006F70656E6564206F6E207468652053446F
:100200002063617264006E6F7420612066696C65A2
:10021000006572726F72206F70656E696E6720661E
:10022000696C65006572726F72206F70656E696EC1
:10023000672066696C650066696C6520746F207262
:100240006561643A2000636F6D6D616E6420434D9B
:10025000445F524541442072656365697665642058
:1002600066726F6D204350550066696C652072653B
:100270006164206F6B0066696C65207772697465D4
:10028000206572726F7200726563656976656420BD
:1002900066696C652073697A653A200066697273D5
:1002A00074206F6B20726573706F6E736520736559
:1002B0006E7420746F204350550066696C65206F22
:1002C00070656E656420666F722077726974652050
:1002D0006F6E20746865205344206361726400650A
:1002E00072726F72206F70656E696E672066696CDE
:1002F0006520666F722077726974650066696C6547
:1003000020616C7265616479206578697374006638
:10031000696C6520746F2077726974653A20006398
:100320006F6D6D616E6420434D445F575249544573
:100330002072656365697665642066726F6D20431F
:100340005055006E6F74206F6E2063757272656E0B
:1003500074206469722C206A6F696E696E67207000
:100360006174687300666F756E64206120706172DD
:100370007469616C206D6174636800666F756E648A
:1003800020616E206578616374206D61746368001C
:1003900066696C6520656E7472793A2000736361DA
:1003A0006E6E696E6720666F72207061727469612B
:1003B0006C206D617463682E2E2E007363616E6E07
:1003C000696E6720666F72206578616374206D6165
:1003D0007463682E2E2E00646972206F70656E65DE
:1003E00064007363616E6E696E6720746865206671
:1003F000696C655F70617468206469726563746FAD
:100400007279007363616E6E696E6720746865202F
:1004100063757272656E74206469726563746F725D
:1004200079002C2066696C655F6E616D653D0061C9
:10043000667465722073706C69742066696C655FA0
:10044000706174683D0066696C6520726561642046
:100450006F6B0074696D656F75742C2062797465BB
:10046000732073656E743A200066696C6520736949
:100470007A652073656E7420746F20435055006F49
:100480006B20726573706F6E73652073656E742078
:10049000746F204350550066696C65206F70656EFF
:1004A0006564206F6E207468652053442063617218
:1004B00064006E6F7420612066696C6500657272FD
:1004C0006F72206F70656E696E672066696C65007B
:1004D0006572726F72206F70656E696E67206669F3
:1004E0006C6500666F756E64206D61746368696E1B
:1004F000672066696C653A200066696C6520746FD8
:1005000020726561643A2000636F6D6D616E6420D6
:10051000434D445F4C4F4144207265636569766585
:10052000642066726F6D204350550066696C6520CB
:1005300064656C65746564006572726F72207265C3
:100540006D6F76696E672066696C65006572726FA3
:1005500072206F70656E696E672066696C652066D3
:100560006F722064656C6574696F6E0066696C6596
:1005700020646F6573206E6F7420657869737400F2
:1005800066696C6520746F2064656C6574653A20DB
:1005900000636F6D6D616E642044454C207265632D
:1005A00065697665642066726F6D204350550064FE
:1005B00069722072656D6F766564006572726F7224
:1005C0002072656D6F76696E672064697200646978
:1005D0007220646F6573206E6F7420657869737420
:1005E000006469726563746F727920746F2064654A
:1005F0006C6574653A2000636F6D6D616E642052A6
:100600004D4449522072656365697665642066725F
:100610006F6D204350550064697220637265617488
:100620006564006572726F72206372656174696ED1
:10063000670064697220616C726561647920657815
:10064000697374006469726563746F727920746F82
:10065000206372656174653A2000636F6D6D616E31
:1006600064204D4B44495220726563656976656428
:100670002066726F6D20435055006572726F722054
:100680006368616E67696E6720646972006E6F747B
:100690002061206469726563746F727900646972A5
:1006A000206E6F7420666F756E64006469722063DB
:1006B00068616E67656420746F3A006572726F726C
:1006C000206368616E67696E67206469720064699F
:1006D00072206368616E67656420746F3A006469B4
:1006E000726563746F727920746F206368616E67DE
:1006F0006520746F3A2000636F6D6D616E642043F6
:10070000442072656365697665642066726F6D204A
:1007100043505500636F6D6D616E642050574420E7
:1007200072656365697665642066726F6D204350FB
:10073000550054494D454F555420647572696E6794
:1007400020636F6D6D616E6400636F6D6D616E64CB
:100750002070726F63657373696E672074696D656D
:100760003A200020726563656976656400756E6B7A
:100770006E6F776E20636F6D6D616E642000FE1D7D
:1007800011241FBECFEFD8E0DEBFCDBF12E0A0E046
:10079000B1E0E2ECF0E502C005900D92A039B1079E
:1007A000D9F726E0A0E9B2E001C01D92AC3EB20745
:1007B000E1F713E0C0ECD3E004C02197FE010E94F2
:1007C0004B25CF3BD107C9F70E944A1E0C945F28E6
:1007D0000C940000653048F470E0660F771F680FD6
:1007E000791FFB018181928108956B3048F470E09C
:1007F000660F771F680F791FFB018481958108952B
:100800006D3049F070E0660F771F680F791FFB01AC
:1008100086819781089590E080E00895FF920F937C
:100820001F93CF93DF93FB01EC019E012F5F3F4F9E
:100830008881803299F0D183C083BE01DB019D9114
:100840009D01992351F19F3241F190324CF480E0A7
:10085000DF91CF911F910F91FF900895E901E5CFAE
:10086000892F877F823299F39A3389F3892F8F7B7F
:100870008C3369F382EC890F823048F39C3539F36D
:10088000BD016C1B7D0B9E3231F0903221F07783DD
:100890006683B583A483B901D1CF868197810197FF
:1008A0008F3F9105A0F6262F972FEB018991BE016E
:1008B0008032C9F38F32B9F3DA012C9311969C93ED
:1008C0000481158120813181DF011A96CF0145967F
:1008D00040E24D938A179B07E1F781E0E901988197
:1008E0009E3209F480E0D9012F5F3F4F9C919E32E8
:1008F000D1F3980121503109A217B30720F4E9017F
:1009000098819E32B9F740E067E0C0E050E078E0BF
:10091000A017B10708F044C09C919E3241F42A17F9
:100920003B0769F46AE0C8E070E11196F1CF9232BA
:10093000A1F09C3791F0D5EAD90FD33070F0D6ED05
:10094000D90FD63010F49D3241F4D6ECD90FD63001
:1009500020F0DFEDD90FDE3528F0907C9038B1F52E
:1009600080E0E3CF6C1740F46A30C9F02A173B07E8
:10097000B0F0D9011197F4CFDFE9D90FDA3150F592
:100980009052472BFF24F394FC0ECE0FDF2FD11D86
:100990009A87D6E0DF1508F0F086CF2DC6CF80E02D
:1009A0009285903209F453CF882329F0542309F01B
:1009B00042E041874DCF81E081876085E60FF11DE0
:1009C0008EE7828781E3838781E042CF80E09FE5E5
:1009D0006C1750F2DFEBD90FDA31A0F6572BD2CFDC
:1009E000AF92BF92CF92DF92EF92FF920F931F933D
:1009F000CF93DF936C017B018B01040F151FEB017B
:100A00005E01AE18BF08C017D10759F06991D60131
:100A1000ED91FC910190F081E02DC6010995892BA3
:100A200079F7C501DF91CF911F910F91FF90EF9062
:100A3000DF90CF90BF90AF900895FC01538D448D0F
:100A4000252F30E0842F90E0821B930B541710F079
:100A5000CF96089501970895FC01918D828D981786
:100A600061F0A28DAE0FBF2FB11D5D968C91928D5E
:100A70009F5F9F73928F90E008958FEF9FEF08958F
:100A8000FC01918D828D981731F0828DE80FF11D58
:100A9000858D90E008958FEF9FEF0895FC01918D73
:100AA000228D892F90E0805C9F4F821B91098F736C
:100AB000992708958BE993E00E944E0521E0892B48
:100AC00009F420E0822F089580E090E0892B29F03E
:100AD0000E945A0581110C9400000895FC01A48D18
:100AE000A80FB92FB11DA35ABF4F2C91848D90E050
:100AF00001968F739927848FA689B7892C93A08933
:100B0000B1898C91837080648C93938D848D9813BC
:100B100006C00288F389E02D80818F7D808308954F
:100B2000EF92FF920F931F93CF93DF93EC0181E03D
:100B3000888F9B8D8C8D98131AC0E889F9898081E4
:100B400085FF15C09FB7F894EE89FF896083E88917
:100B5000F98980818370806480839FBF81E090E009
:100B6000DF91CF911F910F91FF90EF900895F62E96
:100B70000B8D10E00F5F1F4F0F731127E02E8C8D30
:100B80008E110CC00FB607FCFACFE889F989808175
:100B900085FFF5CFCE010E946E05F1CFEB8DEC0FF6
:100BA000FD2FF11DE35AFF4FF0829FB7F8940B8F92
:100BB000EA89FB8980818062CFCF0F931F93CF9307
:100BC000DF938C01D0E0C0E0F801EC0FFD1F6491D1
:100BD000662341F08BE993E00E949005892B11F088
:100BE0002196F2CFCE01DF91CF911F910F91089501
:100BF000CF93DF93EC01888D8823B9F0AA89BB8954
:100C0000E889F9898C9185FD03C0808186FD0DC03E
:100C10000FB607FCF7CF8C9185FFF2CF808185FF5F
:100C2000EDCFCE010E946E05E9CFDF91CF910895FF
:100C3000833081F028F4813099F08230A9F0089552
:100C40008730A9F08830C9F08430B1F480918000F9
:100C50008F7D03C0809180008F77809380000895FE
:100C600084B58F7784BD089584B58F7DFBCF809147
:100C7000B0008F778093B00008958091B0008F7D91
:100C8000F9CFCF93DF93282F30E0F901E259FE4FDF
:100C90008491F901E65AFE4FD491F901EA5BFE4FC7
:100CA000C491CC23A1F081110E941806EC2FF0E032
:100CB000EE0FFF1FE45CFE4FA591B491EC91ED2384
:100CC00081E090E009F480E0DF91CF91089580E029
:100CD00090E0FACF1F93CF93DF93282F30E0F901F4
:100CE000E259FE4F8491F901E65AFE4FD491F90181
:100CF000EA5BFE4FC491CC23A9F0162F81110E940C
:100D00001806EC2FF0E0EE0FFF1FEE5CFE4FA591F2
:100D1000B4918FB7F894EC91111108C0D095DE23EF
:100D2000DC938FBFDF91CF911F910895DE2BF8CF19
:100D3000CF93DF9390E0FC01E65AFE4F24918A5B4B
:100D40009E4FFC0184918823D1F090E0880F991F79
:100D5000FC01E85DFE4FA591B491FC01EE5CFE4FF5
:100D6000C591D49161110EC09FB7F8948C91E22F78
:100D7000E0958E238C932881E223E8839FBFDF9147
:100D8000CF9108958FB7F894EC91E22BEC938FBF3D
:100D9000F6CF2FB7F8946091990270919A028091E2
:100DA0009B0290919C022FBF08958EBD00000DB450
:100DB00007FEFDCF8EB50895CF93DF93EC019A81A6
:100DC0008B819CBD8DBD60E08C810E946A068FEF97
:100DD0000E94D50681E08E83DF91CF9108958FEF39
:100DE0000C94D506CF93DF93EC010E94C906C60F81
:100DF000D71F0E94EF068F3F59F00E94C906CE010F
:100E0000861B970B97FFF5CF80E0DF91CF91089578
:100E100081E0FBCFCF93DF93FC012681222349F0B1
:100E2000EC0161E084810E946A068FEF0E94D50682
:100E30001E82DF91CF9108951F93CF93DF93EC0132
:100E400088E592E00E94F206182F882361F08DEF6A
:100E50000E94D506CE010E940A071F82812FDF91D2
:100E6000CF911F9108958EE18D83CE010E940A07D4
:100E7000F5CF0F931F93CF93DF938C01862FEA0159
:100E80000E94D506FE0181918EBDDE5FEC17FD0745
:100E900041F08191000000000DB407FEFDCF8EBD32
:100EA000F5CF0DB407FEFDCF8FEF0E94D5068FEF73
:100EB0000E94D5060E94EF06F80180878F71853069
:100EC00059F080E28583C8010E940A0780E0DF9123
:100ED000CF911F910F91089581E0F9CFDF92EF92AA
:100EE000FF920F931F93CF93DF93EC01162F022FE6
:100EF000F32EE42ED52E0E9478098823D1F18E811D
:100F0000811103C0CE010E94DC061C3051F5812FF7
:100F100080640E94D5068D2D0E94D5068E2D0E94DC
:100F2000D5068F2D0E94D506802F0E94D50687E812
:100F3000111101C085E90E94D5060E94EF060AE062
:100F400010E00E94EF06888787FF03C00150110957
:100F5000C1F7DF91CF911F910F91FF90EF90DF903C
:100F600008958CE291E00E94F2068111D0CF112306
:100F700071F28FEFEECFAF92BF92CF92DF92EF92EE
:100F8000FF921F93CF93DF93EC016A017B0159011C
:100F90001E85112309F45EC08F81823049F48A8551
:100FA0009B85AC85BD85C816D906EA06FB0649F1C6
:100FB0008985A7019601833039F099E0220F331F0C
:100FC000441F551F9A95D1F769E1CE010E946E0723
:100FD000882389F08EE08D83CE010E940A0710E0FD
:100FE000812FDF91CF911F91FF90EF90DF90CF90F5
:100FF000BF90AF90089582E08F83CA86DB86EC862F
:10100000FD8688E592E00E94F206811102C084E22A
:10101000E2CFA5016CEFCE010E9439078823E1F2EF
:101020008A859B85AC85BD850196A11DB11D8A87EA
:101030009B87AC87BD871E851111D2CFCE01DF9172
:10104000CF911F91FF90EF90DF90CF90BF90AF9026
:101050000C941C078985833039F089E0CC0CDD1CA9
:10106000EE1CFF1C8A95D1F7A701960168E1CE011D
:101070000E946E07882331F08DE08D83CE010E949F
:101080000A07AECFA5016EEFCE010E943907F82EF8
:101090008823A1F3CE010E940A071F2DA1CFEF9252
:1010A000FF921F93CF93DF93FC01208111E020FF7B
:1010B00012C0EC017C01FBE0EF0EF11C4F81588562
:1010C00069857A85970189819A810E94BB07182FCB
:1010D000811108C010E0812FDF91CF911F91FF9007
:1010E000EF900895888181FD04C088818E7F888378
:1010F000F2CF4F81588569857A858B819C81AD813E
:10110000BE81480F591F6A1F7B1F970189819A81F1
:101110000E94BB078111E9CFDDCFCF93DF93EC01B4
:101120001F8220E030E0A9016CE00E946E07882356
:1011300049F089E08D83CE010E940A0780E0DF91AB
:10114000CF910895CE010E940A0781E0F8CFCF9297
:10115000DF92EF92FF920F931F93CF93DF93EC01F7
:101160006A017B0189018F81813049F48A859B85E1
:10117000AC85BD858C159D05AE05BF0539F189850A
:10118000A7019601833039F089E0220F331F441FF5
:10119000551F8A95D1F762E1CE010E946E07882320
:1011A00079F08CE08D83CE010E940A0780E0DF9108
:1011B000CF911F910F91FF90EF90DF90CF90089506
:1011C00081E08F83CA86DB86EC86FD860E94C90695
:1011D0007B0124EDE21A2EEFF20A0E94EF068887C7
:1011E0008F3F49F40E94C906C701861B970B97FFE2
:1011F000F4CF8DE1D7CF8E3F11F088E1D3CF8FEFC1
:101200008EBDF801D801A150BE4F9FEFEA17FB0732
:1012100049F0000000000DB407FEFDCF8EB59EBD65
:101220008193F4CF0DB407FEFDCF8EB58C93188655
:101230000E94EF060E94EF068A859B85AC85BD85DE
:101240000196A11DB11D8A879B87AC87BD878E85BE
:101250008111ADCFCE01DF91CF911F910F91FF9002
:10126000EF90DF90CF900C948D08CF92DF92EF92A9
:10127000FF921F93CF93DF93DC011196ED91FC91C8
:10128000EF2B51F490E080E0DF91CF911F91FF9020
:10129000EF90DF90CF900895122F6A017B01EC014F
:1012A0008F819885A985BA858C159D05AE05BF05EA
:1012B00061F0CE010E944F08882321F312FF0CC079
:1012C0001882CF82D886E986FA8613702881122B7D
:1012D0001883CE010B96D8CF9E01255F3F4FB701F3
:1012E000A60189819A810E94A7088111E9CFCACFFE
:1012F000FC012781223011F40C941C07213011F4D9
:101300000C948D0881E008958F929F92AF92BF92C6
:10131000CF92DF92EF92FF920F931F9342305105CD
:101320006105710560F480E01F910F91FF90EF90CF
:10133000DF90CF90BF90AF909F908F900895FC0169
:10134000C08CD18CE28CF38CC416D506E606F70669
:1013500050F3480159016A018581803229F5848959
:101360009589A689B78917E076956795579547952A
:101370001A95D1F7480F591F6A1F7B1F23E0CF0131
:1013800080960E943509009771F2CC0CDD1CCC0CC4
:10139000DD1CF1E0DF228C0D9D1DFC01808291821D
:1013A000A282B38281E0C0CF803109F0BCCF4489F2
:1013B0005589668977894D0D511D611D711D23E089
:1013C000CF0180960E943509009709F4ACCFCC0C70
:1013D000DD1CF1E0DF22C80ED91EF6011183008367
:1013E000E1CFCF92DF92EF92FF920F931F93CF93B3
:1013F000DF93423051056105710550F48FEFDF91A5
:10140000CF911F910F91FF90EF90DF90CF900895B3
:10141000FC01C08CD18CE28CF38CC416D506E60698
:10142000F70660F389016A01EC018581803299F544
:1014300084899589A689B789E7E076956795579558
:101440004795EA95D1F7480F591F6A1F7B1F22E085
:10145000CE0180960E943509009781F2CC0CDD1CEC
:10146000CC0CDD1CF1E0DF228C0D9D1DFC01808188
:101470009181A281B381488D598D6A8D7B8D4817EA
:1014800059076A077B0730F1F80180839183A283B3
:10149000B38381E0B4CF803109F0B0CF448955895E
:1014A000668977894D0D511D611D711D22E0CF01A7
:1014B00080960E943509009709F4A0CFCC0CDD1C62
:1014C000F1E0DF22C80ED91EF60180819181B0E0E3
:1014D000A0E0D1CF80E093CF9F92AF92BF92CF9206
:1014E000DF92EF92FF920F931F93CF93DF9300D081
:1014F00000D0CDB7DEB75C016A017B019E012F5F92
:101500003F4FB701A601C5010E94F109982E87FD42
:1015100034C000E010E09801B701A601C5010E94A7
:101520008409882351F1F5014085518562857385D1
:10153000C416D506E606F70650F4F1E0CF1AD10836
:10154000E108F108F501C086D186E286F386C980FC
:10155000DA80EB80FC809110D1CF0F900F900F902C
:101560000F90DF91CF911F910F91FF90EF90DF903F
:10157000CF90BF90AF909F90089580E0EECFFC0198
:101580009C01255F3F4F80E080FB879587F9919113
:10159000890FE217F307C1F708954F925F926F9298
:1015A0007F928F929F92AF92BF92CF92DF92EF92F3
:1015B000FF920F931F93CF93DF93EC014A015B01DE
:1015C0004C845D846E847F842881222309F45CC06E
:1015D000488959896A897B89481559056A057B05B7
:1015E00081F081149104A104B10469F41C861D8664
:1015F0001E861F86888A998AAA8ABB8A8A818F7DDD
:101600008A8381E046C023FF2CC0888D998DAA8DE6
:10161000BB8D88159905AA05BB05B0F1EE81FF8148
:101620003481375F7501640181E0C81AD108E1088F
:10163000F108032E04C0F694E794D794C7940A9453
:10164000D2F78A8186FF36C08C8D9D8DAE8DBF8D81
:101650008C0D9D1DAE1DBF1D8C879D87AE87BF87DE
:10166000C9CF25FFDBCFEE81FF818681978125E001
:10167000880F991F2A95E1F7B0E0A0E08815990539
:10168000AA05BB0508F0B6CF4C865D866E867F86C0
:1016900080E0DF91CF911F910F91FF90EF90DF904D
:1016A000CF90BF90AF909F908F907F906F905F9002
:1016B0004F900895DB01CA010197A109B10904C047
:1016C000B695A795979587953A95D2F7C816D906F6
:1016D000EA06FB0620F0452B462B472B49F526FF53
:1016E00022C0848D958DA68DB78D8C879D87AE8702
:1016F000BF878E01045F1F4FC114D104E104F104C0
:1017000009F478CF4C855D856E857F8598018E8143
:101710009F810E94F10991E0C91AD108E108F108FE
:10172000181654F3B1CF8C8D9D8DAE8DBF8DDDCF4E
:10173000C81AD90AEA0AFB0ADCCFCF93DF93EC017F
:10174000262F4C895D896E897F898E819F81809645
:101750000E943509009759F02C813D812F70332765
:1017600045E0220F331F4A95E1F7820F931FDF9167
:10177000CF9108953F924F925F926F927F928F9296
:101780009F92AF92BF92CF92DF92EF92FF920F9310
:101790001F93CF93DF9300D000D0CDB7DEB75C01AD
:1017A000FC01448455846684778486809780F401A4
:1017B000C084D184E284F384C414D504E604F7041D
:1017C000C0F47301620110E0FFEFCF1ADF0AEF0AE5
:1017D000FF0AF401808D918DA28DB38D8C159D052E
:1017E000AE05BF0540F4111132C0C084D184E2843B
:1017F000F38411E0E9CF4C145D046E047F0439F1E9
:101800009E012F5F3F4FB701A601C4010E94F1095D
:1018100087FD1DC08823C1F289819A81AB81BC817B
:10182000892B8A2B8B2B81F6112329F0F401C0869A
:10183000D186E286F3860FEF1FEF2FEF3FE0B7016F
:10184000A601C4010E948409382E811118C0312CD0
:10185000832D0F900F900F900F90DF91CF911F91DC
:101860000F91FF90EF90DF90CF90BF90AF909F903F
:101870008F907F906F905F904F903F9008954114AC
:10188000510461047104B9F4F501C486D586E68675
:10189000F78682814114510461047104B1F0FFEFB5
:1018A0004F1A5F0A6F0A7F0A4C145D046E047F04AE
:1018B00079F08F7B0BC097018601B301A201C401AF
:1018C0000E9484098111E0CFC2CF8064F501828338
:1018D000F501828180688283BBCFCF93DF93EC01D7
:1018E00080960E944F08882331F088819981DF918A
:1018F000CF910C94780980E0DF91CF910895CF9338
:10190000DF93FC012081211104C081E0DF91CF91A0
:101910000895EC01828187FF25C061E0CF010E941C
:101920009D0BFC01892B29F489818160898380E0EA
:10193000EDCF8081853EC1F3888183FF08C0888D0B
:10194000998DAA8DBB8D848F958FA68FB78F8C8D27
:101950009D8DAE8DBF8D938F828FB58BA48B8A8129
:101960008F778A838E819F810E946D0C8823E1F29C
:10197000CCCFCF93DF93EC010E947F0C18821A82A8
:10198000DF91CF9108950C960C947F0CFC01848517
:1019900083FF17C084A195A1A6A1B7A1448D558D41
:1019A000668D778D841B950BA60BB70B811520E8F0
:1019B0009207A105B10520F08FEF9FE7A0E0B0E00E
:1019C000089580E090E0DC01F1CFFB0122813381BA
:1019D000DC0113963C932E931297448155816681C6
:1019E000778114964D935D936D937C931797408503
:1019F00051856285738518964D935D936D937C93A5
:101A00001B9720E23C961C9601900D922A95E1F7D7
:101A10000895CF9390919D02981729F1C82F8111B5
:101A200024C060E082E00E94980660E083E00E94AB
:101A3000980660E084E00E94980660E085E00E94DD
:101A4000980660E086E00E94980660E087E00E94C9
:101A5000980660E088E00E94980660E089E00E94B5
:101A60009806C0939D02CF91089561E082E00E94A4
:101A7000980661E083E00E94980661E084E00E949D
:101A8000980661E085E00E94980661E086E00E9489
:101A9000980661E087E00E94980661E088E00E9475
:101AA000980661E0DBCFCF92DF92EF92FF92CF9367
:101AB000DF93C82F0E94C9066B017C018091460309
:101AC000811115C0D0E08FE00E9441068C179D0760
:101AD00071F00E94C9066C197D098E099F09613D4C
:101AE00077408105910578F381E080934603DF918B
:101AF000CF91FF90EF90DF90CF900895CF93C82FB4
:101B000081E00E94090D6C2F617082E00E946A06DC
:101B10006C2F627083E00E946A066C2F647084E010
:101B20000E946A066C2F687085E00E946A066C2F1E
:101B3000607186E00E946A066C2F607287E00E94E6
:101B40006A066C2F607488E00E946A066C2F6078C9
:101B500089E00E946A0661E08EE00E946A0681E0E8
:101B60000E94530D60E08EE00E946A0680E0CF91F3
:101B70000C94530DCF93DF93EC018991882331F0BE
:101B80000E947E0D809146038823B9F3DF91CF91A7
:101B900008950F931F93CF938C01F801C1918F018A
:101BA0008C2F0E947E0D80914603811102C0C111CD
:101BB000F4CFCF911F910F9108950F931F93CF935F
:101BC000DF9380E00E94090D81E00E94530D82E0C6
:101BD0000E944106182F83E00E944106EC0184E038
:101BE0000E944106CC0FDD1F880F991F880F991F97
:101BF000C82BC12B85E00E94410643E0880F991F46
:101C00004A95E1F7C82B86E00E94410654E0880F10
:101C1000991F5A95E1F7C82B87E00E94410665E0BD
:101C2000880F991F6A95E1F7C82B88E00E9441064A
:101C300076E0880F991F7A95E1F7C82B89E00E941A
:101C400041068C0161E08EE00E946A0680E00E94FD
:101C5000530D60E08EE00E946A06C8019695982FA9
:101C60008827979587958C2BDF91CF911F910F91A6
:101C70000895CF93DF93C7E4D3E00E94DD0D9091E8
:101C80004603911103C089938111F7CFDF91CF9162
:101C90000895FC011382128288EE93E0A0E0B0E088
:101CA00084839583A683B78314861586168684E07D
:101CB00091E091838083089540E050E0BA010C9454
:101CC000CD0A90E080E008958F929F92AF92BF92EC
:101CD000CF92DF92EF92FF920F931F93CF93DF93F8
:101CE000EC017B013A8130FFCAC02881888899883D
:101CF000AA88BB88422F4870C42E23FF22C0888D3B
:101D0000998DAA8DBB8D88199909AA09BB098230C2
:101D10009105A105B10520F5009711F530E020E00F
:101D2000A901481B590BCA01DF91CF911F910F9157
:101D3000FF90EF90DF90CF90BF90AF909F908F90EB
:101D4000089525FF0DC0EE81FF818681978145E0D2
:101D5000880F991F4A95E1F78815990509F495C0F0
:101D6000EE81FF8184011170B501A40189E07695AF
:101D70006795579547958A95D1F725FF27C0848D9C
:101D8000958DA68DB78D480F591F6A1F7B1F8E81B9
:101D90009F8120E080960E943509009709F46FC06A
:101DA000800F911FFC018081F701808388899989C8
:101DB000AA89BB890196A11DB11D888B998BAA8B1D
:101DC000BB8B21E030E090E080E0AACFD380D4222A
:101DD0000115110581F4D1100EC089288A288B289D
:101DE00081F526FF29C0848D958DA68DB78D8C87B2
:101DF0009D87AE87BF87EE81FF814C855D856E85AF
:101E00007F854250510961097109848104C0440FE2
:101E1000551F661F771F8A95D2F780899189A289FD
:101E2000B389840F951FA61FB71FAC01BD014D0DCF
:101E3000511D611D711DABCF8C8D9D8DAE8DBF8DE4
:101E4000D6CF4C855D856E857F85CC2059F036FFD9
:101E500009C04F5F5F4F6F4F7F4F4C875D876E8725
:101E60007F87C9CF9E01245F3F4FCF010E94F109B8
:101E700087FD05C08111BFCF8881807749F48981B2
:101E8000826089838FEF9FEF4FCF30E020E09BCFC0
:101E900021E030E081E090E043CFEF92FF920F939A
:101EA0001F93CF93DF931F92CDB7DEB77C01962FA0
:101EB000F70140895189628973898A019B0185E014
:101EC00036952795179507958A95D1F70F7011F0DC
:101ED000911129C0BE016F5F7F4FC7010E94640E40
:101EE000813051F090E080E00F90DF91CF911F9111
:101EF0000F91FF90EF900895F70180899189A28951
:101F0000B3894F96A11DB11D808B918BA28BB38B92
:101F1000F701868197818B96F0E20F9F9001112443
:101F2000820F931FE1CF405E5F4F6F4F7F4F408B1B
:101F3000518B628B738BECCFCF93DF93EC01AB01B2
:101F400070E060E085E0440F551F661F771F8A959B
:101F5000D1F7CE010E94CD0A882331F060E0CE0196
:101F6000DF91CF910C944D0F90E080E0DF91CF9105
:101F70000895CF93DF931F92CDB7DEB7BE016F5F99
:101F80007F4F0E94640E019731F4898190E00F9099
:101F9000DF91CF9108958FEF9FEFF9CF8F929F92AE
:101FA000AF92BF92CF92DF92EF92FF92CF93DF93E7
:101FB000EC018C8C9D8CAE8CBF8CC88CD98CEA8C3F
:101FC000FB8C0C960E94B90F8C8E9D8EAE8EBF8EB0
:101FD000C88ED98EEA8EFB8EDF91CF91FF90EF9065
:101FE000DF90CF90BF90AF909F908F9008950C9608
:101FF0000C94B90F2F923F924F925F926F927F9203
:102000008F929F92AF92BF92CF92DF92EF92FF9208
:102010000F931F93CF93DF93CDB7DEB728970FB6FB
:10202000F894DEBF0FBECDBF9E838D834B015A0156
:10203000DC0112968C9181FF1AC083FD20C0A5019E
:1020400070E060E0ED81FE8180899189A289B38989
:1020500080959095A095B09565011F01FCE02F0E2D
:10206000311C84179507A607B70708F0E0C0ED817B
:10207000FE81818181608183B12CA12C53C0AD810F
:10208000BE8158964D915D916D917C915B97CD018C
:102090000E94CD0A8111D3CFEACF91018F8198851B
:1020A0000E94F10987FDE3CF811103C18D819E81DB
:1020B0000E94BA0B8111FDC0DACFED81FE81848DC3
:1020C000958DA68DB78D0097A105B10581F4CF013F
:1020D0000E94BA0B882359F2ED81FE818485958593
:1020E000A685B785848F958FA68FB78FE2C0ED81C7
:1020F000FE8184879587A687B787DBC021E069C00A
:10210000ED81FE81808D918DA28DB38D8415950515
:10211000A605B70538F4408E518E628E738E82818B
:1021200080688283C50128960FB6F894DEBF0FBE83
:10213000CDBFDF91CF911F910F91FF90EF90DF9076
:10214000CF90BF90AF909F908F907F906F905F9057
:102150004F903F902F900895EF81F885425051099C
:1021600061097109848104C0440F551F661F771FE0
:102170008A95D2F780899189A289B389480F591F1E
:102180006A1F7B1F80E092E0801B910B76018C150B
:102190009D0508F47C010115110509F0AFCFAD8153
:1021A000BE8150964D905D906D907C90539758965F
:1021B0008D919D910D90BC91A02D481659066A06EF
:1021C0007B0630F4AD81BE8112968C9185FF96CF4F
:1021D00025E0CF0180960E943509009709F447CF8A
:1021E000A701B401800F911F0E945E250E0D1F1DD7
:1021F0000115124051F4ED81FE8186819781809610
:102200000E944F08882309F432CFED81FE81808936
:102210009189A289B3898E0D9F1DA11DB11D808B4F
:10222000918BA28BB38B8E0C9F1CCE18DF08ED8197
:10223000FE814088518862887388C114D10409F4F2
:102240005FCF8681978198878F83DC011396FC90FE
:10225000B301A20199E076956795579547959A95B0
:10226000D1F7F42282011170F11023C04485558505
:10227000668577850115110509F06ECF4115510569
:102280006105710509F419CF228126FF06CF808DE3
:10229000918DA28DB38D481659066A067B0608F00B
:1022A000FCCE4F5F5F4F6F4F7F4F448755876687E8
:1022B0007787AD81BE811696ED91FC9117971C969C
:1022C0004D915D916D917C911F974250510961092B
:1022D0007109848104C0440F551F661F771F8A95BA
:1022E000D2F780899189A289B389840F951FA61F8F
:1022F000B71FAC01BD014F0D511D611D711D0115B1
:10230000110509F03FCFC114B2E0DB0608F43ACF63
:1023100087A190A5A1A5B2A5481759076A077B0711
:1023200041F410A28FEF9FEFDC0187A390A7A1A734
:10233000B2A7940181A192A10E94BB07882309F44E
:1023400096CEE12C82E0F82E60CF0C960C94FA0F1A
:10235000CF93DF931F92CDB7DEB7698341E050E0A2
:10236000BE016F5F7F4F0C960E94FA0F0F90DF91B6
:10237000CF910895FC0101900020E9F73197AF015A
:10238000481B590BBC018BE993E00C94F004CF93EC
:10239000DF930E94DD05EC0184E291E00E94BA1116
:1023A0008C0F9D1FDF91CF9108958F929F92AF92D6
:1023B000BF920F931F93CF93DF93CDB7DEB7A19753
:1023C0000FB6F894DEBF0FBECDBF19A2423008F49D
:1023D0004AE08E010F5D1F4F842E912CB12CA12C51
:1023E000A50194010E942925E62FB901CA01EA300E
:1023F000F4F4E05DD801EE938D01232B242B252BE3
:1024000079F790E080E0109719F0CD010E94BA11A1
:10241000A1960FB6F894DEBF0FBECDBFDF91CF916E
:102420001F910F91BF90AF909F908F900895E95C9E
:10243000E1CFCF93DF930E94BA11EC0184E291E0E7
:102440000E94BA118C0F9D1FDF91CF910895CF93F9
:10245000DF93EC01FC0101900020E9F73197AF0117
:10246000481B590BDC01CD018C1B9D0B8417950774
:1024700064F49D918FE9890F8A31A8F79D0121505D
:1024800031099052F9019083EECFDF91CF910895F9
:10249000FC01808181110FC080E2DF01982F1D9225
:1024A0009A95E9F777836683DB0115969C919031C5
:1024B00029F0903211F080E0089580E4808381E07B
:1024C000828308959F92AF92BF92CF92DF92EF9254
:1024D000FF920F931F93CF93DF93CDB7DEB7A097F3
:1024E0000FB6F894DEBF0FBECDBF19821A821B82D1
:1024F000DC0112962C9121FF12C08C01FC01448D4D
:10250000558D668D778D411551056105710549F42D
:1025100061E0C8010E949D0B7C01009749F480E0B6
:1025200067C0868197810E946C0A8111F1CFF7CF35
:102530000E94BF0AB82E85EEF7018083D8011C9255
:1025400012961C92129716968D919C910E946D0C7A
:10255000882329F3F8019381992309F449C08085E0
:102560009185A285B385668177819E012F5F3F4F5C
:1025700069010097A105B10509F04CC0C9010E948D
:102580004812882361F2EE24E394F12C95EEA92EF3
:10259000D80113968C9113978E1508F214966D91AD
:1025A0007C916E197F09C6010E949C0FFC01892B4A
:1025B00009F4B5CF83858F3009F0B1CF9081892F91
:1025C0008F71E812ACCF85858B11A9CFA082D8017D
:1025D0001696ED91FC9180A1816080A3BFEFEB1A6C
:1025E000FB0A96FFD5CFF801868197810E946D0C7A
:1025F000A0960FB6F894DEBF0FBECDBFDF91CF918E
:102600001F910F91FF90EF90DF90CF90BF90AF9010
:102610009F9008952CE1F60111922A95E9F720E1A7
:10262000298321E02B8378876F838D8F9E8FAF8FD7
:10263000B8A3A9CF5F926F927F928F929F92AF9231
:10264000BF92CF92DF92EF92FF920F931F93CF939F
:10265000DF93CDB7DEB7A0970FB6F894DEBF0FBEFD
:10266000CDBF7C0119821A821B828091700488235D
:1026700009F4CAC09091730491115EC08076F1F0A4
:102680008FE2D7018C9311961C9201E010E0C801F3
:10269000A0960FB6F894DEBF0FBECDBFDF91CF91ED
:1026A0001F910F91FF90EF90DF90CF90BF90AF9070
:1026B0009F908F907F906F905F90089560E080E78B
:1026C00094E00E949D0BFC01009709F49DC05C0101
:1026D00000E068E020E0D5018C912830A9F4803238
:1026E00029F160E19EE2402F50E06A013FEFC31AFA
:1026F000D30A80E4C816D10408F086C00F5F4E0DDF
:102700005F1DDA019C930FC0BFEFAB1ABB0A982F75
:102710003FEB380F3A3128F43485362311F0905EC0
:10272000E2CF803201F72F5F2C30A9F610E0F701DD
:10273000E00FF11F1082ABCF809178049091790463
:10274000A0917A04B0917B04609176047091770433
:10275000FE0131963F010097A105B10509F045C082
:10276000CF010E944812882309F44EC0CC24C394A0
:10277000D12C10E000E0809173048C15C0F26091C0
:102780007404709175046C197D09C3010E949C0F3B
:102790005C010097C9F1DC011B968C911B978F306F
:1027A00099F58C918F71C8122FC04701800E911E30
:1027B000512C652DC5010E94EA03009709F4B7CF9B
:1027C0000F5F1F4F00341105F8F48F37910510F09B
:1027D0008FE390E0F40181934F015394FDE05F1289
:1027E000E8CF2FEFC21AD20AC6CF2CE111922A9558
:1027F000E9F720E1298321E02B8378876F838D8F90
:102800009E8FAF8FB8A3B2CFD7011C9210E000E02B
:102810003ECFCF92DF92EF92FF920F93CF93DF9351
:10282000EC0180E2FE0111928A95E9F7FB01A68195
:10283000B781BF83AE835D834C83C48CD58CE68C1B
:10284000F78CC886D986EA86FB86FD01BB964F7059
:10285000552765E0440F551F6A95E1F7E40FF51F12
:10286000838583FD10C0877188839385987111F4E7
:10287000886088830B83822F8370813009F441C084
:1028800030F08230E1F118821A8280E030C081E0BD
:102890008A838A8181FF03C088818171A1F797961D
:1028A0008D919D910D90BC91A02D8C8B9D8BAE8BAD
:1028B000BF8B84899589B0E0A0E0DC019927882747
:1028C000428D538D70E060E0842B952BA62BB72BA7
:1028D0008C8F9D8FAE8FBF8F448D558D668D778D7C
:1028E000488F598F6A8F7B8F22FD0DC081E0DF9169
:1028F000CF910F91FF90EF90DF90CF90089583E0FC
:10290000C7CF82E0C5CFCE010E94CD0A882309F44B
:10291000BACFECCFCF92DF92EF92FF920F931F933B
:10292000CF93DF93EC018881811116C0909144040C
:10293000907791F040915404509155046091560461
:10294000709157044F7155276627772700E010E0F4
:10295000452B462B472B19F080E030C000E0C0909B
:102960005404D0905504E0905604F090570460E071
:1029700084E494E00E944D0F009771F3FC012081E4
:10298000222351F32E3251F3253E41F3338533FD9B
:102990001EC0002321F00E94BF0A8113DDCFB701C2
:1029A000A60185E076956795579547958A95D1F765
:1029B00020E064E474E0CE010E940914DF91CF911D
:1029C0001F910F91FF90EF90DF90CF9008953F30CF
:1029D00029F626FFC4CF022F0F711585C0CFAF9205
:1029E000BF92CF92DF92EF92FF920F931F93CF93FC
:1029F000DF93EC01888185FF0DC010E0812FDF910E
:102A0000CF911F910F91FF90EF90DF90CF90BF90EB
:102A1000AF90089588899989AA89BB8981159E4FAD
:102A2000AF41B10550F7CE010E94BA0B182F882391
:102A300021F3EE81FF81CC84DD84EE84FF8432E0DB
:102A4000C31AD108E108F108848104C0CC0CDD1C54
:102A5000EE1CFF1C8A95D2F780899189A289B389DF
:102A6000C80ED91EEA1EFB1E00E0A12C82E0B82E83
:102A7000EE81FF8182810817B0F425E0B701A6013D
:102A8000400F511D611D711DCF0180960E943509B7
:102A9000009709F4B2CFFC0195011192215030400A
:102AA000E1F70F5FE5CF848120E032E002C0220F22
:102AB000331F8A95E2F788899989AA89BB89820F91
:102AC000931FA11DB11D888B998BAA8BBB8B96CFB1
:102AD000CF92DF92EF92FF92CF93DF936C01990F29
:102AE000EE08FF08F7FE1FC06DE28BE993E00E943D
:102AF0009005EC0166277727CB016C197D098E09BB
:102B00009F094AE00E94D511C80FD91F84E291E0C5
:102B10000E94BA118C0F9D1FDF91CF91FF90EF9013
:102B2000DF90CF9008954AE0C701B6010E94D51109
:102B3000EC01ECCF2F923F924F925F926F927F9277
:102B40008F929F92AF92BF92CF92DF92EF92FF92BD
:102B50000F931F93CF93DF93CDB7DEB7AC970FB62C
:102B6000F894DEBF0FBECDBF8C016B01FA01DB0113
:102B70008C91807711F480E0B2C1D8018C918111E1
:102B8000FACF868197810C966DE070E00E94152542
:102B90006CA381858370772473948111760E622EE5
:102BA0007F011CA70BA7F6010680F781E02DFAA391
:102BB000E9A3C6010E945C0E1DA21EA2812C912CCD
:102BC00010E000E01BA29701265F3F4F3AA729A71C
:102BD000D60150962D903D904D905C90539765E0B6
:102BE00056944794379427946A95D1F7510160E041
:102BF000C6010E944D0FFC01892B09F0CFC0F601E0
:102C000081818111B8CF64FEB6CF862D837081504B
:102C1000823008F0B0CF112311F0ADA0BEA017157F
:102C2000E0F460E0C6010E944D0F892B09F082C1DB
:102C3000F601818181119FCFC6010E94EF14882384
:102C400009F499CFA9A1BAA112968C91B0E18B9FFA
:102C5000C0011124180F171578F3EBA1EE23E9F149
:102C6000D70118965C9042E6442E10E000E05EE743
:102C7000352E4701BAE08B0E911C0E94C906060F43
:102C8000171FE3E0E51510F433E0532E94E0950DA3
:102C9000802F8F708A3008F04FC1805DF701E90FF7
:102CA000F11D828724E0169507952A95E1F791504A
:102CB000591670F3F701E50DF11D3286C6010E9429
:102CC0005C0E61E0C6010E944D0F009709F036C10D
:102CD000D60111968C9181114ECF0FEF070DA00EEA
:102CE000B11C80E2F601DE01119601900D928A95E9
:102CF000E1F74701FAE08F0E911CC4010E94BF0A60
:102D0000582ED7018D919C91119713969C938E9379
:102D1000129711E0712C402E689446F88FE0382EFF
:102D2000B501011708F438C1611B7109CE01019684
:102D30000E949C0FFC01892B09F41DCFAF81B8853F
:102D400090968C919097816090968C93842D01132E
:102D5000812F8083338614865586138E128ED70179
:102D600014964D915C9160E0D70112962D913C91A3
:102D700013972417350709F0F6C0772009F4FFC030
:102D800073942FEF3FEF653008F0FEC0328321834C
:102D90006F5F32966D3041F71F5FC2CF9081953ED5
:102DA00011F091110EC0111102C02DA23EA21715F3
:102DB00008F41F5F992309F426CF953E29F400E01B
:102DC00007CF171508F44AC09E32C9F383858F30A8
:102DD00009F070C0011144C0292F2F71922E3CA11F
:102DE0003213F6CE96FFF4CE8584032F81E098123D
:102DF000EFCE80E2F601DE01119601900D928A95E8
:102E0000E1F7D7018D919C91119713969C938E9326
:102E1000129744244394041508F4DACEB501CE0188
:102E200001960E949C0F1C01892B49F2F701048036
:102E3000F581E02DF8A7EFA3512C652DC1010E946B
:102E4000EA03D7011296ED91FC912FA138A5E21764
:102E5000F30771F4892B09F4BBCEB1CF10E0B4CFE6
:102E60009A949911ACCF8585881509F4BFCFA7CF67
:102E70008038910508F0A3CF2FE9280F2A3108F4F4
:102E800080529F012F5F3F4FD70113963C932E93A3
:102E9000129790812FE9290F2A3108F49052981344
:102EA0008ECF5394BDE05B12C8CF4394E1E0AE1ADD
:102EB000B108B1CF83FD83CF002351F121E09212FD
:102EC0005ACECF010E94BF0A881155CE66FC53CE60
:102ED000262DA501B6018BA59CA50E940914AC96D0
:102EE0000FB6F894DEBF0FBECDBFDF91CF911F911B
:102EF0000F91FF90EF90DF90CF90BF90AF909F9099
:102F00008F907F906F905F904F903F902F9008959B
:102F10004BE050E069A57AA5CF010E945125892B8D
:102F200009F056CED70119968C9180FFCFCF31E0B2
:102F30003BA34ECE1F5F73CE895CB0CEFC012081D7
:102F4000222309F4CACE238523FDBBCE4BE050E0FB
:102F5000BC01C4010E945125892B09F0B2CE4A94CC
:102F600041108BCE08CEC901019613969C938E9387
:102F70001297D9012C91022E000C330B04CF30E0B4
:102F800020E077247394FFCE6B3018F435832483CC
:102F9000FFCE37832683FCCEC6010E949C0F00978C
:102FA00009F4E9CD20E2FC0111922A95E9F72BE022
:102FB000F401DC0101900D922A95E1F7D7011996F1
:102FC0002C912871FC01248721E234E5318B208B80
:102FD000318F208F338B228BA9A1BAA190968C912F
:102FE0009097816090968C9373CFDF92EF92FF92CF
:102FF0000F931F93CF93DF93CDB7DEB7E7970FB64D
:10300000F894DEBF0FBECDBFFC017FAB6EAB198263
:103010001A821B828081882379F080E0E7960FB6C0
:10302000F894DEBF0FBECDBFDF91CF911F910F91FE
:10303000FF90EF90DF9008959091BB06907769F331
:10304000D42E8F01EEA9FFA980818F3259F18BEB2D
:10305000E82E86E0F82EAE014A5C5F4FBE016F5D40
:103060007F4F8EA99FA90E940E048823B1F2EEA97A
:10307000FFA980818823A1F120E0AE014F5D5F4F61
:10308000B701C8010E949A15882339F280E2F8013D
:10309000DE01119601900D928A95E1F7C8010E9418
:1030A000B90C1AC0EEA9FFA980818F3221F43196A4
:1030B000FFABEEABF7CF6091C1067091C2068111F4
:1030C00004C0C8010E944812A9CFCE0101960E94F7
:1030D0004812882309F4A1CFCE0101967C01BBCF11
:1030E0002D2DAE014F5D5F4FB701C8010E949A15AB
:1030F00095CF0C94F517CF93DF93CDB7DEB7A0979C
:103100000FB6F894DEBF0FBECDBF19821A821B82A4
:1031100040E067E473E0CE0101960E94F517A096A7
:103120000FB6F894DEBF0FBECDBFDF91CF910895EB
:10313000DF92EF92FF920F931F93CF93DF93CDB760
:10314000DEB7A0970FB6F894DEBF0FBECDBF8C01DF
:10315000DB019C91907709F496C07B0122E5C801C0
:103160000E949A15882309F48EC081E0F8018283B9
:1031700080E1D82ED082C8010E94EF14882309F480
:1031800082C0F80184859585A685B785848F958F43
:10319000A68FB78FC8010E945C0EC8010E947F0CE9
:1031A000882309F470C061E0C8010E949D0BFC01F6
:1031B000892B09F468C0D38680E2DE011196019064
:1031C0000D928A95E1F78EE28983FE013296CE0157
:1031D0000C9620E22193E817F907E1F7D80116963B
:1031E000ED91FC9117975C964D915D916D917C915D
:1031F0005F974250510961097109848104C0440FED
:10320000551F661F771F8A95D2F780899189A289F9
:10321000B389480F591F6A1F7B1F21E0CF01809699
:103220000E943509009779F120E2FE013196DC0118
:1032300001900D922A95E1F72EE22A83F701448D41
:10324000558D668D778D7E8B6D8B5C8F4B8F20E2DD
:10325000FE013196DC01909601900D922A95E1F7DE
:10326000D80116968D919C91A0960FB6F894DEBF6A
:103270000FBECDBFDF91CF911F910F91FF90EF90C7
:10328000DF900C946D0C80E0A0960FB6F894DEBF32
:103290000FBECDBFDF91CF911F910F91FF90EF90A7
:1032A000DF9008952F923F924F925F926F927F929C
:1032B0008F929F92AF92BF92CF92DF92EF92FF9246
:1032C0000F931F93CF93DF93CDB7DEB7E1970FB680
:1032D000F894DEBF0FBECDBF382E8AE091E00E9489
:1032E000C7110E94390E80914603811133C08CEFC3
:1032F00090E00E94DD0587E493E00E94191280911E
:103300004703811106C062EF72E087E493E00E94F8
:103310007225CE0101960E94490E40E067E473E0F9
:10332000CE010D960E947918BE016F5F7F4F88E332
:1033300094E00E94E50C80914404811124C08EEE3B
:1033400090E00E94C7118FEF0E947E0D87E291E00E
:103350000E94C90DE1960FB6F894DEBF0FBECDBF37
:10336000DF91CF911F910F91FF90EF90DF90CF9061
:10337000BF90AF909F908F907F906F905F904F9095
:103380003F902F90089580E00E947E0D109293024E
:1033900081E6482E81E0582E0EE912E097E6692E6C
:1033A00091E0792E2DE4C22E21E0D22E30E4A32E1E
:1033B00031E0B32E46E3842E41E0942E2224239460
:1033C0000E94DD0D90914603992349F085EC90E031
:1033D0000E94C71184E494E00E94B90CBBCF8130F5
:1033E00079F38F3F19F489EA90E0F2CF8111E8CFA9
:1033F000CE0101960E94490ECE010D960E948A14BC
:10340000BE016F5F7F4F84E694E00E94E50C8091DF
:10341000700490919302811113C0911107C0209202
:10342000930284E494E00E945C0EE2CF84E494E092
:103430000E94B90C8FEF0E947E0D8AE990E0C8CF00
:10344000807789F19111D4CF80E00E947E0D87E4CE
:1034500093E00E941A1387E493E00E942712809160
:103460007004807749F122E087E493E03216F9F0A6
:103470009F938F939F928F921F930F930E94872504
:103480008EE992E00E94BA0D8EE992E00E94191234
:103490000F900F900F900F900F900F9080E794E097
:1034A0000E94B90C8DCF913009F0A2CFCDCF9F9360
:1034B0008F93BF92AF92E0CF82E0381659F180919E
:1034C0008B048F9380918A048F93809189048F93CA
:1034D000809188048F93DF92CF921F930F930E9465
:1034E00087258EE992E00E94BA0D8EE992E00E9453
:1034F000BA1187E493E00E94BA0D87E493E00E943A
:1035000019128DE00E947E0D0FB6F894DEBF0FBE3B
:10351000CDBFC4CF66E271E0CE018D960E947225C8
:1035200066E271E0CE0101960E94722563E270E0CE
:1035300087E493E00E946725FC01892B29F1108222
:10354000918182817F0123E0E20EF11C903349F4E6
:1035500062E571E0863379F023E22DA79EA78FA75D
:103560000EC09634C9F767E571E0813321F08833E6
:1035700099F76CE571E0CE018D960E947225B70136
:10358000CE0101960E94722587E493E09F938F936A
:103590005F924F921F930F930E9487258EE992E0CE
:1035A0000E94BA0D87E493E00E94BA1180918B04C7
:1035B0008F9380918A048F93809189048F93809157
:1035C00088048F937F926F921F930F930E94872599
:1035D0008EE992E00E94BA0D8EE992E00E94BA1143
:1035E000CE018D960E94BA0DCE018D960E94BA1121
:1035F0000FB6F894DEBF0FBECDBF8DA5882339F07E
:1036000084E20E947E0D8CE691E00E94BA11CE0108
:1036100001960E94BA0DCE0101960E9419128DE00A
:103620000E947E0D3BCF8F929F92AF92BF92CF921E
:10363000DF92EF92FF920F931F93CF931092E306C6
:103640001092E2061092E6068AE08093E10661E0BD
:103650000E94980661E08091E1060E946A0682E578
:103660008093DF061092E006CFB7F8948091920223
:10367000811127C0E0E5F1E08491E4E6F1E0949166
:10368000E82FF0E0EE0FFF1FE85DFE4FA591B4912B
:10369000EC91E92321F461E08AE00E946A0661E08E
:1036A0008AE00E9498068CB580618CBD8CB58064E0
:1036B0008CBD61E08DE00E94980661E08BE00E9485
:1036C0009806809192028F5F80939202CFBF1092F2
:1036D000E4068091E306811104C08DED96E00E941E
:1036E000DC0661E08091E1060E946A06CAE08FEF85
:1036F0000E94D506C150D9F760E08091E1060E9492
:103700006A06CAE020E030E0A90160E08DED96E0B5
:103710000E946E07182F813009F478C0C15091F7CC
:1037200081E08093E2068DED96E00E940A078DED20
:1037300096E09093DC068093DB06C091E206C1110F
:103740006EC190939104809390041092950441E08F
:1037500050E060E070E040939804509399046093C7
:103760009A0470939B049093B2048093B1041092D6
:10377000B0048FEF9FEFDC018093B7049093B804FF
:10378000A093B904B093BA0420E040E050E0BA013D
:1037900080EB94E00E943509009709F440C1FC01D8
:1037A000E254FE4F2481222309F439C120812F776E
:1037B00009F035C18A539E4FFC01C080D180E28060
:1037C000F380B701A60180EB94E00E943509FC016B
:1037D000892B09F424C18089823009F020C18385B6
:1037E00094858115924009F01AC1958590939204B1
:1037F0008FEF890F8093930481E0981709F477C0C5
:10380000CF5FC93009F454C1880FF7CF2AEA31E0FD
:1038100040E050E068E08DED96E00E946E0782FD8A
:103820000EC082E08093E606C4E00E94EF0680931B
:10383000E506C150D1F78A3A21F086E072CF1093A5
:10384000E6068091E606C12CD12CE12CB0E4FB2EDB
:10385000823019F0C12CD12C76010E94C9068B014F
:103860000053184F20E030E0A90167E38DED96E0AA
:103870000E946E07A701960169E28DED96E00E9415
:103880006E07882349F00E94C906C801861B970B62
:1038900097FFE8CF87E145CF8091E6068230D1F4EB
:1038A00020E030E0A9016AE38DED96E00E946E070A
:1038B000882311F082E135CF0E94EF06807C803CA6
:1038C00019F483E08093E6060E94EF060E94EF065B
:1038D0000E94EF068DED96E00E940A0780E5809336
:1038E000DF0681E08093E0061092EB0620CFC093C4
:1038F000940486899789B0E0A0E080939C0490931B
:103900009D04A0939E04B0939F04892B8A2B8B2B3C
:1039100061F484A195A1A6A1B7A180939C04909382
:103920009D04A0939E04B0939F04868597854601CD
:103930005701880E991EA11CB11C8092A40490927C
:10394000A504A092A604B092A704818992899093BD
:1039500097048093960440919C0450919D0460913B
:103960009E0470919F048A019B01000F111F221F6A
:10397000331F080D191D2A1D3B1D0093AC04109325
:10398000AD042093AE043093AF04B5E0880F991FC7
:10399000BA95E1F781509E4F892F99278695080F98
:1039A000191F211D311D0093A0041093A104209321
:1039B000A2043093A30483899489B0E0A0E0009727
:1039C000A105B10521F480A191A1A2A1B3A1C01AC2
:1039D000D10AE20AF30A8C0D9D1DAE1DBF1D6C01BC
:1039E0007D0104C0F694E794D794C794CA95D2F7A2
:1039F000D701C6010196A11DB11D8093A804909323
:103A0000A904A093AA04B093AB0485EFC8168FE075
:103A1000D806E104F10448F48CE08093950488E62C
:103A200090E00E94C711C0E036C080E125EFC216C9
:103A30002FEFD206E104F10468F084A595A5A6A5B0
:103A4000B7A58093AC049093AD04A093AE04B0935B
:103A5000AF0480E2809395044093B3045093B40480
:103A60006093B5047093B6048BEB96E00E94B90C9A
:103A700060E974E08BEB96E00E944812C82F88231F
:103A800071F280E994E0909391028093900286E82D
:103A900090E00E94C7118C2FCF911F910F91FF9042
:103AA000EF90DF90CF90BF90AF909F908F90089550
:103AB00088E080939404B3CF1F920F920FB60F92B9
:103AC00011242F933F934F935F936F937F938F9323
:103AD0009F93AF93BF93EF93FF938BE993E00E9483
:103AE0006E05FF91EF91BF91AF919F918F917F9163
:103AF0006F915F914F913F912F910F900FBE0F905B
:103B00001F9018951F920F920FB60F9211242F93AA
:103B10008F939F93EF93FF93E091AB03F091AC03EE
:103B20008081E091B103F091B20382FD1BC09081CE
:103B30008091B4038F5F8F732091B503821741F09A
:103B4000E091B403F0E0E556FC4F958F8093B40309
:103B5000FF91EF919F918F912F910F900FBE0F903A
:103B60001F9018958081F4CF1F920F920FB60F927D
:103B700011242F933F938F939F93AF93BF93809183
:103B8000990290919A02A0919B02B0919C0230916F
:103B9000980223E0230F2D3758F50196A11DB11D82
:103BA000209398028093990290939A02A0939B028B
:103BB000B0939C028091940290919502A0919602FC
:103BC000B09197020196A11DB11D8093940290932C
:103BD0009502A0939602B0939702BF91AF919F91E7
:103BE0008F913F912F910F900FBE0F901F901895BE
:103BF00026E8230F0296A11DB11DD2CFEBE9F3E019
:103C00001382128288EE93E0A0E0B0E08483958373
:103C1000A683B78386E191E09183808385EC90E071
:103C20009587848784EC90E09787868780EC90E086
:103C3000918B808B81EC90E0938B828B82EC90E077
:103C4000958B848B86EC90E0978B868B118E128EF1
:103C5000138E148E109295041092BB061092BC061F
:103C60001092BD061092DC061092DB0680E5809370
:103C7000DF061092E00689E28093E2061092E606E3
:103C80001092EB0684E694E00E94490E88E394E0EB
:103C90000C94490ECF93DF93CDB7DEB7C75DD10942
:103CA0000FB6F894DEBF0FBECDBF789484B58260A6
:103CB00084BD84B5816084BD85B5826085BD85B5D0
:103CC000816085BD80916E00816080936E0010924E
:103CD00081008091810082608093810080918100C9
:103CE000816080938100809180008160809380005A
:103CF0008091B10084608093B1008091B0008160B8
:103D00008093B00080917A00846080937A008091E3
:103D10007A00826080937A0080917A00816080933B
:103D20007A0080917A00806880937A001092C100B6
:103D3000E091AB03F091AC0382E08083E091A703B4
:103D4000F091A8031082E091A903F091AA0380E109
:103D500080831092B303E091AF03F091B00386E04B
:103D60008083E091AD03F091AE0380818061808318
:103D7000E091AD03F091AE03808188608083E09193
:103D8000AD03F091AE03808180688083E091AD0344
:103D9000F091AE0380818F7D808382E891E00E9464
:103DA000C7110E94131B60E08FE00E94980661E03B
:103DB0008EE00E94980660E08EE00E946A068FEF17
:103DC00080939D0280E00E94090D6EE671E082EF13
:103DD00092E00E9472258E010B5A1F4F49EA242E51
:103DE000312C2C0E3D1E2CE0220E311C109246036D
:103DF0000E94DD0DF82E809146038111DAC00E94E9
:103E0000C9064B015C01F110E6C086E492E00E9415
:103E1000C7110E94390E809146038111B1C087E31A
:103E200092E00E94DD0587E493E00E9419120E944F
:103E30007B1881110AC084E292E00E94C7118FEFC3
:103E40000E947E0D80E791E0E8C0CE0101960E94BD
:103E5000490E40E067E473E0CE010D960E947918A8
:103E6000BE016F5F7F4F84E694E00E94E50C809175
:103E7000700481110AC081E192E00E94C7118FEFA6
:103E80000E947E0D80E891E0C8C0807771F080E7E5
:103E900094E00E94B90C86E092E00E94C7118FEF77
:103EA0000E947E0D81E991E0B8C08BEE91E00E9406
:103EB000C71180E00E947E0D80914603811160C091
:103EC00083ED91E00E94C71180918804F0908904ED
:103ED0000E947E0D8F2D0E947E0D809146038111E0
:103EE0004FC08DEB91E00E94C711F12CE12C809125
:103EF000700483FF32C08091880490918904A0915E
:103F00008A04B0918B0440918004509181046091A7
:103F1000820470918304841B950BA60BB70B81154B
:103F2000E0E89E07A105B10520F08FEF9FE7A0E034
:103F3000B0E0892BB1F080914603811112C080E777
:103F400094E00E94B90F0E947E0D8091460381117A
:103F5000CECFFFEFEF1AFF0ACACF80E090E0DC017E
:103F6000DECF80E794E00E94B90C8091460388235D
:103F700069F187EA91E00E94DD05C7010E9468159A
:103F800089E497E00E94DD050E94C9066819790955
:103F90008A099B094AE00E94D51184E291E00E94BF
:103FA000BA1180914603882321F082E397E00E94B2
:103FB000C71180E090E0892B09F418CF0E945A05C0
:103FC000882309F413CF0E94000010CF8AE991E002
:103FD0000E94C711D5CF21E0F212A1C08FE193E07A
:103FE0000E94C7110E94390E809146038111C8CFEB
:103FF0008FE093E00E94DD0587E493E00E941912B0
:104000000E947B18882361F08CEF92E00E94C71118
:104010008FEF0E947E0D8DE991E00E94C90DB0CF17
:10402000CE0101960E94490E46E167E473E0CE019D
:104030000D960E947918BE016F5F7F4F84E694E071
:104040000E94E50C8091700481110AC08FED92E00E
:104050000E94C7118FEF0E947E0D82EB91E0DDCFB1
:104060008AEB92E00E94C71180E00E947E0D809151
:104070004603811185CF8CE992E00E94C7110E940E
:10408000DD0DE82E0E94DD0D70904603711078CF93
:10409000F82E87E892E00E94DD05C7010E946815AE
:1040A000D12CC12CCE14DF04E4F40E94DD0D9091DC
:1040B0004603911116C0C952DF4F8883C75DD040B7
:1040C00041E050E0BE0169527F4F80E794E00E94DA
:1040D000FA0F019711F0772473948FEFC81AD80A5A
:1040E000E1CF80E794E00E94B90C809146038111F2
:1040F00047CF772071F086E792E00E94C7118FEFDB
:104100000E947E0D8091460381113ACF85EC91E0AB
:1041100084CF89E692E00E94C71180E079C394E0E1
:10412000F912D6C188E095E00E94C7110E94390EAD
:1041300050904603511024CF89EF94E00E94DD0592
:1041400087E493E00E94191267E473E0C8010E94BB
:104150007225F80101900020E9F73197E01BF10B7F
:10416000BF0161507109E00FF11F161617060CF020
:1041700084C0D801A60FB71F82918F3209F07AC090
:104180001C926F5F7F4F600F711FCE0101960E94DE
:1041900072258FE294E00E94DD05C8010E94BA11E9
:1041A00082E294E00E94DD05FE0131966F01CF01AD
:1041B0000E941912F8018081811167C083E094E0A8
:1041C0000E94C711F801808132EFE32E32E0F32E16
:1041D00081117801CE0187559F4F0E94490E40E022
:1041E000B70189EA90E08C0F9D1F0C960E94791808
:1041F000BE0167557F4F88E394E00E94E50C8091F3
:104200004404882309F446C087ED93E00E94C71157
:104210008BEB93E00E94C71122E0622E712C81E0AB
:104220000E947E0D80914603811134C0CE018755D6
:104230009F4F0E94490EC1010E948A14BE0167551A
:104240007F4F84E694E00E94E50C80917004811118
:1042500028C084E494E06A946728D1F00E945C0E40
:104260008DE993E00E94C71155245394662463940A
:10427000712CD5CF6150710978CF66E271E0C80129
:104280000E94722567E473E080CF82EE93E098CFBE
:104290000E94B90C0E947B1881118DC080ED94E0C2
:1042A000CCCD8EE992E00E941A138EE992E00E9432
:1042B000271280E794E00E94B90C80E993E00E9405
:1042C000DD058EE992E00E941912F60101900020AE
:1042D000E9F731977F01EC18FD08A7016EE972E05C
:1042E000C6010E94792551104AC0892B09F097CF49
:1042F000F701E256FD4F8081833209F090CF8BE7C2
:1043000093E00E94C711F8018081882329F183E49A
:1043100093E00E94C7116EE972E087E493E00E9487
:104320007225F80180818F3281F5818181112DC044
:1043300087E493E09F938F9384ED91E09F938F9315
:104340008EE992E09F938F930E9487250F900F90A4
:104350000F900F900F900F9084E494E00E94B90C9E
:1043600083EE94E00E94DD058EE992E00E9419122E
:104370006EE972E087E493E00E9472258BCF892B6F
:1043800009F04DCF85E693E0BCCF87E493E09F939F
:104390008F931F930F9382ED91E09F938F938EE9FC
:1043A00092E09F938F930E9487250FB6F894DEBF0B
:1043B0000FBECDBFD1CFC6010E94490E40E067E4D9
:1043C00073E0CE010D960E947918B60184E694E060
:1043D0000E94E50C80917004811103C08DEB94E084
:1043E0004CCD807739F080E794E00E94B90C82EBE5
:1043F00094E053CD87E994E00E94C71180E00E94C9
:104400007E0D809146038111BBCD8FE794E00E9421
:10441000C71187E493E00E94C90D80918804F09051
:1044200089040E947E0D8F2D0E947E0D809146038F
:104430008111A6CD89E694E00E94C711F12CE12CF0
:104440008091700483FF32C0809188049091890428
:10445000A0918A04B0918B04409180045091810412
:104460006091820470918304841B950BA60BB70B9B
:104470008115E0E89E07A105B10520F08FEF9FE7C9
:10448000A0E0B0E0892BB1F080914603811112C009
:1044900080E794E00E94B90F0E947E0D8091460350
:1044A0008111CECFFFEFEF1AFF0ACACF80E090E074
:1044B000DC01DECF80E794E00E94B90C80914603D6
:1044C000882319F083E594E056CD86E494E080CD0E
:1044D0002BE0F2125EC081E995E00E94C7110E94B4
:1044E000390E8091460381114BCD80E895E00E9402
:1044F000DD0587E493E00E9419120E947B18811168
:1045000005C08CE695E00E94C7119CCC80914603C3
:10451000811136CDCE0101960E94490E46E167E435
:1045200073E0CE010D960E947918BE016F5F7F4F38
:1045300084E694E00E94E50C8091700481110DC026
:104540008CE495E00E94C71188ED91E00E94C90DAE
:1045500080E794E00E94B90C13CD8091460381114D
:104560000FCD80E794E00E946212811103C088E3BE
:1045700095E0E8CF80E794E00E94B90C87E493E0EF
:104580000E94BA0D8BEE91E00E94C90D8BE295E07E
:104590001FCD8FE0F81267C087EF95E00E94C7112A
:1045A0000E94390E809146038111EACC81EE95E09C
:1045B0000E94DD0587E493E00E9419128091460372
:1045C0008111DECC0E947B18811107C08EEC95E032
:1045D0000E94C71187E291E020CD19821A821B82C6
:1045E00040E067E473E0CE0101960E94F51788234E
:1045F00089F0898184FF0EC0CE0101960E945C0E75
:1046000061E0CE0101960E944D0F009751F48A811E
:10461000882399F08BEB95E00E94C71184EF91E01D
:10462000FCCCFC012081222341F0253E49F32E32AF
:1046300039F3838583FDE4CFEDCF88E089838B81D7
:1046400082608B83CE0101960E946212882311F34F
:1046500087E493E00E94BA0D86E092E00E94C90DC3
:104660008FEA95E0B5CCFEE0FF12B5C08AE596E092
:104670000E94C7110E94390E80914603811180CC9F
:1046800084E496E00E94DD0587E493E00E9419121D
:1046900080914603811174CC0E947B18882339F0E5
:1046A00082E396E00E94C71185E192E0B6CCF80162
:1046B00010821182128287E493E0CB52DF4F9983FC
:1046C0008883C55DD04019821A821B828091BB0607
:1046D000807709F45BC0809147038F32E1F18BEB67
:1046E000E82E86E0F82EAE014B525F4FBE016755B3
:1046F0007F4FCB52DF4F88819981C55DD0400E94AA
:104700000E04882309F442C0CB52DF4FE881F981BF
:10471000C55DD0408081882309F449C020E0AE0106
:1047200047555F4FB701C8010E949A158823A9F128
:1047300080E2F801DE01119601900D928A95E1F771
:10474000C8010E94B90CFE0131967F01CCCFCE0189
:1047500001967C01C8CFCB52DF4FE881F981C55D5E
:10476000D04080818F3241F43196CB52DF4FF983B4
:10477000E883C55DD040EFCF6091C1067091C2065D
:10478000CE0101960E9448128111E1CF83E296E0AA
:104790000E94C71189E292E040CCAE0147555F4FBD
:1047A000B701C8010E9498188111C2CFEFCFAE01A6
:1047B00047555F4FB701C8010E949818882331F30D
:1047C00087E493E00E94BA0D89E392E00E94C90D4C
:1047D00087E196E0FDCBFDE0FF12EAC087EF96E0AF
:1047E0000E94C7110E94390E809146038111C8CBE7
:1047F0008EED96E00E94DD0587E493E00E94191299
:10480000809146038111BCCB80914703811103C085
:104810000E947E0DB5CB8E32F9F4809148038E3222
:10482000D9F480914903811117C062EF72E087E4E7
:1048300093E00E947225E7E4F3E001900020E9F79D
:104840003297CF0187549340181619062CF48081B3
:10485000108231978F32A9F7809147038F3249F543
:1048600080914803811125C08BEB96E00E94B90C22
:1048700060E974E08BEB96E00E944812882379F09F
:1048800067E473E082EF92E00E9472258EEC96E07E
:104890000E94DD0582EF92E00E9419123ECC8BEB64
:1048A00096E00E94C7118FEF0E947E0D88E492E08F
:1048B000B4CB19821A821B8240E067E473E0CE0118
:1048C00001960E94F5178823C9F089818077B1F09D
:1048D00080E2FE013196ABEBB6E001900D928A9535
:1048E000E1F7809147038F3299F467E473E082EF38
:1048F00092E00E9472258BEA96E0CACF8FEF0E9469
:104900007E0D0E947B1881112BC08DE996E060CE50
:104910008091F2028F3231F48091F302811102C052
:104920001092F20287E493E09F938F9382EF92E0DC
:104930009F938F9382ED91E09F938F938EE992E006
:104940009F938F930E9487256EE972E082EF92E039
:104950000E9472250FB6F894DEBF0FBECDBFCBCF3D
:10496000CE0101960E94490E40E067E473E0CE015B
:104970000D960E947918BE016F5F7F4F84E694E028
:104980000E94E50C809170048077F82E80E794E017
:104990000E94B90CF11007C08DE896E00E94C71183
:1049A0008AE592E03ACB8AE796E00E94C7117ECF73
:1049B00093E1F91207C084E197E00E94C71182EFEA
:1049C00092E02BCBE2E082E0FE1621F0FCE0FF1249
:1049D00004C08CE00E945219D3CA24E1F2120AC02A
:1049E000809146038111CCCA0E94DD0D80950E9402
:1049F0007E0DF6CF87E1F8120AC00E94131B8823B0
:104A000019F08BE692E009CB81E892E006CB8DE6C7
:104A100097E00E94DD056F2D70E090E080E04AE0B5
:104A20000E94D51183E697E0D3CAAA1BBB1B51E1B4
:104A300007C0AA1FBB1FA617B70710F0A61BB70B0E
:104A4000881F991F5A95A9F780959095BC01CD01B3
:104A50000895A1E21A2EAA1BBB1BFD010DC0AA1FBF
:104A6000BB1FEE1FFF1FA217B307E407F50720F0D7
:104A7000A21BB30BE40BF50B661F771F881F991F52
:104A80001A9469F760957095809590959B01AC019B
:104A9000BD01CF010895EE0FFF1F0590F491E02DA9
:104AA0000994FB01DC0104C08D910190801921F46F
:104AB00041505040C8F7881B990B0895FB01DC0159
:104AC00002C001900D9241505040D8F70895FC016A
:104AD0008191861721F08823D9F799270895319776
:104AE000CF010895FB01DC0101900D920020E1F758
:104AF0000895FB01DC014150504030F08D91019050
:104B0000801919F40020B9F7881B990B0895AEE0BD
:104B1000B0E0EDE8F5E20C9436280D891E8986E0B8
:104B20008C831A8309838FEF9FE79E838D83AE0169
:104B3000475E5F4F6F89788DCE0101960E94AA254E
:104B40002F813885020F131FF80110822E96E4E0A2
:104B50000C945228ABE0B0E0E0EBF5E20C9428288E
:104B60007C013B018A01FC0117821682838181FF4F
:104B7000C8C1CE0101965C01F7019381F30193FD59
:104B8000859193FF81913F01882309F453C18532B8
:104B900039F493FD859193FF81913F01853229F48A
:104BA000B70190E00E949A27E7CF912C212C312C5D
:104BB000FFE1F31538F08B3211F190F4803209F1F6
:104BC000833229F137FC3CC020ED280F2A3050F504
:104BD00036FE20C08AE0989E200D1124922E06C039
:104BE0008D3291F0803371F7689430F8F30193FDC2
:104BF000859193FF81913F018111DACF21C06894A3
:104C000031F8689432F8F2CF689433F8EFCF6894B3
:104C100034F8ECCFEAE02E9E200D1124222E689469
:104C200035F8E4CF8E3229F436FC04C1689436F8A6
:104C3000DDCF8C3619F4689437F8D8CF8836B1F2C6
:104C4000982F9F7D95549330E0F08336A1F1833700
:104C5000C1F1833509F063C02801F2E04F0E511C09
:104C6000F801C080D180692D70E036FC02C06FEF82
:104C70007FEFC6010E9484274C01689437F88201B7
:104C80000AC00C5F1F4FFFE3F98388248394912CA3
:104C90006501E89437F833FE2DC0522C811491043D
:104CA00071F5552009F468CFB70180E290E00E94C9
:104CB0009A275A94F6CFF801808189830E5F1F4F9F
:104CC000E4CF2801F2E04F0E511CF801C080D180E2
:104CD000692D70E036FC02C06FEF7FEFC6010E94C5
:104CE0008F274C018201D5CFB70180E290E00E946E
:104CF0009A272A942814190409F0B0F7CECFF601A8
:104D000037FC859137FE81916F01B70190E00E94D9
:104D10009A2751105A94F1E08F1A9108BFCF843628
:104D200019F0893609F077C0F80137FE6BC0608151
:104D30007181828193810C5F1F4FF32DFF763F2E8F
:104D400097FF09C090958095709561957F4F8F4F23
:104D50009F4F689437F82AE030E0A5010E94CA27E7
:104D6000C82ECA188C2C432C36FE0CC0E89440F890
:104D7000C91440F434FE05C032FC03C0F32DFE7E9E
:104D80004F2E892C44FE95C0FE01EC0DF11D808153
:104D9000803309F087C0242D297E422E842D88700F
:104DA000582E43FC95C040FE8FC09C2C821418F4F2
:104DB0002C0C922C981844FE91C0B70180E390E02F
:104DC0000E949A2742FE09C088E790E041FE02C097
:104DD00088E590E0B7010E949A27C91408F48AC0B8
:104DE000CA94D12C9FEFC91AD90ACA0CDB1CF60150
:104DF00082916F01B70190E00E949A27AC14BD0424
:104E0000B1F74FCF60817181072E000C880B990B91
:104E10000E5F1F4F92CFD32CE894D4F82AE030E0F5
:104E2000853739F1232D297FD22E8F3601F148F4B1
:104E30008835A9F0F701868197812B96E2E10C94E1
:104E40004428803749F08837A9F7D4FE02C0689417
:104E5000D2F820E130E00DC06894D4F8F6CF34FEEB
:104E600003C0822F8660D82E20E132E002C028E005
:104E700030E0F801D7FE0FC060817181828193819B
:104E80000C5F1F4FA5010E94CA27C82ECA183D2CCF
:104E9000E89437F867CF6081718190E080E00E5F21
:104EA0001F4FF0CF42FC02C0839478CF8394839449
:104EB00075CF842D867809F471CFF6CFB70180E2E3
:104EC00090E00E949A2783948214C0F3512C73CFF0
:104ED000522C5818821408F46ECFF8CF842D86789F
:104EE00009F47BCF8BE241FE80E247FC8DE2B70103
:104EF00090E071CFB70180E390E00E949A279A94E6
:104F00006CCF8FEF9FEF99CFFC01059061507040FF
:104F10000110D8F7809590958E0F9F1F0895FC0182
:104F20006150704001900110D8F7809590958E0FD8
:104F30009F1F08950F931F93CF93DF93182F092F6F
:104F4000EB018B8181FD09C01FEF0FEF812F902FA7
:104F5000DF91CF911F910F91089582FF14C02E8190
:104F60003F818C819D81281739073CF4E881F981C4
:104F7000CF0101969983888310838E819F8101964A
:104F80009F838E83E3CFE885F985812F0995892B4F
:104F9000A1F3DACFFA01AA27283051F1203181F1AB
:104FA000E8946F936E7F6E5F7F4F8F4F9F4FAF4F31
:104FB000B1E03ED0B4E03CD0670F781F891F9A1F44
:104FC000A11D680F791F8A1F911DA11D6A0F711DF8
:104FD000811D911DA11D20D009F468943F912AE004
:104FE000269F11243019305D3193DEF6CF010895EC
:104FF000462F4770405D4193B3E00FD0C9F7F6CF1D
:10500000462F4F70405D4A3318F0495D31FD4052E4
:10501000419302D0A9F7EACFB4E0A695979587957A
:1050200077956795BA95C9F7009761057105089559
:105030009B01AC010A2E0694579547953795279505
:10504000BA95C9F7620F731F841F951FA01D08959D
:105050002F923F924F925F926F927F928F929F9288
:10506000AF92BF92CF92DF92EF92FF920F931F9376
:10507000CF93DF93CDB7DEB7CA1BDB0B0FB6F89427
:10508000DEBF0FBECDBF09942A88398848885F8467
:105090006E847D848C849B84AA84B984C884DF80D8
:1050A000EE80FD800C811B81AA81B981CE0FD11DBC
:1050B0000FB6F894DEBF0FBECDBFED010895F89492
:0250C000FFCF20
:1050C20000000000A811A511610EC30CC60CF70F59
:1050D200CE0F000000009005F0041D05F8054E05F6
:1050E2002C0540050D0A003F444952204E4F5420E2
:1050F200464F554E440028444952292025730D003D
:10510200252D3135732028444952290D0025356457
:10511200200042494E200042415320004153422088
:1051220000252D31357300253664200024002F0020
:105132003F46494C45204E4F5420464F554E440061
:105142003F43414E2754204F50454E2046494C453F
:10515200003F4E4F5420412046494C45003F4649AE
:105162004C4520414C5245414459204558495354DD
:1051720053003F43414E275420435245415445205A
:1051820046494C45003F5752495445204552524FDB
:10519200520025732F2573003F43414E275420446C
:1051A200454C4554452046494C45002044454C4514
:1051B200544544003F43414E27542052454D4F56DB
:1051C2004520444952002028444952292052454D45
:1051D2004F564544003F44495220414C52454144B8
:1051E2005920455849535453003F43414E275420B8
:1051F2004D414B4520444952002028444952292020
:1052020043524541544544003F43414E27542043B5
:1052120048414E474520444952003F4E4F54204199
:10522200204449524543544F5259004D4F554E5414
:10523200494E47205344434152442E2E2E0D4F4B8C
:10524200003F53442043415244204552524F5200A2
:00000001FF
