:100000004AC1000079C1000077C1000075C100003D
:1000100073C1000071C100006FC100006DC100001C
:100020006BC1000069C1000067C1000065C100002C
:1000300063C1000061C100005FC100005DC100003C
:100040005BC1000059C1000057C1000055C100004C
:1000500053C1000051C100004FC100000C941D129B
:100060004BC100000C94E7110C94BD1145C1000078
:1000700043C1000041C100003FC100003DC100007C
:100080003BC1000039C1000037C1000035C100008C
:1000900033C1000031C100002FC100002DC100009C
:1000A0002BC1000029C1000027C1000025C10000AC
:1000B00023C1000021C100001FC100001DC10000BC
:1000C0001BC1000019C1000017C1000015C10000CC
:1000D00013C1000011C100000FC100000DC10000DC
:1000E0000BC1000007634236B79BD8A71A39685680
:1000F00018AEBAAB558C1D3CB7CC5763BD6DEDFD4A
:10010000753EF6177231BF000000803F0800000006
:10011000BE922449123EABAAAA2ABECDCCCC4C3EFC
:1001200000000080BEABAAAAAA3E00000000BF00EB
:100130000000803F0000000000084178D3BB4387E7
:10014000D1133D190E3CC3BD4282AD2B3E68EC82FB
:1001500076BED98FE1A93E4C80EFFFBE01C4FF7F80
:100160003F000000000021402324255E262A282984
:100170005F2B7B7D7C7E3A227E3C3E3F2D3D5B5D4E
:100180005C203B27602C2E2F2F2A2D2B13000022C2
:1001900000250028002B002E003100340002010051
:1001A00000050108010B0100000A0B02090C0D0EED
:1001B0000807030401000000000000000000000028
:1001C000000000000000000000000000000000002F
:1001D00000000012111000000000000000000000EC
:1001E00000000000000000000000000000000021EE
:1001F00000240027002A002D0030003300010100F8
:1002000000040107010A0101021020200808102043
:100210004010204080020102010804020101020492
:100220000810204080804020100804020180040251
:1002300001804020100804020108040201010204A8
:1002400008102040800102040810204080050505A8
:1002500005070508080808020202020A0A0808043D
:10026000040404010101010101010103030303036B
:10027000030303040707070C0C0C0C0C0C0C0C02FA
:1002800002020206060606060606060B0B0B0B0B01
:100290000B0B0B00671211241FBECFEFD1E2DEBFA4
:1002A000CDBF00E00CBF27E0A8EAB6E001C01D9278
:1002B000A73FB207E1F716E0A0E0B2E0E8E5F4E31B
:1002C00000E00BBF02C007900D92A83AB107D9F722
:1002D00011E0CBE4D1E000E006C021970109802FB6
:1002E000FE010E941B1ACA34D10780E00807A9F753
:1002F0000E9431130C942A1A83CE8CBD9DBD0895A3
:10030000AF92BF92CF92DF92EF92FF920F931F9323
:10031000CF93DF936C017B018B01040F151FEB0161
:100320005E01AE18BF08C017D10759F06991D60118
:10033000ED91FC910190F081E02DC6011995892B7A
:1003400079F7C501DF91CF911F910F91FF90EF9049
:10035000DF90CF90BF90AF900895FC01538D448DF6
:10036000252F30E0842F90E0821B930B541710F060
:10037000CF96089501970895FC01918D828D98176D
:1003800061F0A28DAE0FBF2FB11D5D968C91928D45
:100390009F5F9F73928F90E008958FEF9FEF089576
:1003A000FC01918D828D981731F0828DE80FF11D3F
:1003B000858D90E008958FEF9FEF0895FC01918D5A
:1003C000228D892F90E0805C9F4F821B91098F7353
:1003D000992708958DEB96E0F1DF21E0892B09F450
:1003E00020E0822F0895FC01A48DA80FB92FB11D24
:1003F000A35ABF4F2C91848D90E001968F7399275B
:10040000848FA689B7892C93A089B1898C91837038
:1004100080648C93938D848D981306C00288F38931
:10042000E02D80818F7D80830895EF92FF920F935E
:100430001F93CF93DF93EC0181E0888F9B8D8C8D90
:1004400098131AC0E889F989808185FF15C09FB784
:10045000F894EE89FF896083E889F9898081837047
:10046000806480839FBF81E090E0DF91CF911F91F6
:100470000F91FF90EF900895F62E0B8D10E00F5F17
:100480001F4F0F731127E02E8C8D8E110BC00FB6EE
:1004900007FCFACFE889F989808185FFF5CFCE0185
:1004A000A2DFF2CFEB8DEC0FFD2FF11DE35AFF4FD2
:1004B000F0829FB7F8940B8FEA89FB898081806274
:1004C000D0CFCF93DF93EC01888D8823B1F0AA8938
:1004D000BB89E889F9898C9185FD03C0808186FDFF
:1004E0000CC00FB607FCF7CF8C9185FFF2CF80814F
:1004F00085FFEDCFCE0177DFEACFDF91CF91089571
:1005000080E090E0892B21F065DF81110E940000DE
:1005100080E090E0892B49F080E090E0892B29F081
:100520000E94000081110E94000080E090E0892B71
:1005300049F080E090E0892B29F00E9400008111B1
:100540000E94000080E090E0892B49F080E090E07C
:10055000892B29F00E94000081110C94000008955D
:10056000282F30E0F901E955FE4F9491F901E95F38
:10057000FD4F4491235B3D4FF9012491222309F45F
:1005800035C0992311F191509231F8F4E92FF0E040
:100590008827E253FD4F8F4F0C941B1AFF02030371
:1005A000E002F702FB02E50206030C031003160348
:1005B0001A031E0324032803E5022C033203360327
:1005C000809180008F7780938000E22FF0E0EE0F23
:1005D000FF1FE357FE4FA591B4918FB7F894EC91AC
:1005E000611148C040954E234C938FBF0895809170
:1005F00080008F7DE8CF80918000877FE4CF84B535
:100600008F7784BDE2CF84B58F7DFBCF8091B00022
:100610008F778093B000D9CF8091B0008F7DF9CFD4
:10062000809190008F7780939000CFCF8091900041
:100630008F7DF9CF80919000877FF5CF8091A000CA
:100640008F778093A000C1CF8091A0008F7DF9CFDC
:100650008091A000877FF5CF809120018F778093D4
:100660002001B3CF809120018F7DF9CF80912001AF
:10067000877FF5CF4E2BB8CFCF93DF9390E0FC016F
:10068000E95FFD4F2491835B9D4FFC01849188239A
:10069000D1F090E0880F991FFC01E351FE4FA59126
:1006A000B491FC01E357FE4FC591D49161110EC086
:1006B0009FB7F8948C91E22FE0958E238C9328813C
:1006C000E223E8839FBFDF91CF9108958FB7F8941D
:1006D000EC91E22BEC938FBFF6CF3FB7F89480916B
:1006E000B1069091B206A091B306B091B40626B5BA
:1006F000A89B05C02F3F19F00196A11DB11D3FBF5A
:10070000BA2FA92F982F8827BC01CD01620F711D28
:10071000811D911D42E0660F771F881F991F4A9522
:10072000D1F708958F929F92AF92BF92CF92DF92AE
:10073000EF92FF924B015C01D0DF6B017C01CDDFBA
:100740006C197D098E099F09683E734081059105EA
:10075000B0F321E0821A9108A108B10888EEC80E12
:1007600083E0D81EE11CF11C81149104A104B104A2
:1007700031F7FF90EF90DF90CF90BF90AF909F90B8
:100780008F9008952FB7F8946091AD067091AE06E2
:100790008091AF069091B0062FBF08950F931F93DD
:1007A000CF93DF93FC018B01EA0180819181892B3A
:1007B00031F19281992349F128813981232BF9F074
:1007C000D8012D913C91D9014C918381682F691BEF
:1007D000770B80819181860F971FDC014C9382817A
:1007E0008150828388819981019799838883D80178
:1007F0008D919C91119701968D939C93DACF80E017
:10080000DF91CF911F910F9108958381828381E0C1
:10081000F7CF2F923F924F925F926F927F928F927B
:100820009F92AF92BF92CF92DF92EF92FF920F937F
:100830001F93CF93DF9300D01F921F92CDB7DEB7E7
:10084000D80112962C911297213009F484C02B0103
:100850009D838C83FC0162814C91641739F0019077
:10086000F081E02D0480F581E02D19953801B2E08A
:100870006B0E711C8C809D80E4E08E0E911C6801D3
:10088000C80108969B838A83540173012C803D80A4
:100890009AE0290E311CD7014D917D01F50191910E
:1008A0005F01D301F401198280E02191421303C05A
:1008B000413009F081E02D91291304C0913011F0ED
:1008C00021E02983E215F30581F781111AC0AC817B
:1008D000BD81ED91FC9111970280F381E02DB20171
:1008E000CD011995AC81BD81ED91FC910680F78118
:1008F000E02DD70111974C91D8016C918C819D818D
:100900001995B981B11111C0AC81BD81ED91FC91F6
:100910000084F185E02DD50111974C91AC81BD810A
:1009200012966C911297CD011995EA81FB81EE1612
:10093000FF0609F0B0CF8C819D8102969B838A834C
:10094000D6018D916D01EA81FB818193FB83EA835E
:10095000AE15BF05A9F70F900F900F900F900F9055
:10096000DF91CF911F910F91FF90EF90DF90CF908B
:10097000BF90AF909F908F907F906F905F904F90BF
:100980003F902F900895DF92EF92FF920F931F9365
:10099000CF93DF93EC0185E0E62EF12CFE01869FDC
:1009A000E00DF11D1124908596FF24C0192F1770BA
:1009B00001E085E0D82E8FEF800F8F3008F001E046
:1009C000602F70E0062FD69EF001D79EF00D112407
:1009D000EC0FFD1F80858695869586958770181784
:1009E00001F16F5F7F4F603168F38D81811302C029
:1009F00011501D8385E08E9DF0018F9DF00D112417
:100A0000EC0FFD1F108681E0818712862296D78326
:100A1000C683DF91CF911F910F91FF90EF90DF90F0
:100A20000895CE01B0DFC7CFFC0120812EBD9B0110
:100A30002150310941F051810DB407FEFDCF4EB573
:100A40005EBD4193F5CF61507109860F971F0DB4BC
:100A500007FEFDCF2EB5FC0120830895FC0121E0A7
:100A6000613499F49C01255B3F4F61E0AC014E5F1E
:100A70005F4F1586668717865487438735962E17EE
:100A80003F07B9F7FC01158208953585631729F0F2
:100A90002F5F35962031C9F70895622F74CFCF9319
:100AA000DF93FC0167FD12C0283080F4442319F065
:100AB0008581873059F0EF01A1E0B0E08D85882372
:100AC00049F111962596A031B105C1F780E018C013
:100AD00085E08A9FE0018B9FD00D1124CE0FDF1F90
:100AE000442389F081E4888785818F5F858325E0B1
:100AF0002A9FC0012B9F900D1124E80FF91F8085BC
:100B0000DF91CF91089581E08887F1CF2770687BCE
:100B1000622B0FC06623E1F26770660F660F660FE7
:100B20004423A1F3606485818F5F85838770687F2C
:100B3000682B25E02A9FC0012B9F900D1124E80F00
:100B4000F91F6087862FDCCFFC0121E0611102C014
:100B5000069608953585631739F02F5F3596203155
:100B6000C9F790E080E00895069635E0239F800D58
:100B7000911D112408953F924F925F926F927F9240
:100B80008F929F92AF92BF92CF92DF92EF92FF929D
:100B90000F931F93CF93DF9300D01F92CDB7DEB793
:100BA0006C017A8369835C834B8384E0482E360131
:100BB00082E1680E711C93E0392E5601A7E0AA0E5F
:100BC000B11C12E0552453944601B0E18B0E911CE8
:100BD00029813A812115310509F4C9C0F60180A1A6
:100BE0008230E9F0A0F5882309F455C0813091F7EF
:100BF000AE014F5F5F4FBE016D5F7F4FC501CEDD20
:100C0000882309F4B4C0D6011596ED91FC9116978E
:100C1000808191968C939197818192968C93F60125
:100C20007682658230A2D60192968C91929784301A
:100C300011F493961C92F60181A182508483258140
:100C40003681308727838287818740A205C0833021
:100C500051F3843009F0BECFD60192968C919297D1
:100C6000843011F1853009F449C0823009F072C036
:100C7000AE014F5F5F4FBE016D5F7F4FC5018EDDDF
:100C8000882309F474C0F601858984A3F60196824D
:100C9000858210A29DCF148385819681908787835A
:100CA0001287118750A2A4CFAE014F5F5F4FBE01E4
:100CB0006D5F7F4FC50172DD882309F458C0D601EE
:100CC00055968C915597833009F756968C91569787
:100CD0008130E1F698969C91989757968C9199233C
:100CE00051F0882399F2F60153A2928996A3938931
:100CF00097A385A3CBCF813049F6F5CFAE014F5FE7
:100D00005F4FBE016D5F7F4FC50148DD882379F1DC
:100D1000D60193968C919397882309F4B7CF1296B6
:100D20008D919C91009709F4B1CFDC01ED91FC917C
:100D30000190F081E02D7401D60195960C91959764
:100D400097962C91979796964C91969794966C912E
:100D500019959CCFF60185858823F9F0813041F102
:100D6000D6011E968D919C91892B09F48FCF0F90FF
:100D70000F900F900F90DF91CF911F910F91FF90E7
:100D8000EF90DF90CF90BF90AF909F908F907F902B
:100D90006F905F904F903F90089591968C919197AE
:100DA0008250990B1F969C938E931E971D965C9272
:100DB00029813A818B819C81782F692FF6014685A4
:100DC00057854115510581F001962115310539F0FE
:100DD000415051095787468721503109EDCF7B8318
:100DE0006C831A821982BCCF9C838B833A832983BC
:100DF0001586B6CF0895EF92FF92CF93DF93FC0153
:100E0000E7018289823021F16787408B9B81937053
:100E10009330F1F49A8197FF1BC02E81308D3217E9
:100E200008F4208F282F30E0D901AA0FBB1FA20F92
:100E3000B31FAE0FBF1F9F7017969C9317979C818F
:100E400018969C93189794E019969C938F5F828BC9
:100E5000DF91CF91FF90EF900895EF92FF920F9363
:100E60000297C9DF0F91FF90EF900895FC018789E9
:100E7000089570E0660F771F860F971FFC01858528
:100E80009685089581E0613009F080E0089581E061
:100E9000633009F080E00895FC0186810895CF93C6
:100EA000DF93EC018C819D81DC01ED91FC9104804C
:100EB000F581E02D6E8119951F86188A81E08A8B55
:100EC0001E821B8A1C8A1D8A1E8A1F8A80E0DF916F
:100ED000CF9108952C9808952C9A089570E0660F8C
:100EE000771F860F971FFC015687458781E008957D
:100EF00061E086E335DB61E070E080E090E012DCE9
:100F000060E086E32DCB60E08AE3463421F048348C
:100F100019F460E08BE3B0CB0895089588E891E080
:100F200008958CE791E0089580E791E0089586E6C2
:100F300091E0089580E00895089580E0089508956F
:100F40000F931F93CF93DF931F921F92CDB7DEB7FE
:100F5000182F062F80E591E0D0D9BCDF12601983ED
:100F60000A8362E070E0CE0101965EDDB5DF0F908E
:100F70000F90DF91CF911F910F9108958EBD0000CA
:100F80000DB407FEFDCF8EB50895FF920F931F930A
:100F9000CF93DF93182FF62EEA0180E591E0ADD9CB
:100FA00099DF812F8260EADF0F2D10E0FF2019F01A
:100FB000B801CE0139DDC00FD11F8EDFCE01DF9128
:100FC000CF911F910F91FF900895CF93C82F80E587
:100FD00091E093D97FDF8C2FD1DF80E0CFDFC82F66
:100FE0007BDF8C2FCF9108958F929F92AF92BF920B
:100FF000CF92DF92EF92FF920F931F93CF93DF93E5
:10100000882E962E5A01BEDB6B017C0128E8C20EA9
:1010100023E1D21EE11CF11C10E000E0D0E0C0E0B2
:101020009828B0DB6C197D098E099F0997FF19C0BC
:10103000692D80EF85DFA6DB6C197D098E099F097C
:1010400097FF07C088ECC1DF87FFF5CF60E888EC29
:1010500077DF88EFBADFC82FCF70C43081F0CE3091
:10106000B9F08C2FDF91CF911F910F91FF90EF90EE
:10107000DF90CF90BF90AF909F908F9008950F5FBB
:101080001F4FA114B10469F20A151B0551F6E9CFEF
:10109000DF5FD33009F0C5CFE4CFAF92BF92CF92DC
:1010A000DF92EF92FF920F931F93CF93DF93EC01A8
:1010B000B62EA42E690148DD7C0186EDE114F10411
:1010C00009F444C0D701ED91FC91119787ED309759
:1010D00009F43CC013969C9180E0981731F0208170
:1010E000A21629F033968F5FF8CFF0E0E0E0D6014A
:1010F000ED93FC938BED309749F12281269526954F
:10110000203108F02FE081E090E0A0E0B0E004C0E2
:10111000880F991FAA1FBB1F2A95D2F70197F801C4
:10112000918380836B2D80EE0BDF88ED4EDFD7013E
:1011300014969C91682F697F992329F0CA58DF4F34
:1011400068816260682B88EDFBDE80E0DF91CF91E3
:101150001F910F91FF90EF90DF90CF90BF90AF90D5
:10116000089588EF32DF807C8034A1F018F4882362
:10117000E1F00895803819F0803CA9F0089588EDD9
:1011800024DF81FD0BC069EC88EDDADE82E080931C
:10119000BC06089588ED19DF81FDF5CF6BEC88ED75
:1011A000CFDE83E0F4CF81E0F2CF61ED88EDC8DEE1
:1011B0001092BC060895CF92DF92FF920F931F9377
:1011C000CF93DF93F62E01E0C82FD0E0CC0FDD1FC8
:1011D000CA52D84F6E0188819981DC01ED91FC9152
:1011E0000280F381E02D2F2D40E060E01995182F4B
:1011F000803E29F561E088EEA3DE66E670E080E0DF
:1012000090E090DAF60180819181DC01ED91FC9112
:101210000190F081E02D2F2D40E060E01995182F0E
:101220008D3029F58FEF800F833078F061E088EE04
:1012300087DE66E670E080E090E074DA0FC08D3003
:1012400059F48FEF800F833048F464E670E080E05B
:1012500090E068DA0F5FBFCF8823A1F2812FDF9182
:10126000CF911F910F91FF90DF90CF900895882329
:10127000A9F3DCCF2F923F924F925F926F927F92B1
:101280008F929F92AF92BF92CF92DF92EF92FF9296
:101290000F931F93CF93DF937B013A016901F9010B
:1012A000A080B180FB013180F90111821082FB0125
:1012B000828160E181FD60E288EE42DE2A2CA3019A
:1012C000F701608180E090DE582EF6E08F130EC0AB
:1012D00088EF7BDEF70192819D7F84FF926092838D
:1012E00060E191FD60E288EE2BDEE9CF811148C01C
:1012F00088EC6BDE82FF58C080E367DE482E8A15DB
:101300001B0411F008F0422CF60180819181E50167
:10131000C81BD90BD7FF02C0D0E0C0E0842C912CB1
:101320008C169D060CF4E40180E591E00E947D019D
:10133000D1DD88E023DEAE0170E060E0C8010E94EC
:10134000231A209719F0BE01C8016EDB0C0F1D1F78
:10135000C3DD64E088ECF4DDF60180819181880EC4
:10136000991E91828082431420F08A149B0408F411
:10137000A6CF88EF2ADEF701928184FB91F9928350
:10138000852DDF91CF911F910F91FF90EF90DF900E
:10139000CF90BF90AF909F908F907F906F905F9015
:1013A0004F903F902F90089580EF582EE9CF2F92C5
:1013B0003F924F925F926F927F928F929F92AF92E5
:1013C000BF92CF92DF92EF92FF920F931F93CF9332
:1013D000DF93CDB7DEB765970FB6F894DEBF0FBECB
:1013E000CDBF3C01342E222E402EED8AEBA4FCA46E
:1013F000188A1F861E861D868E01035F1F4F9E0161
:10140000215F3F4F40E049DE582E8111E7C039820D
:101410002A824B822D892C83DE82CD82B886AF82D0
:10142000AE014F5F5F4F68E080E2AFDD4D855E85C6
:1014300060E080E1D9DD811124C1E114F10409F4F7
:1014400051C00F851889D80112968C91129737FEDA
:101450004FC0826012968C93650144244394C1145A
:10146000D10409F413C19C868B864D855E856F85FA
:10147000788987019E01255F3F4FC301FBDE582E0F
:10148000B6E08B130DC088EFA0DDEF85F88985FBF2
:10149000882780F98425928180FB91F99283DFCFA0
:1014A00081119CC0EDA5FEA53097A1F06B857C85D0
:1014B0000190F081E02D0190F081E02DC5018C19A3
:1014C0009D099A8789879E01275F3F4FA7018DA5B8
:1014D0009EA519958B859C85C81AD90A88159905EA
:1014E00008F0BDCF4D855E8537FEC8C080EAC7C015
:1014F000816012968C93129711966C908FEF860DE7
:10150000803408F0C0C02D843E843CD99B01AC01DE
:1015100028573C4E4F4F5F4F298B3A8B4B8B5C8B40
:10152000D80112968C9160E880FF60E488EE08DDB7
:10153000512C712C8114910409F441C0530186147B
:10154000970408F45401AD8AA7016A2D80E11DDDDE
:101550006A2D88E3F5DCF8016081606280EFF0DCE1
:1015600088EC33DD87FFFCCF60E888ECE9DC88EFAE
:101570002CDD8F70582E412CD12CC12C552009F414
:1015800047C000D929893A894B895C89621B730B52
:10159000840B950B97FF3CC036E0531609F45CC0F2
:1015A0004EE05416D1F154E0551209C08FEFC81A1D
:1015B000D80A21143104A9F12C143D0491F588EFC7
:1015C00004DDD80112969C91129785FB90F9129632
:1015D0009C934D855E85552009F450C0852D6596F8
:1015E0000FB6F894DEBF0FBECDBFDF91CF911F9134
:1015F0000F91FF90EF90DF90CF90BF90AF909F90B2
:101600008F907F906F905F904F903F902F900895B4
:101610008A189B08EA0CFB1C8DCF439493E0491673
:1016200071F260E088E38CDCD7016C9180E188DCAA
:101630006D8988E385DCF8016081606280EF80DC81
:1016400088ECC3DC87FFFCCF60E888EC79DC88EFAE
:10165000BCDC8F70582E92CF88EFB7DC85FB8827D3
:1016600080F9A1E08A27F801928180FB90F99283AA
:1016700060E890FF60E488EE63DCD3CF80E860E050
:10168000B3DC582EABCF8AED582EA8CF4D855E85A2
:10169000552009F42BCFA2CF8F929F92AF92BF9289
:1016A000CF92DF92EF920F931F921F923F932F934F
:1016B0004A015A01D12CC12CEE24E39400E026E02B
:1016C00040E875DE0F900F900F900F900F91EF9004
:1016D000DF90CF90BF90AF909F908F9008958F92A2
:1016E0009F92AF92BF92CF92DF92EF920F93CF93E0
:1016F0001F921F921F921F92912C812CB12CA12C12
:10170000D12CC12CE12C062F25E040E060E04FDE1B
:10171000C82F6CE271E080E090E004D80F900F9049
:101720000F900F908C2FCF910F91EF90DF90CF9073
:10173000BF90AF909F908F9008952F923F924F92BD
:101740005F926F927F928F929F92AF92BF92CF9251
:10175000DF92EF92FF920F931F93CF93DF93CDB75A
:10176000DEB7C658D1090FB6F894DEBF0FBECDBFA5
:10177000DC0116963C9131115BC2E22EC42ED62EAE
:101780003C01FC0124803580108ED101ED91FC914B
:101790000190F081E02D60E0C10119952C010097C6
:1017A000D9F486EDCA57DF4F0FB6F894DEBF0FBEEF
:1017B000CDBFDF91CF911F910F91FF90EF90DF9000
:1017C000CF90BF90AF909F908F907F906F905F90E1
:1017D0004F903F902F900895FC010081118187ED7B
:1017E00001151105F9F29301295F3F4FC158DF4FF1
:1017F00039832883CF57D04031832083E4829E01F0
:1018000026593F4F48E050E060E0D30114968D9197
:101810009C9142DFFE01E458FF4FEF96FFAFEEAF21
:10182000EF97ED968FAFED97811106C2AB96FFACA7
:10183000AB97D2010D931C93D101ED91FC910280E5
:10184000F381E02D2C2D40E06D2DC1011995F301A0
:101850008683882309F4EEC1E2969FADE2979087D4
:10186000682F848195813BDFED968FAFED97D10195
:10187000ED91FC91882389F0D20114961C9204808A
:10188000F581E02DD30116966C91C1011995F301F4
:101890001682ED968FADED9785CFD30116966C919C
:1018A000D20114961C920190F081E02DC10119958E
:1018B000009709F476CFFC01E482FF2099F04F2DC8
:1018C000433108F042E150E09E0126593F4FD301D9
:1018D00016966C91169714968D919C91DDDEED967F
:1018E0008FAFED97ED96FFACED97F110C1C0EC9680
:1018F000BFADEC97CC57DF4FB883C458D04010E051
:101900002E01E1E44E0E511C93012E5F3F4FCB5749
:10191000DF4F39832883C558D040120130E1230EB0
:10192000311CCC57DF4F8881C458D040181709F4B8
:1019300097C0E5E4F6E0D2011196FC93EE93CB5705
:10194000DF4F28813981C558D04013963C932E93A0
:1019500012971D961C921D971F961C921E921E9701
:1019600090961C92909791961C92919792961C92A9
:10197000929798961C92989716963C922E9215974D
:1019800018963C922E92179714968C9114971A964B
:101990008C931A9719968C9319971C963C922E92B9
:1019A0001B97D30114960D90BC91A02DCF57DF4FFC
:1019B000B983A883C158D040F301F681CD57DF4FDA
:1019C000F883C358D0401F921F9221E030E02C0FC3
:1019D0003D1F3F932F9309E0802E912C89E0A82E84
:1019E000B12CD12CC12C92E0E92E012F26E040E849
:1019F000CD57DF4F6881C358D040CF57DF4F888124
:101A00009981C158D040D3DC0F900F900F900F9068
:101A100081111FC0AB80BC805F924F9281E090E04B
:101A20008C0F9D1F9F938F93B0E48B2E912C26E0FB
:101A300040E8CD57DF4F6881C358D040CF57DF4FC4
:101A400088819981C158D040B2DC0F900F900F90DF
:101A50000F90D30152968C91823011F01F5F61CFAD
:101A6000F3011289123069F081EDED968FAFED9799
:101A7000D301ED91FC910480F581E02DC30119950E
:101A800008CF848195810681C158DF4FE881F981B3
:101A9000CF57D040EF2B09F4C1C0602F55D8FC01BF
:101AA000892B09F4BEC00283C158DF4F28813981D8
:101AB000CF57D040318320831383ED96FFAEED974F
:101AC00068EE73E080E090E00E9492031F921F9204
:101AD0001F921F92912C812CB12CA12CD12CC12CA6
:101AE000E12CD3011F960C911F9729E040E0169638
:101AF0006C91169714968D919C9159DCED968FAF51
:101B0000ED970F900F900F900F908111B1CF68EE6D
:101B100073E080E090E00E9492031F921F921F9258
:101B20001F92F301018D2BE041E266818481958152
:101B30003EDCED968FAFED970F900F900F900F90CA
:101B4000811196CF1F921F921F921F9200E02AE0F0
:101B500041E2D30116966C91169714968D919C9143
:101B600026DCED968FAFED97FE01EF5BFF4F8BE428
:101B700096E091838083FF93EF93CE0101969F932C
:101B80008F9360E4862E912C70E8A72EB12CE2E2B0
:101B9000EE2E26E041E8F30166818481958107DC21
:101BA00080E2ED968FAFED970FB6F894DEBF0FBED3
:101BB000CDBFED968FADED978823B1F190E095956F
:101BC0008795ED968FAFED971F921F92EF963FADE1
:101BD000EF973F93EE968FADEE978F938824839483
:101BE000912CAA24A394B12CD12CC12C52E0E52E27
:101BF00000E029E041E2D30116966C911697149605
:101C00008D919C91D4DB69E170E080E090E00E94CE
:101C100092030F900F900F900F90CBCFA8EDFA2E5C
:101C20004CCFF6EDFF2E49CF91E0F301978BBACD63
:101C300089EDB8CD84EDB6CDF2011183008318CFC4
:101C40008F929F92AF92BF92CF92DF92EF920F93BB
:101C5000CF93DF931F92CDB7DEB7FC019285473457
:101C600009F442C0433551F0493379F491FB882798
:101C700080F9292F2D7F80FF226006C0892F817077
:101C8000292F2E7F80FF2160228782858917A1F16D
:101C90006115710589F1FB0189831F921F92CE01A5
:101CA00001969F938F9388248394912CAA24A394C4
:101CB000B12CD12CC12C22E0E22E00E029E041E23F
:101CC00066818481958173DB0F900F900F900F9048
:101CD0000F90DF91CF910F91EF90DF90CF90BF9059
:101CE000AF909F908F90089592FB882780F9292FBD
:101CF0002B7F80FF2460C8CF80E0EACFAF92BF92F5
:101D0000DF92EF92FF920F931F93CF93DF93CDB7A4
:101D1000DEB766970FB6F894DEBF0FBECDBFDC010D
:101D200057962C91211112C0D12C8D2D66960FB68D
:101D3000F894DEBF0FBECDBFDF91CF911F910F9101
:101D4000FF90EF90DF90BF90AF9008957C010E94CC
:101D5000C203F7010389148925893689601B710B39
:101D6000820B930B97FDE0CF4285838590E09E8B9D
:101D70008D8BA480B58066811C8A1B8A1A8A198A79
:101D80008E010F5E1F4F9E012D5E3F4FC50185D90D
:101D9000D82E811122C049895A896B897C890051CA
:101DA00011099E012B5E3F4FC50164DAD82E8111C7
:101DB00014C02D893E892330310578F0D7011D9656
:101DC0008D919C91009749F0DC01ED91FC9101907F
:101DD000F081E02D40E0B70119950E94C203F701A0
:101DE000208D620F711D811D911D638B748B858BFE
:101DF000968B9BCFFC0101900020E9F73197AF0152
:101E0000481B590BBC018DEB96E00C9480018F921E
:101E10009F92AF92BF92FF920F931F93CF93DF9346
:101E20008091BA069091BB06439731F48DE090E023
:101E30009093BB068093BA06F090AB06F11013C0E6
:101E40008091BA069091BB069C01215631092A3136
:101E5000310548F42091AA06211105C0809790937E
:101E6000BB068093BA06C6E0D0E0BE010D2E000C82
:101E7000880B990B44D79B01AC0160E070E080E0D7
:101E800090E40E942C184B015C0120E030E0A90195
:101E90000E94281820E030E040E05FE387FD35C075
:101EA000C501B4010E9493170E94F7170091BA066A
:101EB0001091BB066023712381E0672B09F480E059
:101EC000682F8C2F8E5F0E94B002219770F6F11060
:101ED00007C00D301105F1F48091AA068823D1F0D6
:101EE000000F012F001F110B1195602F617087E308
:101EF0000E94B002DF91CF911F910F91FF90BF9090
:101F0000AF909F908F900C947807C501B4010E9408
:101F10009217CACF61E0EBCF2F923F924F925F9220
:101F20006F927F928F929F92AF92BF92CF92DF92E9
:101F3000EF92FF920F931F93CF93DF93CDB7DEB74E
:101F4000A2970FB6F894DEBF0FBECDBF7C016AA387
:101F5000142F242F30E050E040E019A26E0181E2FE
:101F6000C80ED11C6AE0862E912CA12CB12CCA017E
:101F7000B901A50194010E94F919605DD6016E9323
:101F80006D01211531054105510589F7109711F0B3
:101F9000CD0130DF83EA96E02DDF812F8D7F843401
:101FA00009F082C061E08AE30E943C0361E08AE3B9
:101FB0000E94B002143409F079C068EC70E080E04F
:101FC00090E00E94920360E08AE30E943C0386EC6A
:101FD000810F883008F0C3C0E12FE953FF0BF09365
:101FE000A906E093A80661E08AE30E943C0361E051
:101FF0008AE30E94B00268EC70E080E090E00E940A
:10200000920360E08AE30E943C0361E08BE30E945C
:102010003C0360E08BE30E94B00264EF71E080E07B
:1020200090E00E94920360E08BE30E943C03D12C7D
:10203000C12C92E0292E312C01E027E0422E22E033
:10204000522E37E9632E35E0732E43ECA42E45E083
:10205000B42E5DE0852E912C8091A8069091A90662
:1020600081309105D1F50093AA06F5010190002079
:10207000E9F79F01245C35401901F601ED53FA4F51
:102080002081022E000C330B3093BB062093BA063E
:10209000089709F048C00093AB0686EA96E0AADEEE
:1020A00083EA96E0A7DE3FC0183419F0153409F032
:1020B0008ECF61E08BE30E943C0360E08BE30E94E3
:1020C000B002153409F083CF64EF71E080E090E056
:1020D0000E94920360E08BE378CF8230910561F437
:1020E000F30101900020E9F7DF01A859B5401D0177
:1020F000F601E956FA4FC4CF8330910509F08DC03F
:10210000F20101900020E9F79F01285032401901A7
:10211000F601E95FFD4F8081082E000C990B90932A
:10212000BB068093BA068091BA069091BB068D37A4
:10213000910509F089C09092BB068092BA0667DECD
:1021400068EC70E080E090E00E9492039FEFC91A73
:10215000D90AC214D3040CF47FCF1092AA068AA124
:1021600082729CEF910F9A3108F079C0D7011A96CC
:102170009C9191FD6FC0882309F46FC0135C00919E
:10218000AB06011105C08FE9810F8A3108F41052A6
:1021900086E0E82EF12CC12ED12CB7010F2C000CBB
:1021A000880B990BACD59B01AC0160E070E080E03E
:1021B00090E452D74B015C0120E030E0A90148D700
:1021C00020E030E040E05FE387FDD1C0C501B4010D
:1021D000AAD60DD76C217D2181E0672B09F480E020
:1021E000682F82E08E0D0E94B002F1E0EF1AF10834
:1021F000A0F6011108C01D3009F0BDC08091AA06EB
:10220000882309F4B8C0612F661F6627661F87E31D
:102210000E94B0020E94780746C08430910569F49C
:10222000E0E0F2E001900020E9F7CF018150924018
:102230001C01F601E050FE4F6ECF8730910509F08A
:1022400027CF1092AB066FCFE2DD64E170E080E053
:1022500090E07ACF882309F491CF135A90CF92EE71
:10226000910F9A30B0F4882379F0D701ED91FC9169
:102270000284F385E02DC7011995212F2E51330BD0
:10228000F901E80FF91F3DC0173209F46CC01D5E5B
:1022900076CF97EA910F9930F8F4D7011A968C917E
:1022A000185280FD6CCFA2960FB6F894DEBF0FBE19
:1022B000CDBFDF91CF911F910F91FF90EF90DF90F5
:1022C000CF90BF90AF909F908F907F906F905F90D6
:1022D0004F903F902F90089593ED910F9C30D8F43C
:1022E000E12FED52FF0B8F01D701ED91FC91882377
:1022F00071F00484F585E02DC7011995800F911FB9
:10230000FC011491112379F21331D9F038CF0684EE
:10231000F785E02DF1CF8CEA810F853060F4D7018D
:10232000ED91FC910088F189E02DC7011995212FCD
:102330002455330BA5CF1C32C1F028F4183209F014
:10234000B2CF1DE01CCF123649F0133609F0ABCFE7
:10235000F701828580FFA7CF1EE211CFD7011A9621
:102360008C9180FFA0CF10E30ACF10E208CFC50107
:10237000B401D8D52ECF61E04ACF1F920F920FB68D
:102380000F9211240BB60F922F933F934F935F93AD
:102390006F937F938F939F93AF93BF93EF93FF932D
:1023A0008DEB96E00E94F301FF91EF91BF91AF9109
:1023B0009F918F917F916F915F914F913F912F915D
:1023C0000F900BBE0F900FBE0F901F9018951F928D
:1023D0000F920FB60F9211240BB60F922F938F937B
:1023E0009F93EF93FF93E091CD06F091CE0680810D
:1023F000E091D306F091D40682FD1DC090818091BA
:10240000D6068F5F8F732091D706821741F0E09137
:10241000D606F0E0E354F94F958F8093D606FF91EE
:10242000EF919F918F912F910F900BBE0F900FBE48
:102430000F901F9018958081F2CF1F920F920FB6C8
:102440000F9211242F933F938F939F93AF93BF933A
:102450008091AD069091AE06A091AF06B091B00606
:102460003091AC0623E0230F2D3758F50196A11DBE
:10247000B11D2093AC068093AD069093AE06A09359
:10248000AF06B093B0068091B1069091B206A091CC
:10249000B306B091B4060196A11DB11D8093B1069B
:1024A0009093B206A093B306B093B406BF91AF91D8
:1024B0009F918F913F912F910F900FBE0F901F9082
:1024C000189526E8230F0296A11DB11DD2CF1092B8
:1024D000C0061092BF0688EE93E0A0E0B0E08093C3
:1024E000C1069093C206A093C306B093C40681E5CB
:1024F00096E09093BE068093BD0685EC90E09093A5
:10250000CA068093C90684EC90E09093CC06809331
:10251000CB0680EC90E09093CE068093CD0681ECC4
:1025200090E09093D0068093CF0682EC90E0909359
:10253000D2068093D10686EC90E09093D4068093E7
:10254000D3061092D6061092D7061092D806109293
:10255000D90687E896E090938107809380071092D0
:10256000880781E08093890710928A0782E897E0C4
:1025700090938707809386071092820788E0809364
:1025800083078CE38093840710928507E0E8F7E0E7
:102590002BEC37E081E042E857E015868687178606
:1025A0005487438735962E173F07B9F71092F607E1
:1025B00091E190935A0720E837E030936B0720931E
:1025C0006A0723E636E0309367072093660721E821
:1025D00036E03093690720936807109279071092CC
:1025E0007A0710927B0710927C0710927D07109259
:1025F0007F07809378071092770710926D0788E025
:1026000080936E078CE380936F071092700710928F
:10261000710784E080937207109273071092740719
:1026200010927507E6EDF7E090E080E0219131919E
:10263000232B91F4880F991FFC01EA52F84F86E68C
:1026400097E0918380831092650781E996E09093EB
:102650005C0780935B07089501968031910531F7FF
:10266000F2CFCF93DF93CDB7DEB765970FB6F8946F
:10267000DEBF0FBECDBF789484B5826084BD84B5C3
:10268000816084BD85B5826085BD85B5816085BD6D
:1026900080916E00816080936E0010928100809125
:1026A00081008260809381008091810081608093AD
:1026B0008100809180008160809380008091B100D2
:1026C00084608093B1008091B00081608093B000FD
:1026D000809191008260809391008091910081604F
:1026E0008093910080919000816080939000809110
:1026F000A10082608093A1008091A10081608093FD
:10270000A1008091A00081608093A00080912101B0
:102710008260809321018091210181608093210159
:102720008091200181608093200180917A008460F3
:1027300080937A0080917A00826080937A00809101
:102740007A00816080937A0080917A00806880931B
:102750007A001092C10061E089E30E943C0361E0CD
:1027600082E00E943C0361E083E00E943C0361E060
:1027700084E00E943C0361E085E00E943C0361E04C
:1027800086E00E943C0361E087E00E943C0361E038
:1027900088E00E943C0361E087E30E943C0361E023
:1027A00086E30E943C0360E08BE30E943C0360E010
:1027B0008AE30E943C03E091CD06F091CE0682E0D0
:1027C0008083E091C906F091CA061082E091CB06A1
:1027D000F091CC068FEC80831092D506E091D10663
:1027E000F091D20686E08083E091CF06F091D0068A
:1027F000808180618083E091CF06F091D006808156
:1028000088608083E091CF06F091D0068081806857
:102810008083E091CF06F091D00680818F7D808308
:10282000249A0E946C071FB7F8948091B506811115
:1028300027C0E2E8F2E08491ECE3F2E09491E82F23
:10284000F0E0EE0FFF1FE351FE4FA591B491EC9124
:10285000E92321F461E085E30E94B00261E085E3B1
:102860000E943C038CB580618CBD8CB580648CBDAE
:1028700061E084E30E943C0361E083E30E943C0347
:102880008091B5068F5F8093B5061FBF209A289A66
:10289000809101018F7B8093010168E188E80E94AB
:1028A000A00760E288E70E94A00760E088E70E9436
:1028B000A00710E000E088E60E94E5070F5F1F4FC9
:1028C00080FF58C061EC88ED0E94A00760E680EDB3
:1028D0000E94A00764E088EE0E94A00788EE0E9494
:1028E000E50782FFFBCF0E94B10860E288EC0E94FE
:1028F000A00761E080E80E94A0078BE597E0909335
:1029000074078093730761E089E30E94B00203E1DA
:102910004E0193E1890E911C8DEB96E00E94DE0141
:10292000181619064CF48DEB96E00E94BC019093AA
:10293000BB068093BA066BDA80910001182F1074E1
:1029400086FD0CC088EC0E94E50785FF03C00E944D
:10295000B10810E2612F88EC0E94A0078091BC06AC
:10296000813099F0A8F0823009F46DC08330C9F04D
:1029700010E02EC00F3F100709F09DCF68EC70E00B
:1029800080E090E00E949203B8CF00935A07F0CF06
:1029900080915A07807F803159F3A1E1A0935A07B3
:1029A000E7CF11E080915A07807F803189F40E943F
:1029B000C20368537F4F8F4F9F4F6093B60670934B
:1029C000B7068093B8069093B906B0E2B0935A0761
:1029D00096EDE92E97E0F92E6701F601819191912C
:1029E0006F01009739F0DC01ED91FC910680F781D1
:1029F000E02D1995E6EFF7E0EC15FD0571F78091F4
:102A00005A07803409F456C000F58032E9F180336A
:102A100009F44AC0813109F05DC01092F607D70170
:102A20008D919D917D01009739F0DC01ED91FC9134
:102A30000480F581E02D1995CE14DF0481F782E141
:102A400080935A0747C010E0ADCF813509F44EC0DE
:102A5000803809F45EC08035E9F588EC0E94E5070E
:102A600086FF3DC081E580935A070E94C2036C5ED9
:102A70007F4F8F4F9F4F6093B6067093B70680933A
:102A8000B8069093B90626C00E94C203C090B6064D
:102A9000D090B706E090B806F090B9066C197D09A1
:102AA0008E099F0997FD1BC061E088EE0E94A00778
:102AB00080E4C6CF88EE0E94E50780FD10C088ED57
:102AC0000E94E507682F686088ED0E94A007B0E5C6
:102AD000B0935A0780915A0761E0803909F060E0AD
:102AE00089E30E94B0020E94800216CF0E94C203B6
:102AF0004090B6065090B7066090B8067090B90640
:102B0000641975098609970997FDE9CF80E88093D4
:102B10005A071B8AE8E0EC8BFCE3FD8BC09086072C
:102B2000D0908707909287078092860710938A0734
:102B30009E012F5F3F4F42E150E060E080E897E068
:102B40000E944C0B582ED0928707C09286078111A5
:102B500051C069847A84AB84BC843D802E8086ED2C
:102B6000C82E87E0D82E412CD6018D919C910097DC
:102B700009F042C04394B2E0CB0ED11CE0E14E120A
:102B8000F3CFF70180819181009709F079C05394C8
:102B9000F2E0EF0EF11C80E15812F3CF809186072E
:102BA00090918707892B09F459C010938A0720E078
:102BB00040E060E080E897E00E944F05F82E88230F
:102BC00009F44CC0682F80E897E00E94A4050097A4
:102BD00009F444C0FC0114836F2D80E897E00E9443
:102BE0006F0B582E882309F486C06F2D80E897E07C
:102BF0000E942E05852D2FC0DC01ED91FC910084F3
:102C0000F185E02D19958111B5CFF6018081918173
:102C1000DC01ED91FC910088F189E02D622D199580
:102C2000882309F4A7CFF60180819181DC01ED9121
:102C3000FC910484F585E02DA501B3011995882345
:102C400089F0612F842D0E94DB08813D09F492CF29
:102C5000882309F450C0823D09F43CCFF0EAF09398
:102C60005A0738CFF60180819181DC01ED91FC910A
:102C70000684F785E02D632D19958111E2CF7ACF77
:102C8000DC01ED91FC910084F185E02D1995811115
:102C90007ECFF70180819181DC01ED91FC9100886C
:102CA000F189E02D622D1995811109C0612F852DC3
:102CB0000E94DB08982F977F913D51F668CFF7016E
:102CC00080819181DC01ED91FC910484F585E02DFA
:102CD000A501B301199581115ACFF7018081918126
:102CE000DC01ED91FC910684F785E02D632D1995AB
:102CF0008823E1F24CCF80E9A3CEE89409C097FB8A
:102D00003EF490958095709561957F4F8F4F9F4FC2
:102D10009923A9F0F92F96E9BB279395F695879506
:102D200077956795B795F111F8CFFAF4BB0F11F4C9
:102D300060FF1BC06F5F7F4F8F4F9F4F16C0882370
:102D400011F096E911C0772321F09EE8872F762FA6
:102D500005C0662371F096E8862F70E060E02AF0E7
:102D60009A95660F771F881FDAF7880F96958795D3
:102D700097F90895990F0008550FAA0BE0E8FEEFA8
:102D800016161706E807F907C0F012161306E4072F
:102D9000F50798F0621B730B840B950B39F40A2628
:102DA00061F0232B242B252B21F408950A2609F406
:102DB000A140A6958FEF811D811D08950BD078C08D
:102DC00069D028F06ED018F0952309F05AC05FC082
:102DD0001124A2C07ED0A0F3959FD1F3950F50E0AF
:102DE000551F629FF001729FBB27F00DB11D639FBD
:102DF000AA27F00DB11DAA1F649F6627B00DA11D63
:102E0000661F829F2227B00DA11D621F739FB00D08
:102E1000A11D621F839FA00D611D221F749F332778
:102E2000A00D611D231F849F600D211D822F762F11
:102E30006A2F11249F5750408AF0E1F088234AF00E
:102E4000EE0FFF1FBB1F661F771F881F915050405A
:102E5000A9F79E3F510570F014C05EC05F3FECF3D0
:102E6000983EDCF3869577956795B795F795E79546
:102E70009F5FC1F7FE2B880F911D9695879597F957
:102E8000089597F99F6780E870E060E008959FEFEC
:102E900080EC089500240A941616170618060906F1
:102EA000089500240A9412161306140605060895C0
:102EB000092E0394000C11F4882352F0BB0F40F448
:102EC000BF2B11F460FF04C06F5F7F4F8F4F9F4F88
:102ED000089557FD9058440F551F59F05F3F71F00A
:102EE0004795880F97FB991F61F09F3F79F0879571
:102EF0000895121613061406551FF2CF4695F1DFFA
:102F000008C0161617061806991FF1CF8695710589
:102F1000610508940895E894BB2766277727CB01BD
:102F200097F908955058BB27AA270ED0C1CFB2DF1A
:102F300030F0B7DF20F031F49F3F11F41EF4A7CF3B
:102F40000EF4E095E7FB9DCFE92FC3DF80F3BA17BE
:102F5000620773078407950718F071F49EF5DBCFBD
:102F60000EF4E0950B2EBA2FA02D0B01B9019001A4
:102F70000C01CA01A0011124FF27591B99F0593FE8
:102F800050F4503E68F11A16F040A22F232F342F30
:102F90004427585FF3CF469537952795A795F0407E
:102FA0005395C9F77EF41F16BA0B620B730B840B93
:102FB000BAF09150A1F0FF0FBB1F661F771F881F4B
:102FC000C2F70EC0BA0F621F731F841F48F48795A3
:102FD00077956795B795F7959E3F08F0B3CF939592
:102FE000880F08F09927EE0F97958795089504D0DC
:102FF0006894B11191CF089574DF88F09F5790F0D5
:10300000B92F9927B751A0F0D1F0660F771F881F0D
:10301000991F1AF0BA95C9F712C0B13081F07BDF61
:10302000B1E0089578CF672F782F8827B85F39F0FF
:10303000B93FCCF3869577956795B395D9F73EF46C
:1030400090958095709561957F4F8F4F9F4F089514
:1030500091DE08F48FEF0895FA01EE0FFF1F30960E
:103060002105310599F16115710561F48038BFE3DF
:103070009B0749F168949038810561F08038BFEF73
:103080009B0741F0992342F5FF3FE10531052105FA
:1030900011F1E8940894E795D901AA2329F4AB2FFC
:1030A000BE2FF85FD0F310C0FF5F70F4A695E0F775
:1030B000F73950F019F0FF3A38F49F779F930CD00E
:1030C0000F9007FC905808953EF0E1CE60E070E06C
:1030D00080E89FE308954FE79F775F934F933F9377
:1030E0002F939ED02F913F914F915F9167DE05C046
:1030F00019F40EF0C6CE0FCFCACEF3DEC8F3963861
:10310000C0F707F80F92E8942BE33AEA48EB5FE741
:1031100063DE0F920F920F924DB75EB70F92C0D041
:10312000E4EEF0E016D04F915F91EF91FF91E595BD
:10313000EE1FFF1F49F0FE57E0684427EE0F441FC3
:10314000FA95E1F74195550B32D00F9007FE26C056
:103150000895DF93CF931F930F93FF92EF92DF9227
:103160007B018C01689405C0DA2EEF0133DEFE018D
:10317000E894A5912591359145915591AEF3EF01D4
:10318000E3DEFE019701A801DA9479F7DF90EF9072
:10319000FF900F911F91CF91DF9108959B01AC019A
:1031A00060E070E080E89FE3AEC06BCE14C199DEB2
:1031B000E8F39923D9F3940F511DBBF3915050407C
:1031C00094F059F0882332F0660F771F881F9150D2
:1031D0005040C1F79E3F510544F7880F911D9695C9
:1031E000879597F908955F3FACF0983E9CF0BB2718
:1031F000869577956795B79508F4B1609395C1F773
:10320000BB0F58F711F460FFE8CF6F5F7F4F8F4F10
:103210009F4FE3CF81CE0EF0DEC039CE689431CE21
:1032200060DEC8F39923D1F3C6F3DF93CF931F93E6
:103230000F93FF92C92FDD2788232AF02197660F6D
:10324000771F881FDAF720E030E040E85FEB9FE36C
:10325000883920F0803E30F021968F7764DEECE0F4
:10326000F1E003C060DEE9E3F1E073DF8B01BE0152
:10327000EC01FB2E6F5771097595771F880B990B21
:103280003EDD28E132E741E35FE3A4DDAF2D9801A5
:10329000AE01FF900F911F91CF91DF9155DE08CEC7
:1032A000FA01DC01AA0FBB1F9B01AC01BF5728F438
:1032B00022273327442750781FC0B75188F4AB2FFB
:1032C0000024469537952795011CA395D2F300203D
:1032D00069F0220F331F441FB395DAF30DD022CECD
:1032E00061307105A0E88A07B94630F49B01AC0152
:1032F0006627772788279078309621F020833183BE
:103300004283538308950CD0D3CDCBDD40F0C2DD92
:1033100030F021F45F3F19F0B4CD5111FDCDB7CDA0
:10332000D8DD98F39923C9F35523B1F3951B550BB9
:10333000BB27AA2762177307840738F09F5F5F4F88
:10334000220F331F441FAA1FA9F333D00E2E3AF0C9
:10335000E0E830D091505040E695001CCAF729D0E3
:10336000FE2F27D0660F771F881FBB1F2617370732
:103370004807AB07B0E809F0BB0B802DBF01FF2762
:1033800093585F4F2AF09E3F510568F07ACDC4CD27
:103390005F3FECF3983EDCF3869577956795B7959C
:1033A000F7959F5FC9F7880F911D9695879597F9B7
:1033B0000895E1E0660F771F881FBB1F6217730730
:1033C0008407BA0720F0621B730B840BBA0BEE1F45
:1033D00088F7E09508959F3F31F0915020F487954C
:1033E00077956795B795880F911D9695879597F96D
:1033F0000895A1E21A2EAA1BBB1BFD010DC0AA1F36
:10340000BB1FEE1FFF1FA217B307E407F50720F04D
:10341000A21BB30BE40BF50B661F771F881F991FC8
:103420001A9469F760957095809590959B01AC0111
:10343000BD01CF010895EE0FFF1F881F8BBF0790BE
:10344000F691E02D1994DC0101C06D93415050407C
:08345000E0F70895F894FFCFA6
:1034580042443030527D003238303A2041392030F1
:10346800302038352030372041392030302041385D
:103478002041417D3A3835203036204135203030E2
:103488002038352030342041352030317D3A3835E8
:103498002030352043302030342044302030342050
:1034A80041352030347D3A383520303620433020BD
:1034B80030352044302030342041352030357D3AB5
:1034C800383520303620413520303620383120300C
:1034D800342041312030347D3A4335203036204481
:1034E80030203245204536203034204430203032D8
:1034F8007D3A45362030352041352030322043355D
:103508002030342044302030347D3A413520303367
:1035180020433520303520443020443420413520A4
:1035280030307D3A38352030342041352030312054
:1035380038352030352043302030347D3A4430202F
:10354800303420413520303420383520303620437F
:10355800302030357D3A4430203034204135203019
:10356800352038352030362041312030347D3A43FB
:103578003520303620443020363920453620303446
:103588002044302030327D3A4536203035204135D0
:103598002030322043352030342044302030347DF0
:1035A8003A4135203033204335203035204430200F
:1035B80044382043302030307D3A443020303820A1
:1035C80041392046462038352030362043382034CB
:1035D800437D3A3841203032204330203031204476
:1035E800302030342041392030317D3A4430204673
:1035F80032204330203032204430203038203036DA
:103608002030367D3A39302045442041392046451E
:103618002044302045362043302030337D3A443032
:1036280020303820333820323620303620423020BF
:1036380045302043387D3A443020444420433020EC
:1036480030342046302046392041392035307D3A03
:103658003230203643203033204139203431203273
:10366800302036432030337D3A41392035332032FB
:103678003020364320303320413920353320323052
:103688007D3A3643203033203230203943203033DE
:103698002045362030372041357D3A3037203230CA
:1036A8002037302030332032302039312030332059
:1036B80045417D3A45412045412034432038342056
:1036C80030322034382039382032307D3A373020B3
:1036D80030332032302039432030332041352030F8
:1036E800352032307D3A3730203033204135203094
:1036F800342032302037302030332032307D3A3990
:1037080043203033204135203036203230203730C6
:103718002030332032307D3A394320303320363858
:103728002032302037302030332032302039317D7C
:103738003A3033203443203030204646203230207F
:1037480045462046462036307D3A343820344120DC
:103758003441203441203441203239203046203051
:10376800397D3A33302043392033412039302030F5
:10377800322036392030362032307D3A36432030F8
:103788003320363820323920304620303920333043
:103798002043397D3A3341203930203032203639C0
:1037A8002030362032302036432030337D3A3630D0
:1037B8002041392030442032302036432030332015
:1037C80041392030417D3A32302036432030332091
:1037D80036302041392032302032302036437D3A8D
:1037E80030332036307D00303A20413920303020C7
:1037F8004141203230204546204646204538203871
:10380800412034432030322030307D7D303030301C
:10381800527D00502D4C4142204150504C452D3195
:1038280020555342204B4559424F415244206D6523
:103838006E757D7D6632202D3E20636861727465E9
:1038480073747D6633202D3E206D656D74657374C9
:1038580020283238305220746F2072756E206166CD
:10386800746572207365747570297D6634202D3EE9
:10387800205374617274206A756B65626F7820706A
:10388800726F6772616D206D616E616765727D7DB3
:103898000000000000BB0500000000FA0600000060
:1038A8000015028001AD016102DE01BC01D00100FA
:1038B8000000009D0B9D074F077E0E4C079C079A42
:1038C800074707420739076E073607FB06FEFF0062
:1038D800002D0700000000A4054F052E050000007C
:1038E800000904200E8D078C0F8307970794079112
:0838F800078E070D0A003800DD
:020000023000CC
:10E000000D9489F10D94B2F10D94B2F10D94B2F129
:10E010000D94B2F10D94B2F10D94B2F10D94B2F1F0
:10E020000D94B2F10D94B2F10D94B2F10D94B2F1E0
:10E030000D94B2F10D94B2F10D94B2F10D94B2F1D0
:10E040000D94B2F10D94B2F10D94B2F10D94B2F1C0
:10E050000D94B2F10D94B2F10D94B2F10D94B2F1B0
:10E060000D94B2F10D94B2F10D94B2F10D94B2F1A0
:10E070000D94B2F10D94B2F10D94B2F10D94B2F190
:10E080000D94B2F10D94B2F10D94B2F10D94B2F180
:10E090000D94B2F10D94B2F10D94B2F10D94B2F170
:10E0A0000D94B2F10D94B2F10D94B2F10D94B2F160
:10E0B0000D94B2F10D94B2F10D94B2F10D94B2F150
:10E0C0000D94B2F10D94B2F10D94B2F10D94B2F140
:10E0D0000D94B2F10D94B2F10D94B2F10D94B2F130
:10E0E0000D94B2F141546D656761323536300041AF
:10E0F000726475696E6F206578706C6F72657220DE
:10E1000073746B3530305632206279204D4C530099
:10E11000426F6F746C6F616465723E004875683F52
:10E1200000436F6D70696C6564206F6E203D200048
:10E130004350552054797065202020203D20005FF9
:10E140005F4156525F415243485F5F3D2000415658
:10E1500052204C696243205665723D20004743437C
:10E160002056657273696F6E203D20004350552024
:10E1700049442020202020203D20004C6F7720663D
:10E18000757365202020203D20004869676820665F
:10E190007573652020203D200045787420667573D6
:10E1A00065202020203D20004C6F636B2066757336
:10E1B000652020203D20004D617220203720323024
:10E1C000313300312E362E3800342E332E350056A2
:10E1D00023202020414444522020206F7020636F70
:10E1E00064652020202020696E73747275637469E1
:10E1F0006F6E2061646472202020496E74657272B3
:10E20000757074006E6F20766563746F7200726A49
:10E210006D702020006A6D70200057686174207056
:10E220006F72743A00506F7274206E6F7420737541
:10E2300070706F72746564004D7573742062652030
:10E2400061206C6574746572002000577269747483
:10E25000696E672045450052656164696E672045B7
:10E26000450045452065727220636E743D00504F35
:10E27000525400303D5A65726F2061646472003FF1
:10E280003D43505520737461747300403D454550C3
:10E29000524F4D207465737400423D426C696E6B41
:10E2A000204C454400453D44756D70204545505215
:10E2B0004F4D00463D44756D7020464C415348001B
:10E2C000483D48656C70004C3D4C69737420492F83
:10E2D0004F20506F72747300513D51756974005234
:10E2E0003D44756D702052414D00563D73686F7707
:10E2F00020696E7465727275707420566563746FF0
:10E30000727300593D506F727420626C696E6B00BD
:10E310002A0011241FBECFEFD1E2DEBFCDBF01E046
:10E320000CBF12E0A0E0B2E0EEE1FDEF03E00BBFB6
:10E3300002C007900D92A030B107D9F712E0A0E01B
:10E34000B2E001C01D92AE30B107E1F70F9460F367
:10E350000D948DFE01E20EBF0FEF0DBF11241FBE05
:10E360000D9460F30D9400F020E030E040ED57E0B4
:10E3700005C0FA013197F1F72F5F3F4F2817390792
:10E38000C0F308959C01260F311DC901A0E0B0E043
:10E390002F5F3F4FABBFFC018791882361F08093D3
:10E3A000C6008091C00086FFFCCF8091C0008064D1
:10E3B0008093C000EACF08958DE08093C6008091DD
:10E3C000C00086FFFCCF8091C00080648093C000B5
:10E3D0008AE08093C6008091C00086FFFCCF8091C8
:10E3E000C00080648093C00008950F94C2F10F9420
:10E3F000DCF10895FC019081992359F09093C600B7
:10E400008091C00086FFFCCF8091C0008064809323
:10E41000C0003196992379F70895282F982F929567
:10E420009F70892F805D8A3308F0895F8093C600D2
:10E430008091C00086FFFCCF8091C00080648093F3
:10E44000C000822F8F70982F905D9A3308F0995FEB
:10E450009093C6008091C00086FFFCCF8091C000E1
:10E4600080648093C00008959C01FB01853691056E
:10E470001CF46330710594F0C90164E670E00F94F8
:10E480002EFE605D7F4F6093C6008091C00086FFC6
:10E49000FCCF8091C00080648093C0002B30310598
:10E4A00014F43297B4F0C90164E670E00F942EFEC4
:10E4B0006AE070E00F942EFE605D7F4F6093C600AF
:10E4C0008091C00086FFFCCF8091C0008064809363
:10E4D000C000C9016AE070E00F942EFEC0968093E0
:10E4E000C6008091C00086FFFCCF8091C000806490
:10E4F0008093C00008951F93182F8EE692EE60E07F
:10E500000F94C2F11093C6008091C00086FFFCCF2B
:10E510008091C00080648093C0000F94DCF11F9153
:10E5200008952F923F924F925F926F927F928F92B7
:10E530009F92AF92BF92CF92DF92EF92FF920F9392
:10E540001F93DF93CF93CDB7DEB762970FB6F894E2
:10E55000DEBF0FBECDBF382E622ECA01DB015C01CB
:10E560006D01772420E2222E2E010894411C511CBB
:10E570008BC081E0A81680E0B80681E0C80680E084
:10E58000D80628F0C601AA27BB270F940DF2BB2797
:10E59000AD2D9C2D8B2D0F940DF28A2D0F940DF225
:10E5A0002092C6008091C00086FFFCCF8091C00001
:10E5B00080648093C0009DE29093C6008091C0006B
:10E5C00086FFFCCF8091C00080648093C0002092C1
:10E5D000C6008091C00086FFFCCF8091C00080649F
:10E5E0008093C00019828601750188249924A1E0D6
:10E5F0003A1651F03A1620F0B2E03B1661F409C029
:10E600000BBFF701779007C0C7010F9477FE782EF4
:10E6100002C0F7017080872D0F940DF22092C60082
:10E620008091C00086FFFCCF8091C0008064809301
:10E63000C000872D8052F401EF70F0708F3520F408
:10E64000E40DF51D708204C0E40DF51D8EE280839B
:10E650000894E11CF11C011D111D0894811C911CE2
:10E6600090E18916910409F0C2CF80E190E0A0E02A
:10E67000B0E0A80EB91ECA1EDB1E198AC2010F9493
:10E68000FAF10F94DCF16A94662009F072CF629679
:10E690000FB6F894DEBF0FBECDBFCF91DF911F91B3
:10E6A0000F91FF90EF90DF90CF90BF90AF909F9031
:10E6B0008F907F906F905F904F903F902F90089534
:10E6C0002F923F924F925F926F927F928F929F9282
:10E6D000AF92BF92CF92DF92EF92FF920F931F9370
:10E6E000DF93CF93CDB7DEB7CD53D1400FB6F894BB
:10E6F000DEBF0FBECDBF01E20EBF0FEF0DBF94B75F
:10E70000F894A89514BE80916000886180936000A1
:10E7100010926000789493FF05C0E0910002F091A0
:10E7200001021995279A2F9A8091C00082608093E8
:10E73000C00080E18093C40088E18093C1000000A4
:10E74000EE24FF24870144E0A42EB12CCC24DD2448
:10E7500024C0C5010197F1F70894E11CF11C011DCB
:10E76000111D21E2E2162EE4F20620E0020720E06D
:10E77000120718F031E0C32ED12CC801B70127ECE5
:10E780003BE140E050E00F9441FE611571058105C9
:10E79000910519F485B1805885B98091C00087FD35
:10E7A00003C0C114D104A9F2A6014F5F5F4FC25E3E
:10E7B000DE4F59834883CE51D140C25EDE4F8881FF
:10E7C0009981CE51D140019711F00D9410FEC05D9A
:10E7D000DE4F19821882C053D14060E0C15DDE4F28
:10E7E0001882CF52D14088249924C35DDE4F19820C
:10E7F0001882CD52D140C05EDE4F188219821A8233
:10E800001B82C052D140CE5CDE4F188219821A8220
:10E810001B82C253D140EE24FF2487010BBFF701B6
:10E8200007911691C45CDE4F19830883CC53D14005
:10E830000D940BFEC25EDE4F28813981CE51D1404E
:10E840002130310509F52091C600C25EDE4F1982E4
:10E850001882CE51D14022C02F5F3F4F4F4F5F4FA4
:10E86000213082E138078AE7480780E0580780F0C6
:10E87000C45CDE4FE881F981CC53D140EF5FFF4F9C
:10E8800019F0EE27FF27099420E030E040E050E047
:10E890008091C00087FFE0CF2091C600C35DDE4FAE
:10E8A00048815981CD52D1404F5F5F4FC35DDE4FEC
:10E8B00059834883CD52D140213209F063C64A3092
:10E8C000510508F05FC60894811C911C53E0851621
:10E8D000910409F059C600E010E018C081E280936D
:10E8E000C6008091C00086FFFCCF8091C00080648C
:10E8F0008093C0002F5F3F4F2931310579F70F9486
:10E90000DCF10F5F1F4F0530110519F020E030E0FA
:10E91000E5CF10920A0210920B0210920C02109294
:10E920000D02109206021092070210920802109235
:10E930000902109202021092030210920402109235
:10E9400005028FEE90EE60E00F94F5F180E191EE1C
:10E9500060E00F94C2F18091C00087FFFCCF9091DE
:10E96000C600903608F09F759032B8F09093C600BC
:10E970008091C00086FFFCCF8091C00080648093AE
:10E98000C000A0E2A093C6008091C00086FFFCCF2B
:10E990008091C00080648093C000983409F4D7C18E
:10E9A0009934B8F4923409F459C1933458F490333B
:10E9B00019F1903308F4E3C59F33A1F1903409F0C5
:10E9C000DEC5BDC0953409F470C1963409F0D7C5D1
:10E9D00098C1923509F42BC2933538F49C3409F46C
:10E9E000F5C1913509F0CBC518C2963509F445C279
:10E9F000993509F0C4C567C483E792EE62E00F94CD
:10EA0000F5F110920602109207021092080210927D
:10EA1000090210920A0210920B0210920C0210923C
:10EA20000D0213C18FE792EE62E00F94F5F18FEEC5
:10EA300090EE60E00F94F5F181E291EE60E00F94CA
:10EA4000C2F187EB91EE60E00F94F5F180E391EE77
:10EA500060E00F94C2F184EE90EE60E00F94F5F167
:10EA60008FE391EE60E00F94C2F186E090E061E008
:10EA700070E00F9434F20F94DCF18DE591EE60E0DC
:10EA80000F94C2F189EC91EE60E00F94F5F18EE401
:10EA900091EE60E00F94C2F183EC91EE60E00F9490
:10EAA000F5F18CE691EE60E00F94C2F18EE10F94E7
:10EAB0000DF288E90F940DF281E00F940DF20F949E
:10EAC000DCF18BE791EE60E00F94C2F119E0E0E039
:10EAD000F0E010935700E4918E2F0F940DF20F94F5
:10EAE000DCF18AE891EE60E00F94C2F1E3E0F0E03F
:10EAF00010935700E4918E2F0F940DF20F94DCF1D8
:10EB000089E991EE60E00F94C2F1E2E0F0E0109349
:10EB10005700E4918E2F0F940DF20F94DCF188EAE8
:10EB200091EE60E00F94C2F1E1E0F0E01093570045
:10EB30001491812F0F940DF20F94DCF107CF8BE825
:10EB400092EE62E00F94F5F18BE492EE60E00F94A8
:10EB5000F5F10F94DCF100E010E019C0C8016F2D51
:10EB60000F947FFEFF2031F489E492EE60E00F9471
:10EB7000C2F10BC0F092C6008091C00086FFFCCFAE
:10EB80008091C00080648093C0000F5F1F4FC80158
:10EB900081519F41A0E0B0E0ABBFFC01F790BAE229
:10EBA000FB1621F0E2E000301E07C1F60F94DCF105
:10EBB0000F94DCF187E592EE60E00F94F5F10F948D
:10EBC000DCF1CC24DD2400E010E01EC0C8010F946D
:10EBD00077FEF82E882331F489E492EE60E00F94FA
:10EBE000C2F10BC08093C6008091C00086FFFCCFAD
:10EBF0008091C00080648093C000FE1419F00894D6
:10EC0000C11CD11C0F5F1F4FC80181519F41A0E063
:10EC1000B0E0ABBFFC01E790FAE2EF1621F022E092
:10EC20000030120799F60F94DCF10F94DCF182E6C4
:10EC300092EE60E00F94C2F1C60161E070E00F94C3
:10EC400034F20F94DCF10F94DCF110920202109276
:10EC50000302109204021092050278CE89E992EE26
:10EC600062E00F94F5F1279A2F9A16C02F9880E052
:10EC700090E0E0EDF7E03197F1F7019684369105E9
:10EC8000C1F72F9A80E090E0E0EDF7E03197F1F7DF
:10EC9000019684369105C1F78091C00087FFE6CFC9
:10ECA0008091C00087FFFCCF64C485EA92EE62E0E9
:10ECB0000F94F5F140910202509103026091040219
:10ECC0007091050281E020E10F9491F2809102029F
:10ECD00090910302A0910402B091050280509F4FD1
:10ECE000AF4FBF4F8093020290930302A0930402A0
:10ECF000B093050280509041A040B04008F426CE69
:10ED0000A4CF83EB92EE62E00F94F5F140910602FE
:10ED100050910702609108027091090280E020E1A1
:10ED20000F9491F28091060290910702A09108023F
:10ED3000B091090280509F4FAF4FBF4F80930602A2
:10ED400090930702A0930802B0930902FFCD80ECD4
:10ED500092EE62E00F94F5F183E792EE60E00F949B
:10ED6000F5F18FE792EE60E00F94F5F18BE892EE0B
:10ED700060E00F94F5F189E992EE60E00F94F5F10F
:10ED800085EA92EE60E00F94F5F183EB92EE60E09D
:10ED90000F94F5F180EC92EE60E00F94F5F187ECC2
:10EDA00092EE60E00F94F5F188ED92EE60E00F9442
:10EDB000F5F18FED92EE60E00F94F5F18AEE92EEB0
:10EDC00060E00F94F5F183E093EEBDCD87EC92EE19
:10EDD00062E00F94F5F181E40F947BF282E40F94EA
:10EDE0007BF283E40F947BF284E40F947BF285E45E
:10EDF0000F947BF286E40F947BF287E40F947BF20E
:10EE000088E40F947BF28AE40F947BF28BE40F94F6
:10EE10007BF28CE40F947BF299CD88ED92EE62E068
:10EE20000F94F5F1772473948824992409C48FED05
:10EE300092EE62E00F94F5F140910A0250910B02BC
:10EE400060910C0270910D0282E020E10F9491F22A
:10EE500080910A0290910B02A0910C02B0910D02D8
:10EE600080509F4FAF4FBF4F80930A0290930B0289
:10EE7000A0930C02B0930D0269CD8AEE92EE62E08F
:10EE80000F94F5F184EE90EE60E00F94F5F18FECC5
:10EE900091EE60E00F94F5F1662477244301CC5D98
:10EEA000DE4F19821882C452D140D401C301B695F5
:10EEB000A79597958795CA5DDE4F88839983AA8326
:10EEC000BB83C652D140CC5DDE4FA881B981C4520C
:10EED000D1401196CC5DDE4FB983A883C452D14096
:10EEE000CD0162E070E00F9434F2B0E2B093C6005E
:10EEF0008091C00086FFFCCF8091C0008064809329
:10EF0000C000EDE2E093C6008091C00086FFFCCF18
:10EF10008091C00080648093C000F0E2F093C6004E
:10EF20008091C00086FFFCCF8091C00080648093F8
:10EF3000C000CA5DDE4FE880F9800A811B81C6529D
:10EF4000D140BB27A12F902F8F2D0F940DF2CA5DBA
:10EF5000DE4F8881C652D1400F940DF2B0E2FB2EF5
:10EF6000F092C6008091C00086FFFCCF8091C00067
:10EF700080648093C0000DE30093C6008091C000C0
:10EF800086FFFCCF8091C00080648093C00010E2B7
:10EF90001093C6008091C00086FFFCCF8091C00016
:10EFA00080648093C0008BBEF3012791C65DDE4F65
:10EFB0002883CA52D140A22EBB24CC24DD2408943D
:10EFC000611C711C811C911C8BBEF3018791282E42
:10EFD0003324442455240894611C711C811C911C09
:10EFE0008BBEF3013791C55DDE4F3883CB52D140E4
:10EFF0000894611C711C811C911C8BBEF30147910C
:10F00000C45DDE4F4883CC52D140ADEFEA2EAFEF66
:10F01000FA2EAFEF0A2FAFEF1A2F6E0C7F1C801E57
:10F02000911E142D032DF22CEE24EA0CFB1C0C1D5A
:10F030001D1D0F940DF220E22093C6008091C000A8
:10F0400086FFFCCF8091C00080648093C000C65DC5
:10F05000DE4F8881CA52D1400F940DF230E23093D6
:10F06000C6008091C00086FFFCCF8091C000806404
:10F070008093C000C45DDE4F8881CC52D1400F9494
:10F080000DF240E24093C6008091C00086FFFCCFA5
:10F090008091C00080648093C000C55DDE4F888190
:10F0A000CB52D1400F940DF250E25093C6008091A4
:10F0B000C00086FFFCCF8091C00080648093C000B8
:10F0C0008FEFE8168FEFF80680E0080780E018075A
:10F0D00031F484E092EE60E00F94C2F1DFC0D80119
:10F0E000C7018070907CA070B0708050904CA040A0
:10F0F000B040D1F52FEF3FE340E050E0E222F322B1
:10F1000004231523CA5DDE4FA880B980CA80DB8046
:10F11000C652D140AE0CBF1CC01ED11EAA0CBB1CD7
:10F12000CC1CDD1C8EE092EE60E00F94C2F1BB2798
:10F13000A12F902F8F2D0F940DF28E2D0F940DF285
:10F1400030E23093C6008091C00086FFFCCF8091F2
:10F15000C00080648093C0004EE34093C60080915D
:10F16000C00086FFFCCF87C08EE09EEFA0E0B0E03D
:10F17000E822F9220A231B239CE0E91694E9F90608
:10F1800090E0090790E0190709F088C0C45DDE4FE0
:10F19000A881CC52D140EA2EFF2400E010E0102FCD
:10F1A0000F2DFE2CEE24C55DDE4FB881CB52D14031
:10F1B000EB0EF11C011D111DD601C501817090706F
:10F1C000A070B070DC0199278827E80EF91E0A1F8D
:10F1D0001B1F20EF30E040E050E0A222B322C42207
:10F1E000D52241E1AA0CBB1CCC1CDD1C4A95D1F7F1
:10F1F000EA0CFB1C0C1D1D1D81E090E0A0E0B0E0BE
:10F20000282239224A225B2235E1220C331C441C7D
:10F21000551C3A95D1F7E20CF31C041D151D57013E
:10F220006801AA0CBB1CCC1CDD1C85E192EE60E0E1
:10F230000F94C2F1C801AA27BB270F940DF2BB2778
:10F24000A12F902F8F2D0F940DF28E2D0F940DF274
:10F2500090E29093C6008091C00086FFFCCF809121
:10F26000C00080648093C000AEE3A093C60080918C
:10F27000C00086FFFCCF8091C00080648093C000F6
:10F28000C601AA27BB270F940DF2BB27AD2D9C2DDD
:10F290008B2D0F940DF28A2D0F940DF20F94DCF14B
:10F2A000CC5DDE4FE881F981C452D140F99709F471
:10F2B0004DCBF4E0EF2EF12C012D112D6E0C7F1CA7
:10F2C000801E911EF2CD83E093EE62E00F94F5F183
:10F2D0008AE192EE60E00F94C2F18091C00087FF56
:10F2E000FCCF1091C6001F751093C6008091C0001E
:10F2F00086FFFCCF8091C00080648093C0000F9493
:10F30000DCF1812F81548A3108F036C1163409F4BA
:10F3100095C0173490F4133409F44EC0143430F40B
:10F320001134F1F0123409F01DC130C0143409F465
:10F3300059C0153409F016C16BC01A3409F4C4C0A1
:10F340001B3438F4173409F48FC0183409F00AC19B
:10F35000A1C01B3409F4D2C01C3409F003C1E8C0B9
:10F360008FEF81B90DC082B1809582B980E090E0C5
:10F37000E0EDF7E03197F1F70196883C9105C1F790
:10F380008091C00087FFEFCF12B8EFC08FEF84B934
:10F390000DC085B1809585B980E090E0E0EDF7E0A3
:10F3A0003197F1F70196883C9105C1F78091C00033
:10F3B00087FFEFCF15B8D9C08FEF87B90DC088B1DF
:10F3C000809588B980E090E0E0EDF7E03197F1F7C3
:10F3D0000196883C9105C1F78091C00087FFEFCF6F
:10F3E00018B8C3C08FEF8AB90DC08BB180958BB9A7
:10F3F00080E090E0E0EDF7E03197F1F70196883C8E
:10F400009105C1F78091C00087FFEFCF1BB8ADC059
:10F410008FEF8DB90DC08EB180958EB980E090E0F0
:10F42000E0EDF7E03197F1F70196883C9105C1F7DF
:10F430008091C00087FFEFCF1EB897C08FEF80BBD1
:10F440000DC081B3809581BB80E090E0E0EDF7E0F6
:10F450003197F1F70196883C9105C1F78091C00082
:10F4600087FFEFCF11BA81C08FEF83BB0DC084B38C
:10F47000809584BB80E090E0E0EDF7E03197F1F714
:10F480000196883C9105C1F78091C00087FFEFCFBE
:10F4900014BA6BC08FEF809301010FC080910201FD
:10F4A00080958093020180E090E0E0EDF7E03197F5
:10F4B000F1F70196883C9105C1F78091C00087FF64
:10F4C000EDCF1092020151C08FEF809304010FC065
:10F4D0008091050180958093050180E090E0E0ED4A
:10F4E000F7E03197F1F70196883C9105C1F78091DB
:10F4F000C00087FFEDCF1092050137C08FEF8093DA
:10F5000007010FC08091080180958093080180E079
:10F5100090E0E0EDF7E03197F1F70196883C910536
:10F52000C1F78091C00087FFEDCF109208011DC088
:10F530008FEF80930A010FC080910B01809580931B
:10F540000B0180E090E0E0EDF7E03197F1F70196F4
:10F55000883C9105C1F78091C00087FFEDCF1092E4
:10F560000B0103C085E292EEEEC98091C00087FFD7
:10F57000FCCF8091C600EAC988E392EEE4C98CE131
:10F5800091EEE1C988249924933011F1943028F444
:10F59000913089F09230B8F408C0953061F195301F
:10F5A000F0F0963009F048C043C02B3109F042C951
:10F5B00091E06BE13FC96227C15DDE4F2883CF52E6
:10F5C000D14092E037C9B22FA0E0622793E032C960
:10F5D000822F90E0A82BB92B622794E02BC92E3004
:10F5E00009F039C3622795E0C05DDE4F19821882A9
:10F5F000C053D1401FC9E1E0F0E0EC0FFD1FC05D3A
:10F60000DE4F08811981C053D140E00FF11F2083E4
:10F610000F5F1F4FC05DDE4F19830883C053D14079
:10F6200062270A171B0709F005C9D80196E002C92D
:10F63000261709F010C303C0973009F0FBC87724E0
:10F640009981933109F412C19431C8F4963009F4C8
:10F65000D8C0973050F4923009F406C1933009F4C1
:10F660006DC0913009F059C253C0913109F477C08F
:10F67000923108F0BBC0903109F04FC2F5C098310B
:10F6800009F487C0993150F4953109F4EFC09531F0
:10F6900008F4C6C1963109F040C2C2C19A3109F4DA
:10F6A0006CC09A3108F491C09B3109F45BC09D3164
:10F6B00009F033C29D81903359F48F81882311F46E
:10F6C0009EE11CC0813011F091E018C098E916C08D
:10F6D000892F807591F0903539F4E0E0F0E089E011
:10F6E0008093570094910AC0983539F4E3E0F0E034
:10F6F00089E080935700949101C090E01A821B82A8
:10F700008D818C831D829E831F8227E030E009C299
:10F710001A8288E08B8381E48C8386E58D8382E581
:10F720008E8389E48F8383E5888780E589878FE5E9
:10F730008A8782E38B872BE030E0F3C18A818139AD
:10F7400041F0823941F0803911F48FE005C080E04A
:10F7500003C082E001C08AE01A828B8344C0772410
:10F76000739482C08D81882311F48EE12CC0813086
:10F7700011F081E028C088E926C01A82E1E0F0E0BB
:10F7800089E08093570084918B831C8224E030E0D1
:10F79000C8C18B81803589F48C81883039F4E2E0EE
:10F7A000F0E089E08093570084910DC0E0E0F0E044
:10F7B00089E080935700849106C0E3E0F0E089E09F
:10F7C0008093570084911A82DFCF8D81836C99E0FA
:10F7D000E1E0F0E0082E90935700E89507B600FCB2
:10F7E000FDCF1A821B8223E030E09BC180EC8A832C
:10F7F000CE5CDE4F188219821A821B82C253D1401E
:10F800008EC18A8190E0A0E0B0E0582F44273327D2
:10F8100022278B8190E0A0E0B0E0DC0199278827C7
:10F82000282B392B4A2B5B2B8D8190E0A0E0B0E098
:10F83000282B392B4A2B5B2B8C8190E0A0E0B0E089
:10F84000BA2FA92F982F8827282B392B4A2B5B2BCF
:10F85000220F331F441F551FC05EDE4F288339839C
:10F860004A835B83C052D1401A8259C13A81C95C34
:10F87000DE4F3883C753D140CA5CDE4F1882C6536F
:10F88000D1408B81C82EDD24CA5CDE4F488159816E
:10F89000C653D140C42AD52A933109F082C0CE5C28
:10F8A000DE4F88819981AA81BB81C253D1408050AB
:10F8B000904CA340B04030F583E0CE5CDE4FE88052
:10F8C000F9800A811B81C253D140F70100935B008C
:10F8D00080935700E89507B600FCFDCFCE5CDE4F65
:10F8E000088119812A813B81C253D14000501F4FAA
:10F8F0002F4F3F4FCE5CDE4F088319832A833B8313
:10F90000C253D140C05EDE4F488159816A817B81FC
:10F91000C052D140DE011B9631E08C9111962C91A2
:10F9200011971296C75CDE4F2883C953D140C85C3B
:10F93000DE4F1882C853D14090E0C85CDE4FE881AA
:10F94000F981C853D1408E2B9F2B0C01FA01609393
:10F950005B0030935700E89511244E5F5F4F6F4F67
:10F960007F4F0EEFE02E0FEFF02ECE0CDF1CC114F8
:10F97000D10499F685E0C05EDE4F088119812A81A5
:10F980003B81C052D140F80120935B008093570027
:10F99000E89507B600FCFDCF81E180935700E8951C
:10F9A00035C0C05EDE4F88819981AA81BB81C0527B
:10F9B000D140B695A795979587957C018601ABE0D8
:10F9C000AA2EB12CAC0EBD1E0BC0D5016D915D01F0
:10F9D000C7010F947FFE0894E11CF11C01501040F8
:10F9E0000115110591F7A60160E070E0440F551F65
:10F9F000661F771FC05EDE4FE880F9800A811B8199
:10FA0000C052D1404E0D5F1D601F711F1A82C05E33
:10FA1000DE4F488359836A837B83C052D1407FC0C5
:10FA2000FA80C55CDE4FF882CB53D140C65CDE4F16
:10FA30001882CA53D1408B81C82EDD24C65CDE4FAC
:10FA400008811981CA53D140C02AD12A1A828981DA
:10FA5000BE016D5F7F4F843121F59601C05EDE4FA0
:10FA6000E880F9800A811B81C052D1400BBFF701A9
:10FA700087919691DB018C9311969C936E5F7F4FDB
:10FA8000D801C7010296A11DB11DC05EDE4F88835B
:10FA90009983AA83BB83C052D14022503040F1F6F3
:10FAA00036C0C05EDE4F288139814A815B81C052F9
:10FAB000D1400894C108D108760100E010E0089414
:10FAC000C11CD11C0894E11CF11C011D111DE20E8A
:10FAD000F31E041F151F21BDBB27A52F942F832FB5
:10FAE00082BD2F5F3F4F4F4F5F4FF89A80B5DB01CC
:10FAF0008D93BD012E153F054007510761F7C05E8C
:10FB0000DE4F288339834A835B83C052D1409601FC
:10FB10002D5F3F4FFB01108204C080EC8A8322E0FE
:10FB200030E08BE18093C6008091C00086FFFCCF5F
:10FB30008091C00080648093C000C15DDE4FF88179
:10FB4000CF52D140F093C6008091C00086FFFCCF19
:10FB50008091C00080648093C000432F3093C60022
:10FB60008091C00086FFFCCF8091C00080648093AC
:10FB7000C000922F2093C6008091C00086FFFCCF6A
:10FB80008091C00080648093C0008EE08093C600A6
:10FB90008091C00086FFFCCF8091C000806480937C
:10FBA000C00065E1C15DDE4FE880CF52D1406E25D7
:10FBB00069276427FE01319610C090819093C6009A
:10FBC0008091C00086FFFCCF31968091C000806498
:10FBD0008093C0006927215030402115310569F715
:10FBE0006093C6008091C00086FFFCCF8091C0006A
:10FBF00080648093C00085B1805885B9772081F4F6
:10FC0000C15DDE4F0881CF52D1400F5FC15DDE4F35
:10FC10000883CF52D14090E0A0E0B0E00D941AF4F8
:10FC200027982F9880E090E020ED37E0F901319798
:10FC3000F1F7019684369105C9F700008091C00064
:10FC40008D7F8093C00081E180935700E895EE2777
:10FC5000FF270994FFCF90E00D941AF497FB092E2B
:10FC600007260AD077FD04D02ED006D000201AF443
:10FC7000709561957F4F0895F6F7909581959F4F08
:10FC80000895A1E21A2EAA1BBB1BFD010DC0AA1FDD
:10FC9000BB1FEE1FFF1FA217B307E407F50720F0F5
:10FCA000A21BB30BE40BF50B661F771F881F991F70
:10FCB0001A9469F760957095809590959B01AC01B9
:10FCC000BD01CF010895AA1BBB1B51E107C0AA1FAC
:10FCD000BB1FA617B70710F0A61BB70B881F991FED
:10FCE0005A95A9F780959095BC01CD010895F99991
:10FCF000FECF92BD81BDF89A992780B50895262F31
:10FD0000F999FECF1FBA92BD81BD20BD0FB6F89400
:0EFD1000FA9AF99A0FBE01960895F894FFCF63
:040000033000E000E9
:00000001FF
