:100000000C94B2000C94DA000C94DA000C94DA0030
:100010000C94DA000C94DA000C94DA000C94DA00F8
:100020000C94DA000C94DA000C94DA000C94DA00E8
:100030000C94DA000C94DA000C94DA000C94DA00D8
:100040000C9417120C94DA000C94E5110C94BF1167
:100050000C94DA000C94DA000C94DA000C94DA00B8
:100060000C94DA000C94DA0007634236B79BD8A7E9
:100070001A39685618AEBAAB558C1D3CB7CC5763CD
:10008000BD6DEDFD753EF6177231BF000000803F7B
:1000900008000000BE922449123EABAAAA2ABECD97
:1000A000CCCC4C3E00000080BEABAAAAAA3E000009
:1000B0000000BF000000803F000000000008417801
:1000C000D3BB4387D1133D190E3CC3BD4282AD2B38
:1000D0003E68EC8276BED98FE1A93E4C80EFFFBE30
:1000E00001C4FF7F3F000000000021402324255E63
:1000F000262A28295F2B7B7D7C7E3A227E3C3E3F50
:100100002D3D5B5D5C203B27602C2E2F2F2A2D2B55
:100110001300000000250028002B0000000008004C
:1001200002010000030407000000000000000000BE
:10013000000000240027002A0001020408102040CB
:1001400080010204081020010204081020040404A5
:100150000404040404020202020202030303030370
:100160000300611211241FBECFEFD8E0DEBFCDBF68
:1001700026E0A2E9B5E001C01D92A33EB207E1F777
:1001800015E0A0E0B1E0E4E4F4E302C005900D92D4
:10019000A239B107D9F710E0C2EBD0E004C0219733
:1001A000FE010E94131AC13BD107C9F70E942B130D
:1001B0000C94201A0C9400008CBD9DBD0895AF9244
:1001C000BF92CF92DF92EF92FF920F931F93CF9344
:1001D000DF936C017B018B01040F151FEB015E01A6
:1001E000AE18BF08C017D10759F06991D601ED913B
:1001F000FC910190F081E02DC6010995892B79F7DA
:10020000C501DF91CF911F910F91FF90EF90DF908B
:10021000CF90BF90AF900895FC01538D448D252F52
:1002200030E0842F90E0821B930B541710F0CF9690
:10023000089501970895FC01918D828D981761F0C2
:10024000A28DAE0FBF2FB11D5D968C91928D9F5FD9
:100250009F73928F90E008958FEF9FEF0895FC01B8
:10026000918D828D981731F0828DE80FF11D858D6B
:1002700090E008958FEF9FEF0895FC01918D228DFE
:10028000892F90E0805C9F4F821B91098F73992783
:10029000089589EA95E00E943D0121E0892B09F447
:1002A00020E0822F089580E090E0892B29F00E94C1
:1002B000490181110C9400000895FC01A48DA80F40
:1002C000B92FB11DA35ABF4F2C91848D90E0019698
:1002D0008F739927848FA689B7892C93A089B189B8
:1002E0008C91837080648C93938D848D981306C059
:1002F0000288F389E02D80818F7D80830895EF92BD
:10030000FF920F931F93CF93DF93EC0181E0888FCF
:100310009B8D8C8D98131AC0E889F989808185FF9F
:1003200015C09FB7F894EE89FF896083E889F98941
:1003300080818370806480839FBF81E090E0DF9143
:10034000CF911F910F91FF90EF900895F62E0B8D96
:1003500010E00F5F1F4F0F731127E02E8C8D8E1151
:100360000CC00FB607FCFACFE889F989808185FFB8
:10037000F5CFCE010E945D01F1CFEB8DEC0FFD2F8B
:10038000F11DE35AFF4FF0829FB7F8940B8FEA8973
:10039000FB8980818062CFCFCF93DF93EC01888D82
:1003A0008823B9F0AA89BB89E889F9898C9185FDF0
:1003B00003C0808186FD0DC00FB607FCF7CF8C917E
:1003C00085FFF2CF808185FFEDCFCE010E945D01D8
:1003D000E9CFDF91CF91089590E0FC01E55EFE4FFB
:1003E0002491FC01E75CFE4F3491FC01E35BFE4F7E
:1003F000E491EE23C9F0222339F0233001F1A8F46F
:10040000213019F1223029F1F0E0EE0FFF1FEF5EED
:10041000FE4FA591B4918FB7F894EC91611126C06D
:1004200030953E233C938FBF08952730A9F02830A4
:10043000C9F0243049F7809180008F7D03C08091FE
:1004400080008F7780938000DFCF84B58F7784BD65
:10045000DBCF84B58F7DFBCF8091B0008F77809309
:10046000B000D2CF8091B0008F7DF9CF3E2BDACF94
:10047000CF93DF9390E0FC01E75CFE4F2491835B18
:100480009E4FFC0184918823D1F090E0880F991F42
:10049000FC01E15DFE4FA591B491FC01EF5EFE4FC2
:1004A000C591D49161110EC09FB7F8948C91E22F41
:1004B000E0958E238C932881E223E8839FBFDF9110
:1004C000CF9108958FB7F894EC91E22BEC938FBF06
:1004D000F6CF3FB7F89480919D0590919E05A0912D
:1004E0009F05B091A00526B5A89B05C02F3F19F028
:1004F0000196A11DB11D3FBFBA2FA92F982F8827A4
:10050000BC01CD01620F711D811D911D42E0660F7E
:10051000771F881F991F4A95D1F708958F929F9250
:10052000AF92BF92CF92DF92EF92FF924B015C01AC
:100530000E9469026B017C010E9469026C197D09AD
:100540008E099F09683E734081059105A8F321E05B
:10055000821A9108A108B10888EEC80E83E0D81E5F
:10056000E11CF11C81149104A104B10429F7FF904E
:10057000EF90DF90CF90BF90AF909F908F900895B5
:100580002FB7F8946091990570919A0580919B0519
:1005900090919C052FBF08950F931F93CF93DF93E6
:1005A000FC018B01EA0180819181892B31F19281DB
:1005B000992349F128813981232BF9F0D8012D9114
:1005C0003C91D9014C918381682F691B770B808105
:1005D0009181860F971FDC014C9382818150828329
:1005E00088819981019799838883D8018D919C9105
:1005F000119701968D939C93DACF80E0DF91CF9194
:100600001F910F9108958381828381E0F7CF2F920C
:100610003F924F925F926F927F928F929F92AF9292
:10062000BF92CF92DF92EF92FF920F931F93CF93DF
:10063000DF9300D000D01F92CDB7DEB7D80112965D
:100640002C911297213009F484C02B019D838C8357
:10065000FC0162814C91641739F00190F081E02D2A
:100660000480F581E02D09953801B2E06B0E711C14
:100670008C809D80E4E08E0E911C6801C801089674
:100680009B838A83540173012C803D809AE0290E5C
:10069000311CD7014D917D01F50191915F01D3018D
:1006A000F401198280E02191421303C0413009F026
:1006B00081E02D91291304C0913011F021E02983AC
:1006C000E215F30581F781111AC0AC81BD81ED916E
:1006D000FC9111970280F381E02DB201CD010995C3
:1006E000AC81BD81ED91FC910680F781E02DD701B1
:1006F00011974C91D8016C918C819D810995B9819C
:10070000B11111C0AC81BD81ED91FC910084F185E6
:10071000E02DD50111974C91AC81BD8112966C9161
:100720001297CD010995EA81FB81EE16FF0609F0CB
:10073000B0CF8C819D8102969B838A83D6018D9157
:100740006D01EA81FB818193FB83EA83AE15BF05CE
:10075000A9F70F900F900F900F900F90DF91CF910E
:100760001F910F91FF90EF90DF90CF90BF90AF90CF
:100770009F908F907F906F905F904F903F902F90C1
:100780000895DF92EF92FF920F931F93CF93DF9321
:10079000EC0185E0E62EF12CFE01869FE00DF11DB7
:1007A0001124908596FF24C0192F177001E085E071
:1007B000D82E8FEF800F8F3008F001E0602F70E0AF
:1007C000062FD69EF001D79EF00D1124EC0FFD1FD1
:1007D00080858695869586958770181701F16F5FDD
:1007E0007F4F603168F38D81811302C011501D83EA
:1007F00085E08E9DF0018F9DF00D1124EC0FFD1F03
:10080000108681E0818712862296D783C683DF9186
:10081000CF911F910F91FF90EF90DF900895CE013F
:100820000E94C103C6CFFC0120812EBD9B01215037
:10083000310941F051810DB407FEFDCF4EB55EBDCB
:100840004193F5CF61507109860F971F0DB407FED4
:10085000FDCF2EB5FC0120830895FC0121E0613419
:1008600099F49C01255B3F4F61E0AC014E5F5F4F07
:100870001586668717865487438735962E173F0758
:10088000B9F7FC01158208953585631729F02F5FAC
:1008900035962031C9F70895622F0C94C103CF9388
:1008A000DF93FC0167FD12C0283080F4442319F067
:1008B0008581873059F0EF01A1E0B0E08D85882374
:1008C00049F111962596A031B105C1F780E018C015
:1008D00085E08A9FE0018B9FD00D1124CE0FDF1F92
:1008E000442389F081E4888785818F5F858325E0B3
:1008F0002A9FC0012B9F900D1124E80FF91F8085BE
:10090000DF91CF91089581E08887F1CF2770687BD0
:10091000622B0FC06623E1F26770660F660F660FE9
:100920004423A1F3606485818F5F85838770687F2E
:10093000682B25E02A9FC0012B9F900D1124E80F02
:10094000F91F6087862FDCCFFC0121E0611102C016
:10095000069608953585631739F02F5F3596203157
:10096000C9F790E080E00895069635E0239F800D5A
:10097000911D112408953F924F925F926F927F9242
:100980008F929F92AF92BF92CF92DF92EF92FF929F
:100990000F931F93CF93DF9300D000D0CDB7DEB776
:1009A0006C017A8369835C834B8384E0482E360133
:1009B00082E1680E711C93E0392E5601A7E0AA0E61
:1009C000B11C12E0552453944601B0E18B0E911CEA
:1009D00029813A812115310509F4CDC0F60180A1A4
:1009E0008230F1F0A8F5882309F457C0813091F7DF
:1009F000AE014F5F5F4FBE016D5F7F4FC5010E942B
:100A0000CC02882309F4B7C0D6011596ED91FC916C
:100A10001697808191968C939197818192968C9371
:100A2000F6017682658230A2D60192968C919297D9
:100A3000843011F493961C92F60181A18250848334
:100A400025813681308727838287818740A205C030
:100A5000833051F3843009F0BDCFD60192968C914A
:100A60009297843019F1853009F44BC0823009F037
:100A700075C0AE014F5F5F4FBE016D5F7F4FC50117
:100A80000E94CC02882309F476C0F601858984A3EC
:100A9000F6019682858210A29BCF14838581968170
:100AA000908787831287118750A2A2CFAE014F5F34
:100AB0005F4FBE016D5F7F4FC5010E94CC0288234E
:100AC00009F459C0D60155968C915597833001F79A
:100AD00056968C9156978130D9F698969C91989716
:100AE00057968C91992351F0882391F2F60153A2E5
:100AF000928996A3938997A385A3CACF813041F6A3
:100B0000F5CFAE014F5F5F4FBE016D5F7F4FC501F7
:100B10000E94CC02882379F1D60193968C91939709
:100B2000882309F4B5CF12968D919C91009709F412
:100B3000AFCFDC01ED91FC910190F081E02D7401CB
:100B4000D60195960C91959797962C919797969696
:100B50004C91969794966C9109959ACFF60185855C
:100B60008823F9F0813041F1D6011E968D919C9138
:100B7000892B09F48DCF0F900F900F900F90DF917C
:100B8000CF911F910F91FF90EF90DF90CF90BF908A
:100B9000AF909F908F907F906F905F904F903F901D
:100BA000089591968C9191978250990B1F969C93E2
:100BB0008E931E971D965C9229813A818B819C8130
:100BC000782F692FF601468557854115510581F02B
:100BD00001962115310539F0415051095787468753
:100BE00021503109EDCF7B836C831A821982BCCFEF
:100BF0009C838B833A8329831586B6CF0895EF9221
:100C0000FF92CF93DF93FC01E7018289823021F1CB
:100C10006787408B9B8193709330F1F49A8197FFA3
:100C20001BC02E81308D321708F4208F282F30E022
:100C3000D901AA0FBB1FA20FB31FAE0FBF1F9F701A
:100C400017969C9317979C8118969C93189794E0FD
:100C500019969C938F5F828BDF91CF91FF90EF90DD
:100C60000895EF92FF920F9302970E94FF050F9154
:100C7000FF90EF900895FC018789089570E0660F5A
:100C8000771F860F971FFC0185859685089581E063
:100C9000613009F080E0089581E0633009F080E080
:100CA0000895FC0186810895CF93DF93EC018C8138
:100CB0009D81DC01ED91FC910480F581E02D6E8138
:100CC00009951F86188A81E08A8B1E821B8A1C8ADE
:100CD0001D8A1E8A1F8A80E0DF91CF9108952A988D
:100CE00008952A9A089570E0660F771F860F971F60
:100CF000FC015687458781E0089561E08EE00E94FF
:100D0000EC0161E070E080E090E00E948E0260E023
:100D10008EE00C94EC01463421F460E082E10C9406
:100D20003802483421F461E083E10C94EC01089529
:100D3000089560E083E10E94EC0164EF71E080E0DF
:100D400090E00E948E0261E083E10C94EC0161E08E
:100D500082E10E94380261E082E10E94EC0168ECCD
:100D600070E080E090E00E948E0260E082E10C94EE
:100D700038028CE091E0089580E091E0089584EFDE
:100D800090E008958AEE90E0089580E00895089537
:100D900080E0089508950F931F93CF93DF9300D0C1
:100DA000CDB7DEB7182F062F80E591E00E94DC005A
:100DB0000E946F06126019830A8362E070E0CE0120
:100DC00001960E9413040E9471060F900F90DF910C
:100DD000CF911F910F9108958EBD00000DB407FEB5
:100DE000FDCF8EB50895FF920F931F93CF93DF939E
:100DF000182FF62EEA0180E591E00E94DC000E94A7
:100E00006F06812F82600E94EC060F2D10E0FF20FC
:100E100021F0B801CE010E941304C00FD11F0E941F
:100E20007106CE01DF91CF911F910F91FF90089530
:100E3000CF93C82F80E591E00E94DC000E946F06EE
:100E40008C2F0E94EC0680E00E94EC06C82F0E94C6
:100E500071068C2FCF9108958F929F92AF92BF927F
:100E6000CF92DF92EF92FF920F931F93CF93DF9376
:100E7000882E962E5A010E94C0026B017C0128E840
:100E8000C20E23E1D21EE11CF11C10E000E0D0E014
:100E9000C0E098280E94C0026C197D098E099F0944
:100EA00097FF1EC0692D80EF0E94CB060E94C002F2
:100EB0006C197D098E099F0997FF09C088EC0E9473
:100EC000180787FFF3CF60E888EC0E94CB0688EF15
:100ED0000E941807C82FCF70C43081F0CE30B9F00F
:100EE0008C2FDF91CF911F910F91FF90EF90DF90AA
:100EF000CF90BF90AF909F908F9008950F5F1F4F3E
:100F0000A114B10439F20A151B0521F6E9CFDF5F00
:100F1000D33009F0BFCFE4CFAF92BF92CF92DF9230
:100F2000EF92FF920F931F93CF93DF93EC01B62EB6
:100F3000A42E69010E94A4047C0186EDE114F10451
:100F400009F447C0D701ED91FC91119787ED3097D7
:100F500009F43FC013969C9180E0981731F02081EE
:100F6000A21629F033968F5FF8CFF0E0E0E0D601CB
:100F7000ED93FC938BED309761F1228126952695B8
:100F8000203108F02FE081E090E0A0E0B0E004C064
:100F9000880F991FAA1FBB1F2A95D2F70197F80146
:100FA000918380836B2D80EE0E94CB0688ED0E949A
:100FB0001807D70114969C91682F697F992329F00F
:100FC000CA58DF4F68816260682B88ED0E94CB06AB
:100FD00080E0DF91CF911F910F91FF90EF90DF9014
:100FE000CF90BF90AF90089588EF0E941807807C43
:100FF0008034B1F018F4882301F10895803819F095
:10100000803CC9F0089588ED0E94180781FD0DC04D
:1010100069EC88ED0E94CB0682E08093A8050895D4
:1010200088ED0E94180781FDF3CF6BEC88ED0E94DC
:10103000CB0683E0F2CF81E0F0CF61ED88ED0E9436
:10104000CB061092A8050895CF92DF92FF920F93DE
:101050001F93CF93DF93F62E01E0C82FD0E0CC0F83
:10106000DD1FCE53D94F6E0188819981DC01ED914E
:10107000FC910280F381E02D2F2D40E060E0099586
:10108000182F803E49F561E088EE0E94CB0666E6A7
:1010900070E080E090E00E948E02F60180819181F4
:1010A000DC01ED91FC910190F081E02D2F2D40E0CD
:1010B00060E00995182F8D3041F58FEF800F833058
:1010C00088F061E088EE0E94CB0666E670E080E082
:1010D00090E00E948E0210C08D3061F48FEF800F7F
:1010E000833050F464E670E080E090E00E948E026D
:1010F0000F5FBACF882389F2812FDF91CF911F91A3
:101100000F91FF90DF90CF9008958823A9F3D9CF56
:101110002F923F924F925F926F927F928F929F9207
:10112000AF92BF92CF92DF92EF92FF920F931F93F5
:10113000CF93DF937B013A016901F901A080B1806F
:10114000FB013180F90111821082FB01828160E193
:1011500081FD60E288EE0E94CB062A2CA301F701F4
:10116000608180E00E942C07582EF6E08F1310C09B
:1011700088EF0E941807F70192819D7F84FF92609B
:10118000928360E191FD60E288EE0E94CB06E6CF9B
:10119000811150C088EC0E94180782FF5FC080E375
:1011A0000E941807482E8A151B0411F008F0422CE3
:1011B000F60180819181E501C81BD90BD7FF02C0E0
:1011C000D0E0C0E0842C912C8C169D060CF4E40138
:1011D00080E591E00E94DC000E946F0688E00E949A
:1011E000EC06AE0170E060E0C8010E94191A209779
:1011F00021F0BE01C8010E9413040C0F1D1F0E94A4
:10120000710664E088EC0E94CB06F6018081918132
:10121000880E991E91828082431420F08A149B04C8
:1012200008F49CCF88EF0E941807F701928184FB95
:1012300091F99283852DDF91CF911F910F91FF90AE
:10124000EF90DF90CF90BF90AF909F908F907F9066
:101250006F905F904F903F902F90089580EF582EA1
:10126000E9CF2F923F924F925F926F927F928F922F
:101270009F92AF92BF92CF92DF92EF92FF920F9325
:101280001F93CF93DF93CDB7DEB765970FB6F89472
:10129000DEBF0FBECDBF3C01342E222E402EED8A84
:1012A000EAA4FBA4188A1F861E861D868E01035F92
:1012B0001F4F9E01215F3F4F40E00E948C07582E38
:1012C0008111F5C039822A824B822D892C83DE82DE
:1012D000CD82B886AF82AE014F5F5F4F68E080E29B
:1012E0000E94F3064D855E8560E080E10E942C0738
:1012F00081113AC1E114F10409F453C00F85188932
:10130000D80112968C91129737FE51C082601296C6
:101310008C93650144244394C114D10409F429C178
:101320009C868B864D855E856F85788987019E01B9
:10133000255F3F4FC3010E948808582EB6E08B13EB
:101340000EC088EF0E941807EF85F88985FB882773
:1013500080F98425928180FB91F99283DDCF811100
:10136000A6C0ECA5FDA53097A1F06B857C8501900A
:10137000F081E02D0190F081E02DC5018C199D09CF
:101380009A8789879E01275F3F4FA7018CA59DA55E
:1013900009958B859C85C81AD90A8815990508F086
:1013A000BBCF4D855E8537FEDBC080EADAC0816049
:1013B00012968C93129711966C908FEF860D803455
:1013C00008F0D4C02D843E840E94C0029B01AC0171
:1013D00028573C4E4F4F5F4F298B3A8B4B8B5C8B82
:1013E000D80112968C9160E880FF60E488EE0E943C
:1013F000CB06512C712C8114910409F448C053017F
:101400008614970408F45401AD8AA7016A2D80E17F
:101410000E94F3066A2D88E30E94CB06F8016081E2
:10142000606280EF0E94CB0688EC0E94180787FF5D
:10143000FBCF60E888EC0E94CB0688EF0E9418077B
:101440008F70582E412CD12CC12C552009F449C045
:101450000E94C00229893A894B895C89621B730BFF
:10146000840B950B97FF3DC036E0531609F464C01A
:101470004EE05416D9F154E0551209C08FEFC81A46
:10148000D80A21143104B1F12C143D0499F588EFE8
:101490000E941807D80112969C91129785FB90F92B
:1014A00012969C934D855E85552009F459C0852D73
:1014B00065960FB6F894DEBF0FBECDBFDF91CF911A
:1014C0001F910F91FF90EF90DF90CF90BF90AF9062
:1014D0009F908F907F906F905F904F903F902F9054
:1014E00008958A189B08EA0CFB1C85CF439493E06F
:1014F000491669F260E088E30E94CB06D7016C913F
:1015000080E10E94CB066D8988E30E94CB06F8013A
:101510006081606280EF0E94CB0688EC0E94180711
:1015200087FFFBCF60E888EC0E94CB0688EF0E9423
:1015300018078F70582E89CF88EF0E94180785FBF7
:10154000882780F9A1E08A27F801928180FB90F931
:10155000928360E890FF60E488EE0E94CB06CACFD9
:1015600080E860E00E942C07582EA1CF8AED582E0B
:101570009ECF4D855E85552009F417CF98CF8F9269
:101580009F92AF92BF92CF92DF92EF920F931F92F2
:101590001F923F932F934A015A01D12CC12CEE2464
:1015A000E39400E026E040E80E9431090F900F909C
:1015B0000F900F900F91EF90DF90CF90BF90AF9072
:1015C0009F908F9008958F929F92AF92BF92CF92EB
:1015D000DF92EF920F93CF931F921F921F921F9251
:1015E000912C812CB12CA12CD12CC12CE12C062FBB
:1015F00025E040E060E00E943109C82F6CE271E014
:1016000080E090E00E948E020F900F900F900F905C
:101610008C2FCF910F91EF90DF90CF90BF90AF9034
:101620009F908F9008952F923F924F925F926F926A
:101630007F928F929F92AF92BF92CF92DF92EF9262
:10164000FF920F931F93CF93DF93CDB7DEB7C658AA
:10165000D1090FB6F894DEBF0FBECDBFDC011696E0
:101660003C91311166C2E22EC42ED62E3C01FC0103
:1016700024803580108ED101ED91FC910190F08194
:10168000E02D60E0C10109952C010097D9F486EDA9
:10169000CA57DF4F0FB6F894DEBF0FBECDBFDF9144
:1016A000CF911F910F91FF90EF90DF90CF90BF905F
:1016B000AF909F908F907F906F905F904F903F90F2
:1016C0002F900895FC010081118187ED011511050E
:1016D000F9F29301295F3F4FC158DF4F39832883C7
:1016E000CF57D04031832083E4829E0126593F4F5B
:1016F00048E050E060E0D30114968D919C910E94E7
:10170000BF0AFE01E458FF4FEF96FFAFEEAFEF9731
:10171000ED968FAFED97811110C2AB96FFACAB97F2
:10172000D2010D931C93D101ED91FC910280F381C4
:10173000E02D2C2D40E06D2DC1010995F30186832C
:10174000882309F4F8C1E2969FADE2979087682F4D
:10175000848195810E94E30AED968FAFED97D101C8
:10176000ED91FC91882389F0D20114961C9204809B
:10177000F581E02DD30116966C91C1010995F30115
:101780001682ED968FADED9783CFD30116966C91AF
:10179000D20114961C920190F081E02DC1010995AF
:1017A000009709F474CFFC01E482FF20A1F04F2DD3
:1017B000433108F042E150E09E0126593F4FD301EA
:1017C00016966C91169714968D919C910E94BF0A63
:1017D000ED968FAFED97ED96FFACED97F110C3C08E
:1017E000EC96BFADEC97CC57DF4FB883C458D040D0
:1017F00010E02E01E1E44E0E511C93012E5F3F4F8D
:10180000CB57DF4F39832883C558D040120130E1D0
:10181000230E311CCC57DF4F8881C458D040181795
:1018200009F499C0ECE2F5E0D2011196FC93EE9335
:10183000CB57DF4F28813981C558D04013963C9350
:101840002E9312971D961C921D971F961C921E9206
:101850001E9790961C92909791961C9291979296B3
:101860001C92929798961C92989716963C922E925C
:10187000159718963C922E92179714968C91149760
:101880001A968C931A9719968C9319971C963C92DA
:101890002E921B97D30114960D90BC91A02DCF577B
:1018A000DF4FB983A883C158D040F301F681CD57EB
:1018B000DF4FF883C358D0401F921F9221E030E0E1
:1018C0002C0F3D1F3F932F9309E0802E912C89E030
:1018D000A82EB12CD12CC12C92E0E92E012F26E0AC
:1018E00040E8CD57DF4F6881C358D040CF57DF4F16
:1018F00088819981C158D0400E9431090F900F9082
:101900000F900F90811120C0AB80BC805F924F92EE
:1019100081E090E08C0F9D1F9F938F93B0E48B2EFE
:10192000912C26E040E8CD57DF4F6881C358D04066
:10193000CF57DF4F88819981C158D0400E9431092B
:101940000F900F900F900F90D30152968C91823090
:1019500011F01F5F5FCFF3011289123069F081ED42
:10196000ED968FAFED97D301ED91FC910480F58159
:10197000E02DC301099505CF848195810681C15869
:10198000DF4FE881F981CF57D040EF2B09F4C7C072
:10199000602F0E94A404FC01892B09F4C3C00283B8
:1019A000C158DF4F28813981CF57D0403183208300
:1019B0001383ED96FFAEED9768EE73E080E090E064
:1019C0000E948E021F921F921F921F92912C812CB7
:1019D000B12CA12CD12CC12CE12CD3011F960C9140
:1019E0001F9729E040E016966C91169714968D91FA
:1019F0009C910E943109ED968FAFED970F900F905B
:101A00000F900F908111AFCF68EE73E080E090E00F
:101A10000E948E021F921F921F921F92F301018D4E
:101A20002BE041E26681848195810E943109ED9627
:101A30008FAFED970F900F900F900F90811193CF74
:101A40001F921F921F921F9200E02AE041E2D301F1
:101A500016966C91169714968D919C910E9431095F
:101A6000ED968FAFED97FE01EF5BFF4F82E395E0C0
:101A700091838083FF93EF93CE0101969F938F9381
:101A800060E4862E912C70E8A72EB12CE2E2EE2EB7
:101A900026E041E8F3016681848195810E94310945
:101AA00080E2ED968FAFED970FB6F894DEBF0FBED4
:101AB000CDBFED968FADED978823B9F190E0959568
:101AC0008795ED968FAFED971F921F92EF963FADE2
:101AD000EF973F93EE968FADEE978F938824839484
:101AE000912CAA24A394B12CD12CC12C52E0E52E28
:101AF00000E029E041E2D30116966C911697149606
:101B00008D919C910E94310969E170E080E090E044
:101B10000E948E020F900F900F900F90CACFA8EDE9
:101B2000FA2E47CFF6EDFF2E44CF91E0F301978BCD
:101B3000AFCD89EDADCD84EDABCDF2011183008346
:101B400012CF8F929F92AF92BF92CF92DF92EF927D
:101B50000F93CF93DF931F92CDB7DEB7FC01928531
:101B6000473409F443C0433551F0493379F491FBCC
:101B7000882780F9292F2D7F80FF226006C0892FBA
:101B80008170292F2E7F80FF21602287828589170F
:101B9000A9F16115710591F1FB0189831F921F92D3
:101BA000CE0101969F938F9388248394912CAA242D
:101BB000A394B12CD12CC12C22E0E22E00E029E02C
:101BC00041E26681848195810E9431090F900F90D6
:101BD0000F900F900F90DF91CF910F91EF90DF90CA
:101BE000CF90BF90AF909F908F90089592FB8827E1
:101BF00080F9292F2B7F80FF2460C7CF80E0EACFB8
:101C0000AF92BF92DF92EF92FF920F931F93CF9309
:101C1000DF93CDB7DEB766970FB6F894DEBF0FBE81
:101C2000CDBFDC0157962C91211112C0D12C8D2DE6
:101C300066960FB6F894DEBF0FBECDBFDF91CF9191
:101C40001F910F91FF90EF90DF90BF90AF9008959C
:101C50007C010E94C002F701038914892589368915
:101C6000601B710B820B930B97FDE0CF4285838540
:101C700090E09E8B8D8BA480B58066811C8A1B8A28
:101C80001A8A198A8E010F5E1F4F9E012D5E3F4FEB
:101C9000C5010E948C07D82E811123C049895A8919
:101CA0006B897C89005111099E012B5E3F4FC50154
:101CB0000E948808D82E811114C02D893E892330B6
:101CC000310578F0D7011D968D919C91009749F0D0
:101CD000DC01ED91FC910190F081E02D40E0B70135
:101CE00009950E94C002F701208D620F711D811DB0
:101CF000911D638B748B858B968B99CFFC01019022
:101D00000020E9F73197AF01481B590BBC0189EA64
:101D100095E00C94DF00CF92DF92EF92FF920F9349
:101D20001F93CF93DF938091A6059091A7054397CA
:101D300031F48DE090E09093A7058093A605809103
:101D40009705811113C08091A6059091A7059C016C
:101D5000215631092A31310548F420919605211187
:101D600005C080979093A7058093A6058091A6054E
:101D70009091A7058330910509F080C00E94A706C5
:101D80008091A6059091A705479741F482E090E0E5
:101D900090939505809394050E94570F8091A60516
:101DA0009091A705059741F483E090E09093950505
:101DB000809394050E94570F8091A6059091A705E6
:101DC000449741F484E090E09093950580939405C6
:101DD0000E94570FC6E0D0E0BE010D2E000C880B0C
:101DE000990B0E9457169B01AC0160E070E080E007
:101DF00090E40E941C186B017C0120E030E0A901F6
:101E00000E94171820E030E040E05FE387FD48C003
:101E1000C701B6010E9475170E94E1170091A6053F
:101E20001091A7056023712381E0672B09F480E0FE
:101E3000682F8C2F8E5F0E94EC01219768F68091AD
:101E40009705811107C00D30110579F58091960530
:101E5000882359F1000F012F001F110B1195602FDE
:101E600061708FE00E94EC01DF91CF911F910F9183
:101E7000FF90EF90DF90CF900C947D06823191051A
:101E800019F40E9499067CCF419709F079CF81E03F
:101E900090E090939505809394050E94570F70CF22
:101EA000C701B6010E947417B7CF61E0DACF5F9225
:101EB0006F927F928F929F92AF92BF92CF92DF925A
:101EC000EF92FF920F931F93CF93DF930E94A70689
:101ED0000E94990610E000E0C2E0D0E0552453943F
:101EE00080E0682E81E0782E97E0892E91E0992E8F
:101EF00027E9E22E24E0F22E33ECC32E34E0D32E79
:101F00004DE0A42EB12C80919405909195058130DF
:101F10009105C1F450929605E60109900020E9F779
:101F2000C45CD440F801ED53FB4F2081022E000C1D
:101F3000330B3093A7052093A605089729F55092F7
:101F4000970522C08230910551F4E70109900020E5
:101F5000E9F7C859D440F801E956FB4FE6CF833082
:101F6000910509F044C0E40109900020E9F7C85048
:101F7000D140F801E95FFE4F8081082E000C990BDB
:101F80009093A7058093A6058091A6059091A7053B
:101F90008D37910509F03FC0B092A705A092A60524
:101FA0000E948B0E68EC70E080E090E00E948E0250
:101FB0000F5F1F4F0C171D070CF4A5CF109296054D
:101FC0008091940590919505019761F5DF91CF91EE
:101FD0001F910F91FF90EF90DF90CF90BF90AF9047
:101FE0009F908F907F906F905F900C9499068430B3
:101FF000910551F4E30109900020E9F7C150D14067
:10200000F801E050FF4FB8CF8730910509F095CF28
:1020100010929705B9CF0E948B0E64E170E080E0CA
:1020200090E0C4CFDF91CF911F910F91FF90EF907F
:10203000DF90CF90BF90AF909F908F907F906F90E8
:102040005F9008958F929F92AF92BF92CF92DF924E
:10205000EF92FF920F931F93CF93DF93CDB7DEB72D
:10206000A1970FB6F894DEBF0FBECDBF7C01D62E70
:10207000042F842F8D7F843409F08BC061E082E1CE
:102080000E94380261E082E10E94EC01043409F010
:1020900082C068EC70E080E090E00E948E0260E018
:1020A00082E10E94380286EC800F883048F4A02F2D
:1020B000A953BB0BB0939505A09394050E94570FAD
:1020C0009D2D92728CEF800F8A3108F0D1C0F701FC
:1020D000828581FDC8C0992309F4C8C0035C1091B2
:1020E0009705111105C08FE9800F8A3108F400525D
:1020F0008091920590919305892B09F03BC186E070
:10210000E82EF12CC02ED12CB7010F2C000C880B1F
:10211000990B0E9457169B01AC0160E070E080E0D3
:1021200090E40E941C184B015C0120E030E0A90102
:102130000E94171820E030E040E05FE387FD13C104
:10214000C501B4010E9475170E94E1176C217D2121
:1021500081E0672B09F480E0682F82E08E0D0E94F9
:10216000EC01F1E0EF1AF10878F6111108C00D301A
:1021700009F0FEC080919605882309F4F9C0602F0C
:10218000661F6627661F8FE00E94EC010E947D0695
:1021900098C0483411F0053489F460E083E10E946E
:1021A000EC01053459F464EF71E080E090E00E94A6
:1021B0008E0261E083E10E94EC0175CF093209F0E3
:1021C00072CF8AE895E00E947E0E19A281E388A36F
:1021D00084E38F8FCE014F960E947E0E8FE895E0AC
:1021E0000E947E0E81E090E090939305809392058B
:1021F00006E010E0B801012E000C880B990B0E943C
:1022000057169B01AC0160E070E080E090E40E9412
:102210001C184B015C0120E030E0A9010E94171856
:1022200020E030E040E05FE387FD18C0C501B40165
:102230000E9475170E94E1176B71772781E0672B69
:1022400009F480E0682F82E0800F0E94EC010150C9
:10225000110980F60E947D060BE125CFC501B4016E
:102260000E947417E7CF992309F438CF035A37CF68
:1022700082EE800F8A30D8F49923A1F0D701ED9136
:10228000FC910284F385E02DC70109950E51110BD5
:10229000080F191FF8010491002399F0033109F484
:1022A0004CC01DCF073209F45AC00D5E18CF87EA23
:1022B000800F8930C8F4D7011A968C91085280FD9E
:1022C0000ECFA1960FB6F894DEBF0FBECDBFDF9143
:1022D000CF911F910F91FF90EF90DF90CF90BF9023
:1022E000AF909F908F90089583ED800F8C3088F48D
:1022F0000D52110BD701ED91FC91992331F004841B
:10230000F585E02DC7010995C3CF0684F785E02D3B
:10231000F9CF8CEA800F853058F4D701ED91FC910C
:102320000088F189E02DC70109950455110BB0CF44
:102330000C32B9F020F4083221F60DE0D0CE02368E
:1023400049F0033609F0BDCFF701828580FFB9CF90
:102350000EE2C5CED7011A968C9180FFB2CF00E372
:10236000BECE00E2BCCEC501B4010E947417ECCE13
:1023700061E009CF1092930510929205A2CF1F92AF
:102380000F920FB60F9211242F933F934F935F93A9
:102390006F937F938F939F93AF93BF93EF93FF932D
:1023A00089EA95E00E945D01FF91EF91BF91AF91A5
:1023B0009F918F917F916F915F914F913F912F915D
:1023C0000F900FBE0F901F9018951F920F920FB68F
:1023D0000F9211242F938F939F93EF93FF93E0918C
:1023E000B905F091BA058081E091BF05F091C00573
:1023F00082FD1BC090818091C2058F5F8F732091F9
:10240000C305821741F0E091C205F0E0E755FA4FAD
:10241000958F8093C205FF91EF919F918F912F919E
:102420000F900FBE0F901F9018958081F4CF1F92D0
:102430000F920FB60F9211242F933F938F939F9378
:10244000AF93BF938091990590919A05A0919B05B8
:10245000B0919C053091980523E0230F2D3758F556
:102460000196A11DB11D2093980580939905909325
:102470009A05A0939B05B0939C0580919D05909132
:102480009E05A0919F05B091A0050196A11DB11DCB
:1024900080939D0590939E05A0939F05B093A00502
:1024A000BF91AF919F918F913F912F910F900FBE50
:1024B0000F901F90189526E8230F0296A11DB11DBD
:1024C000D2CF1092AC051092AB0588EE93E0A0E05D
:1024D000B0E08093AD059093AE05A093AF05B093A7
:1024E000B00588E395E09093AA058093A90585EC53
:1024F00090E09093B6058093B50584EC90E09093BE
:10250000B8058093B70580EC90E09093BA0580936E
:10251000B90581EC90E09093BC058093BB0582ECFB
:1025200090E09093BE058093BD0586EC90E090937B
:10253000C0058093BF051092C2051092C30510928A
:10254000C4051092C5058EE695E090936D068093C4
:102550006C061092740681E08093750610927606E0
:102560008EE696E0909373068093720610926E0644
:1025700088E080936F068CE380937006109271065A
:10258000ECE6F6E027EB36E081E04EE656E0158615
:10259000868717865487438735962E173F07B9F7E6
:1025A0001092E20691E1909346062CE636E03093D5
:1025B0005706209356062AE435E0309353062093BD
:1025C000520628E635E030935506209354061092C3
:1025D00065061092660610926706109268061092C1
:1025E000690610926B06809364061092630610923F
:1025F000590688E080935A068CE380935B0610921C
:102600005C0610925D0684E080935E0610925F0681
:102610001092600610926106E2ECF6E090E080E035
:1026200021913191232B91F4880F991FFC01EE53D6
:10263000F94F82E596E0918380831092510688E7F6
:1026400095E090934806809347060895019680315F
:10265000910531F7F2CFCF93DF93CDB7DEB7659712
:102660000FB6F894DEBF0FBECDBF789484B58260FC
:1026700084BD84B5816084BD85B5826085BD85B526
:10268000816085BD80916E00816080936E001092A4
:10269000810080918100826080938100809181001F
:1026A00081608093810080918000816080938000B0
:1026B0008091B10084608093B1008091B00081600E
:1026C0008093B00080917A00846080937A0080913A
:1026D0007A00826080937A0080917A008160809392
:1026E0007A0080917A00806880937A001092C1000D
:1026F00061E081E10E94380261E082E00E943802DC
:1027000061E083E00E94380261E084E00E943802C8
:1027100061E085E00E94380261E086E00E943802B4
:1027200061E087E00E94380261E088E00E943802A0
:1027300061E08FE00E94380261E08EE00E94380282
:1027400061E083E10E94380261E083E10E94EC01D4
:1027500060E082E10E943802E091B905F091BA058B
:1027600082E08083E091B505F091B6051082E0919A
:10277000B705F091B8058FEC80831092C105E09108
:10278000BD05F091BE0586E08083E091BB05F09128
:10279000BC05808180618083E091BB05F091BC0520
:1027A000808188608083E091BB05F091BC058081C9
:1027B00080688083E091BB05F091BC0580818F7DAE
:1027C0008083229A0E9471061FB7F8948091A10518
:1027D000811127C0E7E5F1E08491E3E4F1E0949111
:1027E000E82FF0E0EE0FFF1FE15DFE4FA591B491E1
:1027F000EC91E92321F461E08AE00E94EC0161E0C0
:102800008AE00E9438028CB580618CBD8CB58064F2
:102810008CBD61E08DE00E94380261E08BE00E9497
:1028200038028091A1058F5F8093A1051FBF229A76
:102830000E947106219868E188E80E94CB0660E258
:1028400088E70E94CB0660E088E70E94CB0610E094
:1028500000E088E60E9418070F5F1F4F80FF58C0F6
:1028600061EC88ED0E94CB0660E680ED0E94CB060D
:1028700064E088EE0E94CB0688EE0E94180782FF73
:10288000FBCF0E94F40760E288EC0E94CB0661E077
:1028900080E80E94CB0687E496E0909360068093E0
:1028A0005F0661E081E10E94EC0101E13E0193E1FC
:1028B000690E711C89EA95E00E943D0118161906FF
:1028C00054F489EA95E00E941B019093A705809338
:1028D000A6050E948B0E83B1182F127081FD0CC0CB
:1028E00088EC0E94180785FF03C00E94F40710E2DD
:1028F000612F88EC0E94CB068091A805813099F069
:10290000B0F0823009F46DC08330C9F010E02EC001
:102910000F3F100709F09DCF68EC70E080E090E079
:102920000E948E02B8CFA3E1A0934606EFCF80911C
:102930004606807F803151F300934606E7CF11E0D1
:1029400080914606807F803189F40E94C0026853DE
:102950007F4F8F4F9F4F6093A2057093A305809385
:10296000A4059093A505B0E2B093460692ECE92E3B
:1029700096E0F92E6701F601819191916F01009720
:1029800039F0DC01ED91FC910680F781E02D09958D
:10299000E2EEF6E0EC15FD0571F780914606803415
:1029A00009F456C000F58032E9F1803309F44AC0D9
:1029B000813109F05DC01092E206D7018D919D91A1
:1029C0007D01009739F0DC01ED91FC910480F581E7
:1029D000E02D0995CE14DF0481F782E1809346064D
:1029E00047C010E0ADCF813509F458C0803809F4F4
:1029F00068C08035E9F588EC0E94180786FF3DC065
:102A000081E5809346060E94C0026C5E7F4F8F4F27
:102A10009F4F6093A2057093A3058093A4059093A4
:102A2000A50526C00E94C002C090A205D090A305B3
:102A3000E090A405F090A5056C197D098E099F0909
:102A400097FD1BC061E088EE0E94CB0680E4C6CFF4
:102A500088EE0E94180780FD10C088ED0E941807BC
:102A6000682F686088ED0E94CB06B0E5B0934606FB
:102A70008091460661E0803909F060E081E10E94C2
:102A8000EC0180E090E0892B09F414CF0E94490109
:102A9000882309F40FCF0E9400000CCF0E94C002CF
:102AA0008090A2059090A305A090A405B090A505E4
:102AB000681979098A099B0997FDDFCF80E880931F
:102AC00046061B8AE8E0EC8BFCE3FD8BC0907206A7
:102AD000D090730670927306609272061093760619
:102AE0009E012F5F3F4F42E150E060E08CE696E0B0
:102AF0000E94BF0A582ED0927306C09272068111AE
:102B000051C0A984BA848B849C843D802E8082EC41
:102B1000C82E86E0D82E412CD6018D919C9100972D
:102B200009F042C04394B2E0CB0ED11CE0E14E125A
:102B3000F3CFF70180819181009709F079C0539418
:102B4000F2E0EF0EF11C80E15812F3CF8091720693
:102B500090917306892B09F459C01093760620E0F2
:102B600040E060E08CE696E00E944F04F82E882357
:102B700009F44CC0682F8CE696E00E94A4040097EC
:102B800009F444C0FC0114836F2D8CE696E00E948A
:102B9000E30A582E882309F486C06F2D8CE696E050
:102BA0000E942D04852D2FC0DC01ED91FC91008445
:102BB000F185E02D09958111B5CFF60180819181D4
:102BC000DC01ED91FC910088F189E02D622D0995E1
:102BD000882309F4A7CFF60180819181DC01ED9172
:102BE000FC910484F585E02DA401B50109958823A5
:102BF00089F0612F842D0E942408813D09F492CF31
:102C0000882309F450C0823D09F432CFF0EAF093F2
:102C100046062ECFF60180819181DC01ED91FC9179
:102C20000684F785E02D632D09958111E2CF7ACFD7
:102C3000DC01ED91FC910084F185E02D0995811175
:102C40007ECFF70180819181DC01ED91FC910088BC
:102C5000F189E02D622D0995811109C0612F852D23
:102C60000E942408982F977F913D51F668CFF70175
:102C700080819181DC01ED91FC910484F585E02D4A
:102C8000A401B501099581115ACFF7018081918185
:102C9000DC01ED91FC910684F785E02D632D09950B
:102CA0008823E1F24CCF80E999CEE89409C097FBE4
:102CB0003EF490958095709561957F4F8F4F9F4F13
:102CC0009923A9F0F92F96E9BB279395F695879557
:102CD00077956795B795F111F8CFFAF4BB0F11F41A
:102CE00060FF1BC06F5F7F4F8F4F9F4F16C08823C1
:102CF00011F096E911C0772321F09EE8872F762FF7
:102D000005C0662371F096E8862F70E060E02AF037
:102D10009A95660F771F881FDAF7880F9695879523
:102D200097F90895990F0008550FAA0BE0E8FEEFF8
:102D300016161706E807F907C0F012161306E4077F
:102D4000F50798F0621B730B840B950B39F40A2678
:102D500061F0232B242B252B21F408950A2609F456
:102D6000A140A6958FEF811D811D08950E94C9166F
:102D70000C943A170E942C1738F00E94331720F059
:102D8000952311F00C9423170C94291711240C94FB
:102D90006E170E944B1770F3959FC1F3950F50E08B
:102DA000551F629FF001729FBB27F00DB11D639FFD
:102DB000AA27F00DB11DAA1F649F6627B00DA11DA3
:102DC000661F829F2227B00DA11D621F739FB00D49
:102DD000A11D621F839FA00D611D221F749F3327B9
:102DE000A00D611D231F849F600D211D822F762F52
:102DF0006A2F11249F5750409AF0F1F088234AF02F
:102E0000EE0FFF1FBB1F661F771F881F915050409A
:102E1000A9F79E3F510580F00C9423170C946E1770
:102E20005F3FE4F3983ED4F3869577956795B79521
:102E3000F795E7959F5FC1F7FE2B880F911D96953B
:102E4000879597F9089597F99F6780E870E060E0AB
:102E500008959FEF80EC089500240A941616170633
:102E600018060906089500240A941216130614067B
:102E700005060895092E0394000C11F4882352F0DE
:102E8000BB0F40F4BF2B11F460FF04C06F5F7F4F96
:102E90008F4F9F4F089557FD9058440F551F59F07D
:102EA0005F3F71F04795880F97FB991F61F09F3F37
:102EB00079F087950895121613061406551FF2CF60
:102EC0004695F1DF08C0161617061806991FF1CFB0
:102ED00086957105610508940895E894BB276627D7
:102EE0007727CB0197F908955058BB27AA270E944E
:102EF0008C170C943A170E942C1738F00E94331745
:102F000020F039F49F3F19F426F40C9429170EF49D
:102F1000E095E7FB0C942317E92F0E944B1758F319
:102F2000BA17620773078407950720F079F4A6F5AE
:102F30000C946D170EF4E0950B2EBA2FA02D0B01FB
:102F4000B90190010C01CA01A0011124FF27591BEE
:102F500099F0593F50F4503E68F11A16F040A22FF4
:102F6000232F342F4427585FF3CF46953795279565
:102F7000A795F0405395C9F77EF41F16BA0B620B64
:102F8000730B840BBAF09150A1F0FF0FBB1F661FAB
:102F9000771F881FC2F70EC0BA0F621F731F841FEE
:102FA00048F4879577956795B795F7959E3F08F014
:102FB000B0CF9395880F08F09927EE0F97958795D6
:102FC00008950E94E8176894B1110C946E17089543
:102FD0000E94531788F09F5798F0B92F9927B7513F
:102FE000B0F0E1F0660F771F881F991F1AF0BA95AD
:102FF000C9F714C0B13091F00E946D17B1E0089587
:103000000C946D17672F782F8827B85F39F0B93F78
:10301000CCF3869577956795B395D9F73EF490955F
:103020008095709561957F4F8F4F9F4F08950E94B7
:10303000921608F48FEF0895FA01EE0FFF1F3096F5
:1030400021053105A1F16115710561F48038BFE3F7
:103050009B0749F168949038810561F08038BFEF93
:103060009B0741F099234AF5FF3FE1053105210512
:1030700019F1E8940894E795D901AA2329F4AB2F14
:10308000BE2FF85FD0F310C0FF5F70F4A695E0F795
:10309000F73950F019F0FF3A38F49F779F930DD02D
:1030A0000F9007FC9058089546F00C94291760E0A3
:1030B00070E080E89FE308954FE79F775F934F9319
:1030C0003F932F930E9417192F913F914F915F913A
:1030D0000E94B6160C94741829F416F00C94231759
:1030E0000C946D170C9429170E945317A8F3963867
:1030F000A0F707F80F92E8942BE33AEA48EB5FE772
:103100000E94CC160F920F920F924DB75EB70F929E
:103110000E945F19E8E6F0E00E94A6184F915F91C7
:10312000EF91FF91E595EE1FFF1F49F0FE57E06814
:103130004427EE0F441FFA95E1F74195550B0E9485
:10314000D9180F9007FE0C94CD180895DF93CF93F4
:103150001F930F93FF92EF92DF927B018C01689493
:1031600006C0DA2EEF010E94C916FE01E894A5916F
:103170002591359145915591A6F3EF010E948C1749
:10318000FE019701A801DA9469F7DF90EF90FF90B4
:103190000F911F91CF91DF9108959B01AC0160E0E9
:1031A00070E080E89FE30C9493190C9423170C941F
:1031B000051A0E945317D8F39923C9F3940F511D90
:1031C000A3F39150504094F059F0882332F0660FE9
:1031D000771F881F91505040C1F79E3F51052CF733
:1031E000880F911D9695879597F908955F3FACF0EC
:1031F000983E9CF0BB27869577956795B79508F420
:10320000B1609395C1F7BB0F58F711F460FFE8CF99
:103210006F5F7F4F8F4F9F4FE3CF0C946E1716F069
:103220000C94051A0C94291768940C9423170E9487
:103230005317A8F39923C1F3AEF3DF93CF931F93F2
:103240000F93FF92C92FDD2788232AF02197660F5D
:10325000771F881FDAF720E030E040E85FEB9FE35C
:10326000883920F0803E38F021968F770E947517BC
:10327000E0E9F0E004C00E947517EDEBF0E00E9479
:10328000A6188B01BE01EC01FB2E6F5771097595D5
:10329000771F880B990B0E94571628E132E741E30C
:1032A0005FE30E94C916AF2D9801AE01FF900F9108
:1032B0001F91CF91DF910E948C170C943A17FA015D
:1032C000DC01AA0FBB1F9B01AC01BF5728F42227CA
:1032D00033274427507820C0B75190F4AB2F0024F7
:1032E000469537952795011CA395D2F3002071F0E0
:1032F000220F331F441FB395DAF30ED00C947417CA
:1033000061307105A0E88A07B94630F49B01AC0131
:103310006627772788279078309621F0208331839D
:103320004283538308950E94A7190C943A170E9470
:10333000331758F00E942C1740F029F45F3F29F012
:103340000C94231751110C946E170C9429170E949A
:103350004B1768F39923B1F3552391F3951B550B44
:10336000BB27AA2762177307840738F09F5F5F4F58
:10337000220F331F441FAA1FA9F335D00E2E3AF097
:10338000E0E832D091505040E695001CCAF72BD0AF
:10339000FE2F29D0660F771F881FBB1F2617370700
:1033A0004807AB07B0E809F0BB0B802DBF01FF2732
:1033B00093585F4F3AF09E3F510578F00C942317D5
:1033C0000C946E175F3FE4F3983ED4F3869577959F
:1033D0006795B795F7959F5FC9F7880F911D9695EB
:1033E000879597F90895E1E0660F771F881FBB1F47
:1033F000621773078407BA0720F0621B730B840BF4
:10340000BA0BEE1F88F7E09508959F3F31F0915079
:1034100020F4879577956795B795880F911D9695B8
:10342000879597F90895EE0FFF1F0590F491E02D11
:103430000994DC0101C06D9341505040E0F70895BC
:04344000F894FFCF2E
:1034440039303030527D003238303A204139203022
:103454003020383520303720413920303020413871
:103464002041417D3A3835203036204135203030F6
:103474002038352030342041352030317D3A3835FC
:103484002030352043302030342044302030342064
:1034940041352030347D3A383520303620433020D1
:1034A40030352044302030342041352030357D3AC9
:1034B4003835203036204135203036203831203020
:1034C400342041312030347D3A4335203036204495
:1034D40030203245204536203034204430203032EC
:1034E4007D3A453620303520413520303220433571
:1034F4002030342044302030347D3A41352030337C
:1035040020433520303520443020443420413520B8
:1035140030307D3A38352030342041352030312068
:1035240038352030352043302030347D3A44302043
:103534003034204135203034203835203036204393
:10354400302030357D3A443020303420413520302D
:10355400352038352030362041312030347D3A430F
:10356400352030362044302036392045362030345A
:103574002044302030327D3A4536203035204135E4
:103584002030322043352030342044302030347D04
:103594003A41352030332043352030352044302023
:1035A40044382043302030307D3A443020303820B5
:1035B40041392046462038352030362043382034DF
:1035C400437D3A384120303220433020303120448A
:1035D400302030342041392030317D3A4430204687
:1035E40032204330203032204430203038203036EE
:1035F4002030367D3A393020454420413920464533
:103604002044302045362043302030337D3A443046
:1036140020303820333820323620303620423020D3
:1036240045302043387D3A44302044442043302000
:1036340030342046302046392041392035307D3A17
:103644003230203643203033204139203431203287
:10365400302036432030337D3A413920353320320F
:103664003020364320303320413920353320323066
:103674007D3A3643203033203230203943203033F2
:103684002045362030372041357D3A3037203230DE
:10369400203730203033203230203931203033206D
:1036A40045417D3A4541204541203443203834206A
:1036B40030322034382039382032307D3A373020C7
:1036C400303320323020394320303320413520300C
:1036D400352032307D3A37302030332041352030A8
:1036E400342032302037302030332032307D3A39A4
:1036F40043203033204135203036203230203730DB
:103704002030332032307D3A39432030332036386C
:103714002032302037302030332032302039317D90
:103724003A30332034432030302046462032302093
:1037340045462046462036307D3A343820344120F0
:103744003441203441203441203239203046203065
:10375400397D3A3330204339203341203930203009
:10376400322036392030362032307D3A364320300C
:103774003320363820323920304620303920333057
:103784002043397D3A3341203930203032203639D4
:103794002030362032302036432030337D3A3630E4
:1037A4002041392030442032302036432030332029
:1037B40041392030417D3A323020364320303320A5
:1037C40036302041392032302032302036437D3AA1
:1037D40030332036307D00303A20413920303020DB
:1037E4004141203230204546204646204538203885
:1037F400412034432030322030307D7D3030303031
:10380400527D004150504C452D3120555342204BA0
:103814004559424F415244206D656E757D7D663237
:10382400202D3E2063686172746573747D66332055
:103834002D3E206D656D74657374202832383052C6
:1038440020746F2072756E206166746572207365D2
:10385400747570297D6634202D3E204346464131DF
:10386400204D656E757D7D0000000000BB040000E6
:103874000000FE05000000007F01DF000C01CC0108
:103884003D011B012F0100000000130BC806540664
:10389400000E5106C706C5064C0647063E067306CB
:1038A4003B06FF05FEFF0000310600000000A404F3
:1038B4004F042D04000000000703A10D98062210F8
:1038C4008B06C206BF06BC06B90645534320000D4D
:0238D4000A00E8
:107E0000112484B714BE81FFF0D085E080938100F7
:107E100082E08093C00088E18093C10086E0809377
:107E2000C20080E18093C4008EE0C9D0259A86E02C
:107E300020E33CEF91E0309385002093840096BBD3
:107E4000B09BFECF1D9AA8958150A9F7CC24DD24C4
:107E500088248394B5E0AB2EA1E19A2EF3E0BF2EE7
:107E6000A2D0813461F49FD0082FAFD0023811F036
:107E7000013811F484E001C083E08DD089C08234E0
:107E800011F484E103C0853419F485E0A6D080C0E4
:107E9000853579F488D0E82EFF2485D0082F10E0AE
:107EA000102F00270E291F29000F111F8ED06801E7
:107EB0006FC0863521F484E090D080E0DECF843638
:107EC00009F040C070D06FD0082F6DD080E0C81688
:107ED00080E7D80618F4F601B7BEE895C0E0D1E017
:107EE00062D089930C17E1F7F0E0CF16F0E7DF06D8
:107EF00018F0F601B7BEE89568D007B600FCFDCFD4
:107F0000A601A0E0B1E02C9130E011968C91119780
:107F100090E0982F8827822B932B1296FA010C0160
:107F200087BEE89511244E5F5F4FF1E0A038BF0790
:107F300051F7F601A7BEE89507B600FCFDCF97BE46
:107F4000E89526C08437B1F42ED02DD0F82E2BD052
:107F50003CD0F601EF2C8F010F5F1F4F84911BD097
:107F6000EA94F801C1F70894C11CD11CFA94CF0C13
:107F7000D11C0EC0853739F428D08EE10CD085E9AC
:107F80000AD08FE07ACF813511F488E018D01DD067
:107F900080E101D065CF982F8091C00085FFFCCF94
:107FA0009093C60008958091C00087FFFCCF809118
:107FB000C00084FD01C0A8958091C6000895E0E648
:107FC000F0E098E1908380830895EDDF803219F02E
:107FD00088E0F5DFFFCF84E1DECF1F93182FE3DFCA
:107FE0001150E9F7F2DF1F91089580E0E8DFEE27F6
:047FF000FF270994CA
:027FFE00040479
:0400000300007E007B
:00000001FF
